{
  "contractName": "Admin",
  "abi": [
    {
      "inputs": [],
      "stateMutability": "nonpayable",
      "type": "constructor"
    },
    {
      "anonymous": false,
      "inputs": [
        {
          "indexed": false,
          "internalType": "uint256",
          "name": "evaluator",
          "type": "uint256"
        }
      ],
      "name": "LogAvailableEvaluatorChanged",
      "type": "event"
    },
    {
      "anonymous": false,
      "inputs": [
        {
          "indexed": true,
          "internalType": "address",
          "name": "evaluator",
          "type": "address"
        }
      ],
      "name": "LogEvaluatorAdded",
      "type": "event"
    },
    {
      "anonymous": false,
      "inputs": [
        {
          "indexed": true,
          "internalType": "address",
          "name": "evaluator",
          "type": "address"
        }
      ],
      "name": "LogEvaluatorRemoved",
      "type": "event"
    },
    {
      "anonymous": false,
      "inputs": [
        {
          "indexed": true,
          "internalType": "bool",
          "name": "stopped",
          "type": "bool"
        }
      ],
      "name": "LogStoppedChanged",
      "type": "event"
    },
    {
      "inputs": [],
      "name": "counter",
      "outputs": [
        {
          "internalType": "uint256",
          "name": "",
          "type": "uint256"
        }
      ],
      "stateMutability": "view",
      "type": "function",
      "constant": true
    },
    {
      "inputs": [],
      "name": "stopped",
      "outputs": [
        {
          "internalType": "bool",
          "name": "",
          "type": "bool"
        }
      ],
      "stateMutability": "view",
      "type": "function",
      "constant": true
    },
    {
      "inputs": [],
      "name": "stopContract",
      "outputs": [
        {
          "internalType": "bool",
          "name": "",
          "type": "bool"
        }
      ],
      "stateMutability": "nonpayable",
      "type": "function"
    },
    {
      "inputs": [],
      "name": "startContract",
      "outputs": [
        {
          "internalType": "bool",
          "name": "",
          "type": "bool"
        }
      ],
      "stateMutability": "nonpayable",
      "type": "function"
    },
    {
      "inputs": [
        {
          "internalType": "address payable",
          "name": "_evaluator",
          "type": "address"
        }
      ],
      "name": "addNewEvaluator",
      "outputs": [
        {
          "internalType": "bool",
          "name": "",
          "type": "bool"
        }
      ],
      "stateMutability": "nonpayable",
      "type": "function"
    },
    {
      "inputs": [],
      "name": "fetchRecentlyAddedEvaluators",
      "outputs": [
        {
          "internalType": "address[5]",
          "name": "",
          "type": "address[5]"
        }
      ],
      "stateMutability": "view",
      "type": "function",
      "constant": true
    }
  ],
  "bytecode": "0x60806040526000600460006101000a81548160ff02191690831515021790555034801561002b57600080fd5b50336000806101000a81548173ffffffffffffffffffffffffffffffffffffffff021916908373ffffffffffffffffffffffffffffffffffffffff1602179055506001600381905550336002600080815260200190815260200160002060006101000a81548173ffffffffffffffffffffffffffffffffffffffff021916908373ffffffffffffffffffffffffffffffffffffffff16021790555060018060003373ffffffffffffffffffffffffffffffffffffffff1673ffffffffffffffffffffffffffffffffffffffff16815260200190815260200160002060006101000a81548160ff02191690831515021790555061068a8061012c6000396000f3fe608060405234801561001057600080fd5b50600436106100625760003560e01c806312253a6c1461006757806352a7220c146100895780635fb02f4d146100cf57806361bc221a146100f157806375f12b211461010f578063e7cebea914610131575b600080fd5b61006f61018d565b604051808215151515815260200191505060405180910390f35b610091610270565b6040518082600560200280838360005b838110156100bc5780820151818401526020810190506100a1565b5050505090500191505060405180910390f35b6100d761037d565b604051808215151515815260200191505060405180910390f35b6100f961045f565b6040518082815260200191505060405180910390f35b610117610465565b604051808215151515815260200191505060405180910390f35b6101736004803603602081101561014757600080fd5b81019080803573ffffffffffffffffffffffffffffffffffffffff169060200190929190505050610478565b604051808215151515815260200191505060405180910390f35b60008060009054906101000a900473ffffffffffffffffffffffffffffffffffffffff1673ffffffffffffffffffffffffffffffffffffffff163373ffffffffffffffffffffffffffffffffffffffff16146101e857600080fd5b600460009054906101000a900460ff161561020257600080fd5b6001600460006101000a81548160ff021916908315150217905550600460009054906101000a900460ff1615157ffb0dcbdf8561fb4eedad00908914583b7985b9e7df1d0234f4d43f9cc94fb9ab60405160405180910390a2600460009054906101000a900460ff16905090565b610278610632565b610280610632565b60008090505b6005811015610375576000816001600354030310156102e95760008282600581106102ad57fe5b602002019073ffffffffffffffffffffffffffffffffffffffff16908173ffffffffffffffffffffffffffffffffffffffff1681525050610368565b600260008260016003540303815260200190815260200160002060009054906101000a900473ffffffffffffffffffffffffffffffffffffffff1682826005811061033057fe5b602002019073ffffffffffffffffffffffffffffffffffffffff16908173ffffffffffffffffffffffffffffffffffffffff16815250505b8080600101915050610286565b508091505090565b60008060009054906101000a900473ffffffffffffffffffffffffffffffffffffffff1673ffffffffffffffffffffffffffffffffffffffff163373ffffffffffffffffffffffffffffffffffffffff16146103d857600080fd5b600460009054906101000a900460ff166103f157600080fd5b6000600460006101000a81548160ff021916908315150217905550600460009054906101000a900460ff1615157ffb0dcbdf8561fb4eedad00908914583b7985b9e7df1d0234f4d43f9cc94fb9ab60405160405180910390a2600460009054906101000a900460ff16905090565b60035481565b600460009054906101000a900460ff1681565b60008060009054906101000a900473ffffffffffffffffffffffffffffffffffffffff1673ffffffffffffffffffffffffffffffffffffffff163373ffffffffffffffffffffffffffffffffffffffff16146104d357600080fd5b600160008373ffffffffffffffffffffffffffffffffffffffff1673ffffffffffffffffffffffffffffffffffffffff16815260200190815260200160002060009054906101000a900460ff161561052a57600080fd5b8160026000600354815260200190815260200160002060006101000a81548173ffffffffffffffffffffffffffffffffffffffff021916908373ffffffffffffffffffffffffffffffffffffffff160217905550600160036000828254019250508190555060018060008473ffffffffffffffffffffffffffffffffffffffff1673ffffffffffffffffffffffffffffffffffffffff16815260200190815260200160002060006101000a81548160ff0219169083151502179055508173ffffffffffffffffffffffffffffffffffffffff167f40ce51e165ca122b79b4e5ba4348d1a49270fc4949ee3b9bed282864ba428aa160405160405180910390a260019050919050565b6040518060a0016040528060059060208202803883398082019150509050509056fea2646970667358221220720688d33e1afb1f89832f420d32052bec39b28bc5187453e28dfc2fb5be655064736f6c63430006010033",
  "source": "// SPDX-License-Identifier: MIT\npragma solidity >=0.4.22 <0.8.0;\n\ncontract Admin {\n\n  address owner;\n  mapping(address => bool) internal validEvaluators;\n  mapping(uint => address) internal evaluators;\n  uint public counter;\n  bool public stopped = false;\n  uint availableEvaluator;\n\n  event LogStoppedChanged(bool indexed stopped);\n  event LogEvaluatorAdded(address indexed evaluator);\n  event LogEvaluatorRemoved(address indexed evaluator);\n  event LogAvailableEvaluatorChanged(uint evaluator);\n\n  modifier stopInEmergency { require(!stopped); _; }\n  modifier onlyInEmergency { require(stopped); _; }\n\n  modifier isOwner(){\n      require(msg.sender == owner);\n      _;\n  }\n\n  modifier isNotOwner(){\n    require(msg.sender != owner);\n    _;\n  }\n  modifier isEvaluator(){\n      require(validEvaluators[msg.sender]);\n      _;\n  }\n  constructor() public {\n    owner = msg.sender;\n    counter = 1;\n\n    evaluators[0] = msg.sender;\n    validEvaluators[msg.sender] = true;\n  }\n\n  function stopContract() public isOwner stopInEmergency returns ( bool){\n    stopped = true;\n    emit LogStoppedChanged(stopped);\n    return stopped;\n  }\n\n  function startContract() public isOwner onlyInEmergency returns ( bool){\n    stopped = false;\n    emit LogStoppedChanged(stopped);\n    return stopped;\n  }\n\n  function addNewEvaluator(address payable _evaluator) public isOwner returns ( bool){\n    require(!validEvaluators[_evaluator]);\n    evaluators[counter] = _evaluator;\n    counter += 1;\n    validEvaluators[_evaluator] = true;\n    emit LogEvaluatorAdded(_evaluator);\n    return true;\n  }\n\n\n  function changeAvailableEvaluator(uint lastAvailableEvaluator) internal returns ( uint){\n    availableEvaluator = lastAvailableEvaluator+1;\n    if(availableEvaluator >= counter){\n      availableEvaluator = 0;\n    }\n    emit LogAvailableEvaluatorChanged(availableEvaluator);\n    return availableEvaluator;\n  }\n\n  function fetchRecentlyAddedEvaluators() public view returns(address[5] memory) {\n    address[5] memory recentEvaluators;\n    for(uint i=0; i<5; i++){\n      if(counter -1 - i < 0){\n        recentEvaluators[i] = address(0);\n      }else{\n        recentEvaluators[i] = evaluators[counter-1-i];\n      }\n    }\n    return recentEvaluators;\n  }\n}\n",
  "sourcePath": "/home/eshghi/haniye/blockchain-projects/p2p-insurance/contracts/Admin.sol",
  "compiler": {
    "name": "solc",
    "version": "0.6.1+commit.e6f7d5a4.Emscripten.clang"
  },
  "schemaVersion": "3.3.2",
  "updatedAt": "2020-12-03T19:27:11.046Z",
  "networkType": "ethereum",
  "devdoc": {
    "methods": {}
  },
  "userdoc": {
    "methods": {}
  }
}