{
  "contractName": "Admin",
  "abi": [
    {
      "inputs": [],
      "stateMutability": "nonpayable",
      "type": "constructor"
    },
    {
      "anonymous": false,
      "inputs": [
        {
          "indexed": true,
          "internalType": "address",
          "name": "evaluator",
          "type": "address"
        }
      ],
      "name": "LogEvaluatorAdded",
      "type": "event"
    },
    {
      "anonymous": false,
      "inputs": [
        {
          "indexed": true,
          "internalType": "address",
          "name": "evaluator",
          "type": "address"
        }
      ],
      "name": "LogEvaluatorRemoved",
      "type": "event"
    },
    {
      "anonymous": false,
      "inputs": [
        {
          "indexed": true,
          "internalType": "bool",
          "name": "stopped",
          "type": "bool"
        }
      ],
      "name": "LogStoppedChanged",
      "type": "event"
    },
    {
      "inputs": [],
      "name": "counter",
      "outputs": [
        {
          "internalType": "uint256",
          "name": "",
          "type": "uint256"
        }
      ],
      "stateMutability": "view",
      "type": "function",
      "constant": true
    },
    {
      "inputs": [
        {
          "internalType": "uint256",
          "name": "",
          "type": "uint256"
        }
      ],
      "name": "evaluators",
      "outputs": [
        {
          "internalType": "address payable",
          "name": "",
          "type": "address"
        }
      ],
      "stateMutability": "view",
      "type": "function",
      "constant": true
    },
    {
      "inputs": [],
      "name": "stopped",
      "outputs": [
        {
          "internalType": "bool",
          "name": "",
          "type": "bool"
        }
      ],
      "stateMutability": "view",
      "type": "function",
      "constant": true
    },
    {
      "inputs": [
        {
          "internalType": "address",
          "name": "",
          "type": "address"
        }
      ],
      "name": "validEvaluators",
      "outputs": [
        {
          "internalType": "bool",
          "name": "",
          "type": "bool"
        }
      ],
      "stateMutability": "view",
      "type": "function",
      "constant": true
    },
    {
      "inputs": [],
      "name": "stopContract",
      "outputs": [
        {
          "internalType": "bool",
          "name": "",
          "type": "bool"
        }
      ],
      "stateMutability": "nonpayable",
      "type": "function"
    },
    {
      "inputs": [],
      "name": "startContract",
      "outputs": [
        {
          "internalType": "bool",
          "name": "",
          "type": "bool"
        }
      ],
      "stateMutability": "nonpayable",
      "type": "function"
    },
    {
      "inputs": [
        {
          "internalType": "address payable",
          "name": "_evaluator",
          "type": "address"
        }
      ],
      "name": "addNewEvaluator",
      "outputs": [
        {
          "internalType": "bool",
          "name": "",
          "type": "bool"
        }
      ],
      "stateMutability": "nonpayable",
      "type": "function"
    }
  ],
  "bytecode": "0x60806040526000600460006101000a81548160ff02191690831515021790555034801561002b57600080fd5b50336000806101000a81548173ffffffffffffffffffffffffffffffffffffffff021916908373ffffffffffffffffffffffffffffffffffffffff16021790555060006003819055506105c3806100836000396000f3fe608060405234801561001057600080fd5b506004361061007d5760003560e01c806375f12b211161005b57806375f12b21146100e45780639a7c79b014610106578063e168afe314610162578063e7cebea9146101d05761007d565b806312253a6c146100825780635fb02f4d146100a457806361bc221a146100c6575b600080fd5b61008a61022c565b604051808215151515815260200191505060405180910390f35b6100ac6102f5565b604051808215151515815260200191505060405180910390f35b6100ce6103be565b6040518082815260200191505060405180910390f35b6100ec6103c4565b604051808215151515815260200191505060405180910390f35b6101486004803603602081101561011c57600080fd5b81019080803573ffffffffffffffffffffffffffffffffffffffff1690602001909291905050506103d7565b604051808215151515815260200191505060405180910390f35b61018e6004803603602081101561017857600080fd5b81019080803590602001909291905050506103f7565b604051808273ffffffffffffffffffffffffffffffffffffffff1673ffffffffffffffffffffffffffffffffffffffff16815260200191505060405180910390f35b610212600480360360208110156101e657600080fd5b81019080803573ffffffffffffffffffffffffffffffffffffffff16906020019092919050505061042a565b604051808215151515815260200191505060405180910390f35b60008060009054906101000a900473ffffffffffffffffffffffffffffffffffffffff1673ffffffffffffffffffffffffffffffffffffffff163373ffffffffffffffffffffffffffffffffffffffff161461028757600080fd5b6001600460006101000a81548160ff021916908315150217905550600460009054906101000a900460ff1615157ffb0dcbdf8561fb4eedad00908914583b7985b9e7df1d0234f4d43f9cc94fb9ab60405160405180910390a2600460009054906101000a900460ff16905090565b60008060009054906101000a900473ffffffffffffffffffffffffffffffffffffffff1673ffffffffffffffffffffffffffffffffffffffff163373ffffffffffffffffffffffffffffffffffffffff161461035057600080fd5b6000600460006101000a81548160ff021916908315150217905550600460009054906101000a900460ff1615157ffb0dcbdf8561fb4eedad00908914583b7985b9e7df1d0234f4d43f9cc94fb9ab60405160405180910390a2600460009054906101000a900460ff16905090565b60035481565b600460009054906101000a900460ff1681565b60016020528060005260406000206000915054906101000a900460ff1681565b60026020528060005260406000206000915054906101000a900473ffffffffffffffffffffffffffffffffffffffff1681565b60008060009054906101000a900473ffffffffffffffffffffffffffffffffffffffff1673ffffffffffffffffffffffffffffffffffffffff163373ffffffffffffffffffffffffffffffffffffffff161461048557600080fd5b8160026000600354815260200190815260200160002060006101000a81548173ffffffffffffffffffffffffffffffffffffffff021916908373ffffffffffffffffffffffffffffffffffffffff160217905550600160036000828254019250508190555060018060008473ffffffffffffffffffffffffffffffffffffffff1673ffffffffffffffffffffffffffffffffffffffff16815260200190815260200160002060006101000a81548160ff0219169083151502179055508173ffffffffffffffffffffffffffffffffffffffff167f40ce51e165ca122b79b4e5ba4348d1a49270fc4949ee3b9bed282864ba428aa160405160405180910390a26001905091905056fea264697066735822122088df6a6276b2c5b054b4d035f57e1af6a5e2b1ed6e5e4f670d40726f71598f3164736f6c63430006010033",
  "source": "// SPDX-License-Identifier: MIT\npragma solidity >=0.4.22 <0.8.0;\n\ncontract Admin {\n\n  address owner;\n  mapping(address => bool) public validEvaluators;\n  mapping(uint => address payable) public evaluators;\n  uint public counter;\n  bool public stopped = false;\n  uint availableEvaluator;\n\n  event LogStoppedChanged(bool indexed stopped);\n  event LogEvaluatorAdded(address indexed evaluator);\n  event LogEvaluatorRemoved(address indexed evaluator);\n\n  modifier stopInEmergency { require(!stopped); _; }\n  modifier onlyInEmergency { require(stopped); _; }\n    \n  modifier isOwner(){\n      require(msg.sender == owner);\n      _;\n  }\n  modifier isEvaluator(){\n      require(validEvaluators[msg.sender]);\n      _;\n  }\n  constructor() public {\n    owner = msg.sender;\n    counter = 0;\n  }\n\n  function stopContract() public isOwner returns ( bool){\n    stopped = true;\n    emit LogStoppedChanged(stopped);\n    return stopped;\n  }\n\n  function startContract() public isOwner returns ( bool){\n    stopped = false;\n    emit LogStoppedChanged(stopped);\n    return stopped;\n  }\n\n  function addNewEvaluator(address payable _evaluator) public isOwner returns ( bool){\n    evaluators[counter] = _evaluator;\n    counter += 1;\n    validEvaluators[_evaluator] = true;\n    emit LogEvaluatorAdded(_evaluator);\n    return true;\n  }\n\n  // function removeEvaluator(address _evaluator) public isOwner returns ( bool){\n  //   validEvaluators[_evaluator] = false;\n  //   emit LogEvaluatorRemoved(_evaluator);\n  //   return true;\n  // }\n\n  function changeAvailableEvaluator(uint lastAvailableEvaluator) internal returns ( uint){\n    availableEvaluator = lastAvailableEvaluator+1;\n    if(availableEvaluator >= counter){\n      availableEvaluator = 0;\n    }\n    return availableEvaluator;\n  }\n}\n",
  "sourcePath": "W:\\haniye-projects\\p2p-insurance\\contracts\\Admin.sol",
  "compiler": {
    "name": "solc",
    "version": "0.6.1+commit.e6f7d5a4.Emscripten.clang"
  },
  "schemaVersion": "3.3.2",
  "updatedAt": "2020-11-12T19:00:02.263Z",
  "networkType": "ethereum",
  "devdoc": {
    "methods": {}
  },
  "userdoc": {
    "methods": {}
  }
}