{
  "contractName": "Admin",
  "abi": [
    {
      "inputs": [],
      "stateMutability": "nonpayable",
      "type": "constructor"
    },
    {
      "anonymous": false,
      "inputs": [
        {
          "indexed": false,
          "internalType": "uint256",
          "name": "evaluator",
          "type": "uint256"
        }
      ],
      "name": "LogAvailableEvaluatorChanged",
      "type": "event"
    },
    {
      "anonymous": false,
      "inputs": [
        {
          "indexed": true,
          "internalType": "address",
          "name": "evaluator",
          "type": "address"
        }
      ],
      "name": "LogEvaluatorAdded",
      "type": "event"
    },
    {
      "anonymous": false,
      "inputs": [
        {
          "indexed": true,
          "internalType": "address",
          "name": "evaluator",
          "type": "address"
        }
      ],
      "name": "LogEvaluatorRemoved",
      "type": "event"
    },
    {
      "anonymous": false,
      "inputs": [
        {
          "indexed": true,
          "internalType": "bool",
          "name": "stopped",
          "type": "bool"
        }
      ],
      "name": "LogStoppedChanged",
      "type": "event"
    },
    {
      "inputs": [],
      "name": "counter",
      "outputs": [
        {
          "internalType": "uint256",
          "name": "",
          "type": "uint256"
        }
      ],
      "stateMutability": "view",
      "type": "function",
      "constant": true
    },
    {
      "inputs": [],
      "name": "stopped",
      "outputs": [
        {
          "internalType": "bool",
          "name": "",
          "type": "bool"
        }
      ],
      "stateMutability": "view",
      "type": "function",
      "constant": true
    },
    {
      "inputs": [],
      "name": "stopContract",
      "outputs": [
        {
          "internalType": "bool",
          "name": "",
          "type": "bool"
        }
      ],
      "stateMutability": "nonpayable",
      "type": "function"
    },
    {
      "inputs": [],
      "name": "startContract",
      "outputs": [
        {
          "internalType": "bool",
          "name": "",
          "type": "bool"
        }
      ],
      "stateMutability": "nonpayable",
      "type": "function"
    },
    {
      "inputs": [
        {
          "internalType": "address payable",
          "name": "_evaluator",
          "type": "address"
        }
      ],
      "name": "addNewEvaluator",
      "outputs": [
        {
          "internalType": "bool",
          "name": "",
          "type": "bool"
        }
      ],
      "stateMutability": "nonpayable",
      "type": "function"
    },
    {
      "inputs": [],
      "name": "fetchRecentlyAddedEvaluators",
      "outputs": [
        {
          "internalType": "address[5]",
          "name": "",
          "type": "address[5]"
        }
      ],
      "stateMutability": "view",
      "type": "function",
      "constant": true
    },
    {
      "inputs": [
        {
          "internalType": "uint256",
          "name": "id",
          "type": "uint256"
        }
      ],
      "name": "fetchEvaluatorById",
      "outputs": [
        {
          "internalType": "address",
          "name": "",
          "type": "address"
        }
      ],
      "stateMutability": "view",
      "type": "function",
      "constant": true
    },
    {
      "inputs": [
        {
          "internalType": "address",
          "name": "add",
          "type": "address"
        }
      ],
      "name": "fetchStatusOfEvaluatorById",
      "outputs": [
        {
          "internalType": "bool",
          "name": "",
          "type": "bool"
        }
      ],
      "stateMutability": "view",
      "type": "function",
      "constant": true
    },
    {
      "inputs": [],
      "name": "fetchStopped",
      "outputs": [
        {
          "internalType": "bool",
          "name": "",
          "type": "bool"
        }
      ],
      "stateMutability": "view",
      "type": "function",
      "constant": true
    }
  ],
  "bytecode": "0x608060405234801561001057600080fd5b50336000806101000a81548173ffffffffffffffffffffffffffffffffffffffff021916908373ffffffffffffffffffffffffffffffffffffffff16021790555060016003819055506000600460006101000a81548160ff021916908315150217905550336002600080815260200190815260200160002060006101000a81548173ffffffffffffffffffffffffffffffffffffffff021916908373ffffffffffffffffffffffffffffffffffffffff16021790555060018060003373ffffffffffffffffffffffffffffffffffffffff1673ffffffffffffffffffffffffffffffffffffffff16815260200190815260200160002060006101000a81548160ff02191690831515021790555061086b8061012c6000396000f3fe608060405234801561001057600080fd5b50600436106100935760003560e01c806375f12b211161006657806375f12b21146101405780637e4f6cc914610162578063c53ea918146101be578063e7cebea91461022c578063f4815bce1461028857610093565b806312253a6c1461009857806352a7220c146100ba5780635fb02f4d1461010057806361bc221a14610122575b600080fd5b6100a06102aa565b604051808215151515815260200191505060405180910390f35b6100c261038d565b6040518082600560200280838360005b838110156100ed5780820151818401526020810190506100d2565b5050505090500191505060405180910390f35b61010861049a565b604051808215151515815260200191505060405180910390f35b61012a61057c565b6040518082815260200191505060405180910390f35b610148610582565b604051808215151515815260200191505060405180910390f35b6101a46004803603602081101561017857600080fd5b81019080803573ffffffffffffffffffffffffffffffffffffffff169060200190929190505050610595565b604051808215151515815260200191505060405180910390f35b6101ea600480360360208110156101d457600080fd5b81019080803590602001909291905050506105eb565b604051808273ffffffffffffffffffffffffffffffffffffffff1673ffffffffffffffffffffffffffffffffffffffff16815260200191505060405180910390f35b61026e6004803603602081101561024257600080fd5b81019080803573ffffffffffffffffffffffffffffffffffffffff169060200190929190505050610628565b604051808215151515815260200191505060405180910390f35b6102906107fc565b604051808215151515815260200191505060405180910390f35b60008060009054906101000a900473ffffffffffffffffffffffffffffffffffffffff1673ffffffffffffffffffffffffffffffffffffffff163373ffffffffffffffffffffffffffffffffffffffff161461030557600080fd5b600460009054906101000a900460ff161561031f57600080fd5b6001600460006101000a81548160ff021916908315150217905550600460009054906101000a900460ff1615157ffb0dcbdf8561fb4eedad00908914583b7985b9e7df1d0234f4d43f9cc94fb9ab60405160405180910390a2600460009054906101000a900460ff16905090565b610395610813565b61039d610813565b60008090505b6005811015610492576000816001600354030310156104065760008282600581106103ca57fe5b602002019073ffffffffffffffffffffffffffffffffffffffff16908173ffffffffffffffffffffffffffffffffffffffff1681525050610485565b600260008260016003540303815260200190815260200160002060009054906101000a900473ffffffffffffffffffffffffffffffffffffffff1682826005811061044d57fe5b602002019073ffffffffffffffffffffffffffffffffffffffff16908173ffffffffffffffffffffffffffffffffffffffff16815250505b80806001019150506103a3565b508091505090565b60008060009054906101000a900473ffffffffffffffffffffffffffffffffffffffff1673ffffffffffffffffffffffffffffffffffffffff163373ffffffffffffffffffffffffffffffffffffffff16146104f557600080fd5b600460009054906101000a900460ff1661050e57600080fd5b6000600460006101000a81548160ff021916908315150217905550600460009054906101000a900460ff1615157ffb0dcbdf8561fb4eedad00908914583b7985b9e7df1d0234f4d43f9cc94fb9ab60405160405180910390a2600460009054906101000a900460ff16905090565b60035481565b600460009054906101000a900460ff1681565b6000600160008373ffffffffffffffffffffffffffffffffffffffff1673ffffffffffffffffffffffffffffffffffffffff16815260200190815260200160002060009054906101000a900460ff169050919050565b60006002600083815260200190815260200160002060009054906101000a900473ffffffffffffffffffffffffffffffffffffffff169050919050565b60008060009054906101000a900473ffffffffffffffffffffffffffffffffffffffff1673ffffffffffffffffffffffffffffffffffffffff163373ffffffffffffffffffffffffffffffffffffffff161461068357600080fd5b600460009054906101000a900460ff161561069d57600080fd5b600160008373ffffffffffffffffffffffffffffffffffffffff1673ffffffffffffffffffffffffffffffffffffffff16815260200190815260200160002060009054906101000a900460ff16156106f457600080fd5b8160026000600354815260200190815260200160002060006101000a81548173ffffffffffffffffffffffffffffffffffffffff021916908373ffffffffffffffffffffffffffffffffffffffff160217905550600160036000828254019250508190555060018060008473ffffffffffffffffffffffffffffffffffffffff1673ffffffffffffffffffffffffffffffffffffffff16815260200190815260200160002060006101000a81548160ff0219169083151502179055508173ffffffffffffffffffffffffffffffffffffffff167f40ce51e165ca122b79b4e5ba4348d1a49270fc4949ee3b9bed282864ba428aa160405160405180910390a260019050919050565b6000600460009054906101000a900460ff16905090565b6040518060a0016040528060059060208202803883398082019150509050509056fea26469706673582212203ca5e7387dc850a693218929cf705aa4095b2a9032072eb3f945fced43748d0664736f6c63430006010033",
  "source": "// SPDX-License-Identifier: MIT\npragma solidity >=0.4.22 <0.8.0;\n\ncontract Admin {\n\n  address owner;\n  mapping(address => bool) internal validEvaluators;\n  mapping(uint => address) internal evaluators;\n  uint public counter;\n  bool public stopped;\n  uint availableEvaluator;\n\n  event LogStoppedChanged(bool indexed stopped);\n  event LogEvaluatorAdded(address indexed evaluator);\n  event LogEvaluatorRemoved(address indexed evaluator);\n  event LogAvailableEvaluatorChanged(uint evaluator);\n\n\n  modifier isOwner(){\n      require(msg.sender == owner);\n      _;\n  }\n\n  modifier isNotOwner(){\n    require(msg.sender != owner);\n    _;\n  }\n  modifier isEvaluator(){\n      require(validEvaluators[msg.sender]);\n      _;\n  }\n  modifier stopInEmergency() {\n    require(!stopped);\n    _;\n  }\n  modifier onlyInEmergency() {\n    require(stopped);\n    _;\n  }\n  constructor() public {\n    owner = msg.sender;\n    counter = 1;\n    stopped = false;\n    evaluators[0] = msg.sender;\n    validEvaluators[msg.sender] = true;\n  }\n\n  /// @notice this function change stopped to true\n  /// @return stopped\n  function stopContract() public isOwner stopInEmergency returns ( bool){\n    stopped = true;\n    emit LogStoppedChanged(stopped);\n    return stopped;\n  }\n\n  /// @notice this function change stopped to false\n  /// @return stopped\n  function startContract() public isOwner onlyInEmergency returns ( bool){\n    stopped = false;\n    emit LogStoppedChanged(stopped);\n    return stopped;\n  }\n\n  /// @notice this function adds new address as evaluator\n  /// @param _evaluator address of evaluator\n  function addNewEvaluator(address payable _evaluator) public isOwner stopInEmergency returns ( bool){\n    require(!validEvaluators[_evaluator]);\n    evaluators[counter] = _evaluator;\n    counter += 1;\n    validEvaluators[_evaluator] = true;\n    emit LogEvaluatorAdded(_evaluator);\n    return true;\n  }\n\n\n  function changeAvailableEvaluator(uint lastAvailableEvaluator) internal returns ( uint){\n    availableEvaluator = lastAvailableEvaluator+1;\n    if(availableEvaluator >= counter){\n      availableEvaluator = 0;\n    }\n    emit LogAvailableEvaluatorChanged(availableEvaluator);\n    return availableEvaluator;\n  }\n\n\n  /// @notice this function returns latest added evaluators\n  /// @return recentEvaluators\n  function fetchRecentlyAddedEvaluators() public view returns(address[5] memory) {\n    address[5] memory recentEvaluators;\n    for(uint i=0; i<5; i++){\n      if(counter -1 - i < 0){\n        recentEvaluators[i] = address(0);\n      }else{\n        recentEvaluators[i] = evaluators[counter-1-i];\n      }\n    }\n    return recentEvaluators;\n  }\n\n  /// @notice this function returns address of evaluator by id\n  /// @param id of evaluator\n  function fetchEvaluatorById(uint id) public view returns(address) {\n    return evaluators[id];\n  }\n\n  /// @notice this function returns true or false\n  /// @param add address of evaluator\n  function fetchStatusOfEvaluatorById(address add) public view returns(bool) {\n    return validEvaluators[add];\n  }\n\n  function fetchStopped() public view returns(bool) {\n    return stopped;\n  }\n}\n",
  "sourcePath": "/home/eshghi/haniye/blockchain-projects/p2p-insurance/contracts/Admin.sol",
  "compiler": {
    "name": "solc",
    "version": "0.6.1+commit.e6f7d5a4.Emscripten.clang"
  },
  "schemaVersion": "3.3.2",
  "updatedAt": "2020-12-05T12:39:55.716Z",
  "networkType": "ethereum",
  "devdoc": {
    "methods": {
      "addNewEvaluator(address)": {
        "params": {
          "_evaluator": "address of evaluator"
        }
      },
      "fetchEvaluatorById(uint256)": {
        "params": {
          "id": "of evaluator"
        }
      },
      "fetchStatusOfEvaluatorById(address)": {
        "params": {
          "add": "address of evaluator"
        }
      }
    }
  },
  "userdoc": {
    "methods": {
      "addNewEvaluator(address)": {
        "notice": "this function adds new address as evaluator"
      },
      "fetchEvaluatorById(uint256)": {
        "notice": "this function returns address of evaluator by id"
      },
      "fetchRecentlyAddedEvaluators()": {
        "notice": "this function returns latest added evaluators"
      },
      "fetchStatusOfEvaluatorById(address)": {
        "notice": "this function returns true or false"
      },
      "startContract()": {
        "notice": "this function change stopped to false"
      },
      "stopContract()": {
        "notice": "this function change stopped to true"
      }
    }
  }
}