{
  "contractName": "Admin",
  "abi": [
    {
      "inputs": [],
      "stateMutability": "nonpayable",
      "type": "constructor"
    },
    {
      "anonymous": false,
      "inputs": [
        {
          "indexed": false,
          "internalType": "uint256",
          "name": "evaluator",
          "type": "uint256"
        }
      ],
      "name": "LogAvailableEvaluatorChanged",
      "type": "event"
    },
    {
      "anonymous": false,
      "inputs": [
        {
          "indexed": true,
          "internalType": "address",
          "name": "evaluator",
          "type": "address"
        }
      ],
      "name": "LogEvaluatorAdded",
      "type": "event"
    },
    {
      "anonymous": false,
      "inputs": [
        {
          "indexed": true,
          "internalType": "address",
          "name": "evaluator",
          "type": "address"
        }
      ],
      "name": "LogEvaluatorRemoved",
      "type": "event"
    },
    {
      "anonymous": false,
      "inputs": [
        {
          "indexed": true,
          "internalType": "bool",
          "name": "stopped",
          "type": "bool"
        }
      ],
      "name": "LogStoppedChanged",
      "type": "event"
    },
    {
      "inputs": [],
      "name": "counter",
      "outputs": [
        {
          "internalType": "uint256",
          "name": "",
          "type": "uint256"
        }
      ],
      "stateMutability": "view",
      "type": "function",
      "constant": true
    },
    {
      "inputs": [
        {
          "internalType": "uint256",
          "name": "",
          "type": "uint256"
        }
      ],
      "name": "evaluators",
      "outputs": [
        {
          "internalType": "address",
          "name": "",
          "type": "address"
        }
      ],
      "stateMutability": "view",
      "type": "function",
      "constant": true
    },
    {
      "inputs": [],
      "name": "stopped",
      "outputs": [
        {
          "internalType": "bool",
          "name": "",
          "type": "bool"
        }
      ],
      "stateMutability": "view",
      "type": "function",
      "constant": true
    },
    {
      "inputs": [
        {
          "internalType": "address",
          "name": "",
          "type": "address"
        }
      ],
      "name": "validEvaluators",
      "outputs": [
        {
          "internalType": "bool",
          "name": "",
          "type": "bool"
        }
      ],
      "stateMutability": "view",
      "type": "function",
      "constant": true
    },
    {
      "inputs": [],
      "name": "stopContract",
      "outputs": [
        {
          "internalType": "bool",
          "name": "",
          "type": "bool"
        }
      ],
      "stateMutability": "nonpayable",
      "type": "function"
    },
    {
      "inputs": [],
      "name": "startContract",
      "outputs": [
        {
          "internalType": "bool",
          "name": "",
          "type": "bool"
        }
      ],
      "stateMutability": "nonpayable",
      "type": "function"
    },
    {
      "inputs": [
        {
          "internalType": "address payable",
          "name": "_evaluator",
          "type": "address"
        }
      ],
      "name": "addNewEvaluator",
      "outputs": [
        {
          "internalType": "bool",
          "name": "",
          "type": "bool"
        }
      ],
      "stateMutability": "nonpayable",
      "type": "function"
    },
    {
      "inputs": [],
      "name": "fetchRecentlyAddedEvaluators",
      "outputs": [
        {
          "internalType": "address[5]",
          "name": "",
          "type": "address[5]"
        }
      ],
      "stateMutability": "view",
      "type": "function",
      "constant": true
    }
  ],
  "bytecode": "0x60806040526000600460006101000a81548160ff02191690831515021790555034801561002b57600080fd5b50336000806101000a81548173ffffffffffffffffffffffffffffffffffffffff021916908373ffffffffffffffffffffffffffffffffffffffff1602179055506001600381905550336002600080815260200190815260200160002060006101000a81548173ffffffffffffffffffffffffffffffffffffffff021916908373ffffffffffffffffffffffffffffffffffffffff16021790555060018060003373ffffffffffffffffffffffffffffffffffffffff1673ffffffffffffffffffffffffffffffffffffffff16815260200190815260200160002060006101000a81548160ff0219169083151502179055506107cd8061012c6000396000f3fe608060405234801561001057600080fd5b50600436106100885760003560e01c806375f12b211161005b57806375f12b21146101355780639a7c79b014610157578063e168afe3146101b3578063e7cebea91461022157610088565b806312253a6c1461008d57806352a7220c146100af5780635fb02f4d146100f557806361bc221a14610117575b600080fd5b61009561027d565b604051808215151515815260200191505060405180910390f35b6100b7610360565b6040518082600560200280838360005b838110156100e25780820151818401526020810190506100c7565b5050505090500191505060405180910390f35b6100fd61046d565b604051808215151515815260200191505060405180910390f35b61011f61054f565b6040518082815260200191505060405180910390f35b61013d610555565b604051808215151515815260200191505060405180910390f35b6101996004803603602081101561016d57600080fd5b81019080803573ffffffffffffffffffffffffffffffffffffffff169060200190929190505050610568565b604051808215151515815260200191505060405180910390f35b6101df600480360360208110156101c957600080fd5b8101908080359060200190929190505050610588565b604051808273ffffffffffffffffffffffffffffffffffffffff1673ffffffffffffffffffffffffffffffffffffffff16815260200191505060405180910390f35b6102636004803603602081101561023757600080fd5b81019080803573ffffffffffffffffffffffffffffffffffffffff1690602001909291905050506105bb565b604051808215151515815260200191505060405180910390f35b60008060009054906101000a900473ffffffffffffffffffffffffffffffffffffffff1673ffffffffffffffffffffffffffffffffffffffff163373ffffffffffffffffffffffffffffffffffffffff16146102d857600080fd5b600460009054906101000a900460ff16156102f257600080fd5b6001600460006101000a81548160ff021916908315150217905550600460009054906101000a900460ff1615157ffb0dcbdf8561fb4eedad00908914583b7985b9e7df1d0234f4d43f9cc94fb9ab60405160405180910390a2600460009054906101000a900460ff16905090565b610368610775565b610370610775565b60008090505b6005811015610465576000816001600354030310156103d957600082826005811061039d57fe5b602002019073ffffffffffffffffffffffffffffffffffffffff16908173ffffffffffffffffffffffffffffffffffffffff1681525050610458565b600260008260016003540303815260200190815260200160002060009054906101000a900473ffffffffffffffffffffffffffffffffffffffff1682826005811061042057fe5b602002019073ffffffffffffffffffffffffffffffffffffffff16908173ffffffffffffffffffffffffffffffffffffffff16815250505b8080600101915050610376565b508091505090565b60008060009054906101000a900473ffffffffffffffffffffffffffffffffffffffff1673ffffffffffffffffffffffffffffffffffffffff163373ffffffffffffffffffffffffffffffffffffffff16146104c857600080fd5b600460009054906101000a900460ff166104e157600080fd5b6000600460006101000a81548160ff021916908315150217905550600460009054906101000a900460ff1615157ffb0dcbdf8561fb4eedad00908914583b7985b9e7df1d0234f4d43f9cc94fb9ab60405160405180910390a2600460009054906101000a900460ff16905090565b60035481565b600460009054906101000a900460ff1681565b60016020528060005260406000206000915054906101000a900460ff1681565b60026020528060005260406000206000915054906101000a900473ffffffffffffffffffffffffffffffffffffffff1681565b60008060009054906101000a900473ffffffffffffffffffffffffffffffffffffffff1673ffffffffffffffffffffffffffffffffffffffff163373ffffffffffffffffffffffffffffffffffffffff161461061657600080fd5b600160008373ffffffffffffffffffffffffffffffffffffffff1673ffffffffffffffffffffffffffffffffffffffff16815260200190815260200160002060009054906101000a900460ff161561066d57600080fd5b8160026000600354815260200190815260200160002060006101000a81548173ffffffffffffffffffffffffffffffffffffffff021916908373ffffffffffffffffffffffffffffffffffffffff160217905550600160036000828254019250508190555060018060008473ffffffffffffffffffffffffffffffffffffffff1673ffffffffffffffffffffffffffffffffffffffff16815260200190815260200160002060006101000a81548160ff0219169083151502179055508173ffffffffffffffffffffffffffffffffffffffff167f40ce51e165ca122b79b4e5ba4348d1a49270fc4949ee3b9bed282864ba428aa160405160405180910390a260019050919050565b6040518060a0016040528060059060208202803883398082019150509050509056fea264697066735822122029b9308a3cc055c3dbc52df5cdf17e77a275762d704bc78fc3b286711379447464736f6c63430006010033",
  "source": "// SPDX-License-Identifier: MIT\npragma solidity >=0.4.22 <0.8.0;\n\ncontract Admin {\n\n  address owner;\n  mapping(address => bool) public validEvaluators;\n  mapping(uint => address) public evaluators;\n  uint public counter;\n  bool public stopped = false;\n  uint availableEvaluator;\n\n  event LogStoppedChanged(bool indexed stopped);\n  event LogEvaluatorAdded(address indexed evaluator);\n  event LogEvaluatorRemoved(address indexed evaluator);\n  event LogAvailableEvaluatorChanged(uint evaluator);\n\n  modifier stopInEmergency { require(!stopped); _; }\n  modifier onlyInEmergency { require(stopped); _; }\n\n  modifier isOwner(){\n      require(msg.sender == owner);\n      _;\n  }\n  modifier isEvaluator(){\n      require(validEvaluators[msg.sender]);\n      _;\n  }\n  constructor() public {\n    owner = msg.sender;\n    counter = 1;\n\n    evaluators[0] = msg.sender;\n    validEvaluators[msg.sender] = true;\n  }\n\n  function stopContract() public isOwner stopInEmergency returns ( bool){\n    stopped = true;\n    emit LogStoppedChanged(stopped);\n    return stopped;\n  }\n\n  function startContract() public isOwner onlyInEmergency returns ( bool){\n    stopped = false;\n    emit LogStoppedChanged(stopped);\n    return stopped;\n  }\n\n  function addNewEvaluator(address payable _evaluator) public isOwner returns ( bool){\n    require(!validEvaluators[_evaluator]);\n    evaluators[counter] = _evaluator;\n    counter += 1;\n    validEvaluators[_evaluator] = true;\n    emit LogEvaluatorAdded(_evaluator);\n    return true;\n  }\n\n  // function removeEvaluator(address _evaluator) public isOwner returns ( bool){\n  //   validEvaluators[_evaluator] = false;\n  //   emit LogEvaluatorRemoved(_evaluator);\n  //   return true;\n  // }\n\n  function changeAvailableEvaluator(uint lastAvailableEvaluator) internal returns ( uint){\n    availableEvaluator = lastAvailableEvaluator+1;\n    if(availableEvaluator >= counter){\n      availableEvaluator = 0;\n    }\n    emit LogAvailableEvaluatorChanged(availableEvaluator);\n    return availableEvaluator;\n  }\n\n  function fetchRecentlyAddedEvaluators() public view returns(address[5] memory) {\n    address[5] memory recentEvaluators;\n    for(uint i=0; i<5; i++){\n      if(counter -1 - i < 0){\n        recentEvaluators[i] = address(0);\n      }else{\n        recentEvaluators[i] = evaluators[counter-1-i];\n      }\n    }\n    return recentEvaluators;\n  }\n}\n",
  "sourcePath": "/home/eshghi/haniye/blockchain-projects/p2p-insurance/contracts/Admin.sol",
  "compiler": {
    "name": "solc",
    "version": "0.6.1+commit.e6f7d5a4.Emscripten.clang"
  },
  "schemaVersion": "3.3.2",
  "updatedAt": "2020-11-27T18:35:21.483Z",
  "networkType": "ethereum",
  "devdoc": {
    "methods": {}
  },
  "userdoc": {
    "methods": {}
  }
}