{
  "contractName": "P2pInsurance",
  "abi": [
    {
      "inputs": [],
      "stateMutability": "nonpayable",
      "type": "constructor"
    },
    {
      "anonymous": false,
      "inputs": [
        {
          "indexed": false,
          "internalType": "uint256",
          "name": "evaluator",
          "type": "uint256"
        }
      ],
      "name": "LogAvailableEvaluatorChanged",
      "type": "event"
    },
    {
      "anonymous": false,
      "inputs": [
        {
          "indexed": true,
          "internalType": "address",
          "name": "evaluator",
          "type": "address"
        }
      ],
      "name": "LogEvaluatorAdded",
      "type": "event"
    },
    {
      "anonymous": false,
      "inputs": [
        {
          "indexed": true,
          "internalType": "address",
          "name": "evaluator",
          "type": "address"
        }
      ],
      "name": "LogEvaluatorRemoved",
      "type": "event"
    },
    {
      "anonymous": false,
      "inputs": [
        {
          "indexed": true,
          "internalType": "uint256",
          "name": "insuranceId",
          "type": "uint256"
        }
      ],
      "name": "LogInsuranceAcceptedByInvestor",
      "type": "event"
    },
    {
      "anonymous": false,
      "inputs": [
        {
          "indexed": true,
          "internalType": "uint256",
          "name": "insuranceId",
          "type": "uint256"
        },
        {
          "indexed": false,
          "internalType": "uint256",
          "name": "startTime",
          "type": "uint256"
        },
        {
          "indexed": false,
          "internalType": "uint256",
          "name": "endTime",
          "type": "uint256"
        },
        {
          "indexed": false,
          "internalType": "uint256",
          "name": "now",
          "type": "uint256"
        }
      ],
      "name": "LogInsuranceFinished",
      "type": "event"
    },
    {
      "anonymous": false,
      "inputs": [
        {
          "indexed": true,
          "internalType": "address",
          "name": "client",
          "type": "address"
        },
        {
          "indexed": true,
          "internalType": "uint256",
          "name": "insuranceId",
          "type": "uint256"
        },
        {
          "indexed": true,
          "internalType": "uint256",
          "name": "duration",
          "type": "uint256"
        }
      ],
      "name": "LogNewRequest",
      "type": "event"
    },
    {
      "anonymous": false,
      "inputs": [
        {
          "indexed": true,
          "internalType": "uint256",
          "name": "insuranceId",
          "type": "uint256"
        },
        {
          "indexed": true,
          "internalType": "address",
          "name": "evaluator",
          "type": "address"
        }
      ],
      "name": "LogSetEvaluator",
      "type": "event"
    },
    {
      "anonymous": false,
      "inputs": [
        {
          "indexed": true,
          "internalType": "bool",
          "name": "stopped",
          "type": "bool"
        }
      ],
      "name": "LogStoppedChanged",
      "type": "event"
    },
    {
      "anonymous": false,
      "inputs": [
        {
          "indexed": true,
          "internalType": "address",
          "name": "accountAddress",
          "type": "address"
        }
      ],
      "name": "LogUserEnrolled",
      "type": "event"
    },
    {
      "anonymous": false,
      "inputs": [
        {
          "indexed": true,
          "internalType": "address",
          "name": "accountAddress",
          "type": "address"
        },
        {
          "indexed": true,
          "internalType": "uint256",
          "name": "withdrawAmount",
          "type": "uint256"
        },
        {
          "indexed": true,
          "internalType": "uint256",
          "name": "newBalance",
          "type": "uint256"
        }
      ],
      "name": "LogWithdrawal",
      "type": "event"
    },
    {
      "inputs": [
        {
          "internalType": "address payable",
          "name": "_evaluator",
          "type": "address"
        }
      ],
      "name": "addNewEvaluator",
      "outputs": [
        {
          "internalType": "bool",
          "name": "",
          "type": "bool"
        }
      ],
      "stateMutability": "nonpayable",
      "type": "function"
    },
    {
      "inputs": [],
      "name": "counter",
      "outputs": [
        {
          "internalType": "uint256",
          "name": "",
          "type": "uint256"
        }
      ],
      "stateMutability": "view",
      "type": "function",
      "constant": true
    },
    {
      "inputs": [],
      "name": "fetchRecentlyAddedEvaluators",
      "outputs": [
        {
          "internalType": "address[5]",
          "name": "",
          "type": "address[5]"
        }
      ],
      "stateMutability": "view",
      "type": "function",
      "constant": true
    },
    {
      "inputs": [],
      "name": "insuranceCount",
      "outputs": [
        {
          "internalType": "uint256",
          "name": "",
          "type": "uint256"
        }
      ],
      "stateMutability": "view",
      "type": "function",
      "constant": true
    },
    {
      "inputs": [],
      "name": "startContract",
      "outputs": [
        {
          "internalType": "bool",
          "name": "",
          "type": "bool"
        }
      ],
      "stateMutability": "nonpayable",
      "type": "function"
    },
    {
      "inputs": [],
      "name": "stopContract",
      "outputs": [
        {
          "internalType": "bool",
          "name": "",
          "type": "bool"
        }
      ],
      "stateMutability": "nonpayable",
      "type": "function"
    },
    {
      "inputs": [],
      "name": "stopped",
      "outputs": [
        {
          "internalType": "bool",
          "name": "",
          "type": "bool"
        }
      ],
      "stateMutability": "view",
      "type": "function",
      "constant": true
    },
    {
      "inputs": [],
      "name": "usersCount",
      "outputs": [
        {
          "internalType": "uint256",
          "name": "",
          "type": "uint256"
        }
      ],
      "stateMutability": "view",
      "type": "function",
      "constant": true
    },
    {
      "inputs": [
        {
          "internalType": "uint256",
          "name": "_duration",
          "type": "uint256"
        },
        {
          "internalType": "uint256",
          "name": "_clientPay",
          "type": "uint256"
        }
      ],
      "name": "addNewRequest",
      "outputs": [
        {
          "internalType": "uint256",
          "name": "",
          "type": "uint256"
        }
      ],
      "stateMutability": "payable",
      "type": "function",
      "payable": true
    },
    {
      "inputs": [
        {
          "internalType": "uint256",
          "name": "_id",
          "type": "uint256"
        }
      ],
      "name": "acceptARequestByInvestor",
      "outputs": [
        {
          "internalType": "bool",
          "name": "",
          "type": "bool"
        }
      ],
      "stateMutability": "payable",
      "type": "function",
      "payable": true
    },
    {
      "inputs": [
        {
          "internalType": "uint256",
          "name": "withdrawAmount",
          "type": "uint256"
        }
      ],
      "name": "withdraw",
      "outputs": [
        {
          "internalType": "uint256",
          "name": "",
          "type": "uint256"
        }
      ],
      "stateMutability": "nonpayable",
      "type": "function"
    },
    {
      "inputs": [],
      "name": "withdraw",
      "outputs": [
        {
          "internalType": "uint256",
          "name": "",
          "type": "uint256"
        }
      ],
      "stateMutability": "nonpayable",
      "type": "function"
    },
    {
      "inputs": [
        {
          "internalType": "uint256",
          "name": "insuranceId",
          "type": "uint256"
        }
      ],
      "name": "requestEvaluator",
      "outputs": [
        {
          "internalType": "bool",
          "name": "",
          "type": "bool"
        }
      ],
      "stateMutability": "nonpayable",
      "type": "function"
    },
    {
      "inputs": [
        {
          "internalType": "uint256",
          "name": "insuranceId",
          "type": "uint256"
        }
      ],
      "name": "refundToClient",
      "outputs": [
        {
          "internalType": "bool",
          "name": "",
          "type": "bool"
        }
      ],
      "stateMutability": "nonpayable",
      "type": "function"
    },
    {
      "inputs": [
        {
          "internalType": "uint256",
          "name": "insuranceId",
          "type": "uint256"
        }
      ],
      "name": "refundToInvestor",
      "outputs": [
        {
          "internalType": "bool",
          "name": "",
          "type": "bool"
        }
      ],
      "stateMutability": "nonpayable",
      "type": "function"
    },
    {
      "inputs": [
        {
          "internalType": "uint256",
          "name": "insuranceId",
          "type": "uint256"
        }
      ],
      "name": "checkIfIsExpired",
      "outputs": [
        {
          "internalType": "bool",
          "name": "",
          "type": "bool"
        }
      ],
      "stateMutability": "nonpayable",
      "type": "function"
    },
    {
      "inputs": [
        {
          "internalType": "address",
          "name": "_user",
          "type": "address"
        }
      ],
      "name": "fetchUser",
      "outputs": [
        {
          "internalType": "uint256",
          "name": "id",
          "type": "uint256"
        },
        {
          "internalType": "address",
          "name": "user",
          "type": "address"
        },
        {
          "internalType": "uint256",
          "name": "usableBalance",
          "type": "uint256"
        },
        {
          "internalType": "uint256",
          "name": "lockedBalance",
          "type": "uint256"
        },
        {
          "internalType": "uint256",
          "name": "investsCount",
          "type": "uint256"
        },
        {
          "internalType": "uint256",
          "name": "insuranceId",
          "type": "uint256"
        }
      ],
      "stateMutability": "view",
      "type": "function",
      "constant": true
    },
    {
      "inputs": [
        {
          "internalType": "uint256",
          "name": "_id",
          "type": "uint256"
        }
      ],
      "name": "fetchInsurance",
      "outputs": [
        {
          "internalType": "uint256",
          "name": "id",
          "type": "uint256"
        },
        {
          "internalType": "address",
          "name": "investor",
          "type": "address"
        },
        {
          "internalType": "address",
          "name": "client",
          "type": "address"
        },
        {
          "internalType": "uint256",
          "name": "duration",
          "type": "uint256"
        },
        {
          "internalType": "uint256",
          "name": "startTime",
          "type": "uint256"
        },
        {
          "internalType": "uint256",
          "name": "expireTime",
          "type": "uint256"
        },
        {
          "internalType": "uint256",
          "name": "status",
          "type": "uint256"
        },
        {
          "internalType": "uint256",
          "name": "investorPay",
          "type": "uint256"
        },
        {
          "internalType": "uint256",
          "name": "clientPay",
          "type": "uint256"
        },
        {
          "internalType": "address",
          "name": "evaluator",
          "type": "address"
        },
        {
          "internalType": "uint256",
          "name": "evaluatorStatus",
          "type": "uint256"
        }
      ],
      "stateMutability": "view",
      "type": "function",
      "constant": true
    },
    {
      "inputs": [],
      "name": "fetchInvestsIdOfUser",
      "outputs": [
        {
          "internalType": "uint256[]",
          "name": "",
          "type": "uint256[]"
        }
      ],
      "stateMutability": "view",
      "type": "function",
      "constant": true
    },
    {
      "inputs": [],
      "name": "fetchInsurancesIdOfUser",
      "outputs": [
        {
          "internalType": "uint256[]",
          "name": "",
          "type": "uint256[]"
        }
      ],
      "stateMutability": "view",
      "type": "function",
      "constant": true
    }
  ],
  "bytecode": "0x60806040526000600460006101000a81548160ff02191690831515021790555034801561002b57600080fd5b50336000806101000a81548173ffffffffffffffffffffffffffffffffffffffff021916908373ffffffffffffffffffffffffffffffffffffffff1602179055506001600381905550336002600080815260200190815260200160002060006101000a81548173ffffffffffffffffffffffffffffffffffffffff021916908373ffffffffffffffffffffffffffffffffffffffff16021790555060018060003373ffffffffffffffffffffffffffffffffffffffff1673ffffffffffffffffffffffffffffffffffffffff16815260200190815260200160002060006101000a81548160ff0219169083151502179055506000600b819055506000600c81905550612e1b8061013c6000396000f3fe60806040526004361061011f5760003560e01c80635fb02f4d116100a0578063be6f0ea211610064578063be6f0ea2146105d0578063c44f3f6814610684578063cc471827146106ca578063e7cebea914610736578063f2db3b6f1461079f5761011f565b80635fb02f4d1461040357806361bc221a1461043257806362f1dc711461045d5780636ba13a821461057657806375f12b21146105a15761011f565b80632e979905116100e75780632e979905146102b45780633ccfd60b146103075780634d6df8da14610332578063521a6e941461038557806352a7220c146103b05761011f565b806312253a6c146101245780631dc15a831461015357806324513266146101a6578063297f9b1f146101f95780632e1a7d4d14610265575b600080fd5b34801561013057600080fd5b506101396107eb565b604051808215151515815260200191505060405180910390f35b34801561015f57600080fd5b5061018c6004803603602081101561017657600080fd5b81019080803590602001909291905050506108ce565b604051808215151515815260200191505060405180910390f35b3480156101b257600080fd5b506101df600480360360208110156101c957600080fd5b8101908080359060200190929190505050610b68565b604051808215151515815260200191505060405180910390f35b34801561020557600080fd5b5061020e610d49565b6040518080602001828103825283818151815260200191508051906020019060200280838360005b83811015610251578082015181840152602081019050610236565b505050509050019250505060405180910390f35b34801561027157600080fd5b5061029e6004803603602081101561028857600080fd5b8101908080359060200190929190505050610dde565b6040518082815260200191505060405180910390f35b3480156102c057600080fd5b506102ed600480360360208110156102d757600080fd5b8101908080359060200190929190505050610efd565b604051808215151515815260200191505060405180910390f35b34801561031357600080fd5b5061031c61116a565b6040518082815260200191505060405180910390f35b34801561033e57600080fd5b5061036b6004803603602081101561035557600080fd5b810190808035906020019092919050505061128c565b604051808215151515815260200191505060405180910390f35b34801561039157600080fd5b5061039a611561565b6040518082815260200191505060405180910390f35b3480156103bc57600080fd5b506103c5611567565b6040518082600560200280838360005b838110156103f05780820151818401526020810190506103d5565b5050505090500191505060405180910390f35b34801561040f57600080fd5b50610418611674565b604051808215151515815260200191505060405180910390f35b34801561043e57600080fd5b50610447611756565b6040518082815260200191505060405180910390f35b34801561046957600080fd5b506104966004803603602081101561048057600080fd5b810190808035906020019092919050505061175c565b604051808c81526020018b73ffffffffffffffffffffffffffffffffffffffff1673ffffffffffffffffffffffffffffffffffffffff1681526020018a73ffffffffffffffffffffffffffffffffffffffff1673ffffffffffffffffffffffffffffffffffffffff1681526020018981526020018881526020018781526020018681526020018581526020018481526020018373ffffffffffffffffffffffffffffffffffffffff1673ffffffffffffffffffffffffffffffffffffffff1681526020018281526020019b50505050505050505050505060405180910390f35b34801561058257600080fd5b5061058b611940565b6040518082815260200191505060405180910390f35b3480156105ad57600080fd5b506105b6611946565b604051808215151515815260200191505060405180910390f35b3480156105dc57600080fd5b5061061f600480360360208110156105f357600080fd5b81019080803573ffffffffffffffffffffffffffffffffffffffff169060200190929190505050611959565b604051808781526020018673ffffffffffffffffffffffffffffffffffffffff1673ffffffffffffffffffffffffffffffffffffffff168152602001858152602001848152602001838152602001828152602001965050505050505060405180910390f35b6106b06004803603602081101561069a57600080fd5b8101908080359060200190929190505050611b3b565b604051808215151515815260200191505060405180910390f35b3480156106d657600080fd5b506106df6120d1565b6040518080602001828103825283818151815260200191508051906020019060200280838360005b83811015610722578082015181840152602081019050610707565b505050509050019250505060405180910390f35b34801561074257600080fd5b506107856004803603602081101561075957600080fd5b81019080803573ffffffffffffffffffffffffffffffffffffffff169060200190929190505050612166565b604051808215151515815260200191505060405180910390f35b6107d5600480360360408110156107b557600080fd5b810190808035906020019092919080359060200190929190505050612320565b6040518082815260200191505060405180910390f35b60008060009054906101000a900473ffffffffffffffffffffffffffffffffffffffff1673ffffffffffffffffffffffffffffffffffffffff163373ffffffffffffffffffffffffffffffffffffffff161461084657600080fd5b600460009054906101000a900460ff161561086057600080fd5b6001600460006101000a81548160ff021916908315150217905550600460009054906101000a900460ff1615157ffb0dcbdf8561fb4eedad00908914583b7985b9e7df1d0234f4d43f9cc94fb9ab60405160405180910390a2600460009054906101000a900460ff16905090565b6000600460009054906101000a900460ff16156108ea57600080fd5b6006600083815260200190815260200160002060020160009054906101000a900473ffffffffffffffffffffffffffffffffffffffff168073ffffffffffffffffffffffffffffffffffffffff163373ffffffffffffffffffffffffffffffffffffffff161461095957600080fd5b826000600281111561096757fe5b6006600083815260200190815260200160002060090160149054906101000a900460ff16600281111561099657fe5b146109a057600080fd5b600073ffffffffffffffffffffffffffffffffffffffff166006600086815260200190815260200160002060090160009054906101000a900473ffffffffffffffffffffffffffffffffffffffff1673ffffffffffffffffffffffffffffffffffffffff1614610a0f57600080fd5b4260066000868152602001908152602001600020600501541015610a4057610a3684610b68565b5060009250610b61565b60006006600086815260200190815260200160002090506002600080815260200190815260200160002060009054906101000a900473ffffffffffffffffffffffffffffffffffffffff168160090160006101000a81548173ffffffffffffffffffffffffffffffffffffffff021916908373ffffffffffffffffffffffffffffffffffffffff16021790555060028160060160006101000a81548160ff02191690836003811115610aee57fe5b02179055508060090160009054906101000a900473ffffffffffffffffffffffffffffffffffffffff1673ffffffffffffffffffffffffffffffffffffffff16857f12c5262c6c8014f330515876867fdf071e7ba74c9f366bcd29b3d10794f3775c60405160405180910390a360019350505b5050919050565b60008160006002811115610b7857fe5b6006600083815260200190815260200160002060090160149054906101000a900460ff166002811115610ba757fe5b14610bb157600080fd5b8260016003811115610bbf57fe5b6006600083815260200190815260200160002060060160009054906101000a900460ff166003811115610bee57fe5b14610bf857600080fd5b8342600660008381526020019081526020016000206005015410610c1b57600080fd5b600060066000878152602001908152602001600020905060038160060160006101000a81548160ff02191690836003811115610c5357fe5b02179055506000600760008360010160009054906101000a900473ffffffffffffffffffffffffffffffffffffffff1673ffffffffffffffffffffffffffffffffffffffff1673ffffffffffffffffffffffffffffffffffffffff16815260200190815260200160002090508160070154816003016000828254039250508190555081600701548160020160008282540192505081905550867f77f3fecdea2e9c86594362bdd7c76306a4dcefe46136a2f6b81fd2357a76c415836004015484600501544260405180848152602001838152602001828152602001935050505060405180910390a2600195505050505050919050565b6060600a60003373ffffffffffffffffffffffffffffffffffffffff1673ffffffffffffffffffffffffffffffffffffffff168152602001908152602001600020805480602002602001604051908101604052809291908181526020018280548015610dd457602002820191906000526020600020905b815481526020019060010190808311610dc0575b5050505050905090565b6000600460009054906101000a900460ff1615610dfa57600080fd5b6000600760003373ffffffffffffffffffffffffffffffffffffffff1673ffffffffffffffffffffffffffffffffffffffff16815260200190815260200160002090508060020154831115610e4e57600080fd5b8281600201600082825403925050819055503373ffffffffffffffffffffffffffffffffffffffff166108fc849081150290604051600060405180830381858888f19350505050158015610ea6573d6000803e3d6000fd5b508060020154833373ffffffffffffffffffffffffffffffffffffffff167ff9226daf630542048a23086c6af599511aac100ec8f532793cc9697d061bed7e60405160405180910390a48060020154915050919050565b6000600460009054906101000a900460ff1615610f1957600080fd5b6006600083815260200190815260200160002060090160009054906101000a900473ffffffffffffffffffffffffffffffffffffffff168073ffffffffffffffffffffffffffffffffffffffff163373ffffffffffffffffffffffffffffffffffffffff1614610f8857600080fd5b8260006002811115610f9657fe5b6006600083815260200190815260200160002060090160149054906101000a900460ff166002811115610fc557fe5b14610fcf57600080fd5b8360026003811115610fdd57fe5b6006600083815260200190815260200160002060060160009054906101000a900460ff16600381111561100c57fe5b1461101657600080fd5b600060066000878152602001908152602001600020905060028160090160146101000a81548160ff0219169083600281111561104e57fe5b021790555060038160060160006101000a81548160ff0219169083600381111561107457fe5b02179055506000600760008360010160009054906101000a900473ffffffffffffffffffffffffffffffffffffffff1673ffffffffffffffffffffffffffffffffffffffff1673ffffffffffffffffffffffffffffffffffffffff16815260200190815260200160002090508160070154816003016000828254039250508190555081600701548160020160008282540192505081905550867f77f3fecdea2e9c86594362bdd7c76306a4dcefe46136a2f6b81fd2357a76c415836004015484600501544260405180848152602001838152602001828152602001935050505060405180910390a2600195505050505050919050565b6000600460009054906101000a900460ff1661118557600080fd5b6000600760003373ffffffffffffffffffffffffffffffffffffffff1673ffffffffffffffffffffffffffffffffffffffff168152602001908152602001600020905060008160020154116111d957600080fd5b600081600201549050600082600201819055503373ffffffffffffffffffffffffffffffffffffffff166108fc83600201549081150290604051600060405180830381858888f19350505050158015611236573d6000803e3d6000fd5b508160020154813373ffffffffffffffffffffffffffffffffffffffff167ff9226daf630542048a23086c6af599511aac100ec8f532793cc9697d061bed7e60405160405180910390a481600201549250505090565b6000600460009054906101000a900460ff16156112a857600080fd5b6006600083815260200190815260200160002060090160009054906101000a900473ffffffffffffffffffffffffffffffffffffffff168073ffffffffffffffffffffffffffffffffffffffff163373ffffffffffffffffffffffffffffffffffffffff161461131757600080fd5b826000600281111561132557fe5b6006600083815260200190815260200160002060090160149054906101000a900460ff16600281111561135457fe5b1461135e57600080fd5b836002600381111561136c57fe5b6006600083815260200190815260200160002060060160009054906101000a900460ff16600381111561139b57fe5b146113a557600080fd5b600060066000878152602001908152602001600020905060018160090160146101000a81548160ff021916908360028111156113dd57fe5b021790555060038160060160006101000a81548160ff0219169083600381111561140357fe5b02179055506000600760008360020160009054906101000a900473ffffffffffffffffffffffffffffffffffffffff1673ffffffffffffffffffffffffffffffffffffffff1673ffffffffffffffffffffffffffffffffffffffff16815260200190815260200160002090506000600760008460010160009054906101000a900473ffffffffffffffffffffffffffffffffffffffff1673ffffffffffffffffffffffffffffffffffffffff1673ffffffffffffffffffffffffffffffffffffffff16815260200190815260200160002090508260070154816003016000828254039250508190555082600701548260020160008282540192505081905550877f77f3fecdea2e9c86594362bdd7c76306a4dcefe46136a2f6b81fd2357a76c415846004015485600501544260405180848152602001838152602001828152602001935050505060405180910390a260019650505050505050919050565b600b5481565b61156f612da2565b611577612da2565b60008090505b600581101561166c576000816001600354030310156115e05760008282600581106115a457fe5b602002019073ffffffffffffffffffffffffffffffffffffffff16908173ffffffffffffffffffffffffffffffffffffffff168152505061165f565b600260008260016003540303815260200190815260200160002060009054906101000a900473ffffffffffffffffffffffffffffffffffffffff1682826005811061162757fe5b602002019073ffffffffffffffffffffffffffffffffffffffff16908173ffffffffffffffffffffffffffffffffffffffff16815250505b808060010191505061157d565b508091505090565b60008060009054906101000a900473ffffffffffffffffffffffffffffffffffffffff1673ffffffffffffffffffffffffffffffffffffffff163373ffffffffffffffffffffffffffffffffffffffff16146116cf57600080fd5b600460009054906101000a900460ff166116e857600080fd5b6000600460006101000a81548160ff021916908315150217905550600460009054906101000a900460ff1615157ffb0dcbdf8561fb4eedad00908914583b7985b9e7df1d0234f4d43f9cc94fb9ab60405160405180910390a2600460009054906101000a900460ff16905090565b60035481565b6000806000806000806000806000806000600660008d8152602001908152602001600020600001549a50600660008d815260200190815260200160002060010160009054906101000a900473ffffffffffffffffffffffffffffffffffffffff169950600660008d815260200190815260200160002060020160009054906101000a900473ffffffffffffffffffffffffffffffffffffffff169850600660008d8152602001908152602001600020600301549750600660008d8152602001908152602001600020600401549650600660008d8152602001908152602001600020600501549550600660008d815260200190815260200160002060060160009054906101000a900460ff16600381111561187257fe5b9450600660008d8152602001908152602001600020600701549350600660008d8152602001908152602001600020600801549250600660008d815260200190815260200160002060090160009054906101000a900473ffffffffffffffffffffffffffffffffffffffff169150600660008d815260200190815260200160002060090160149054906101000a900460ff16600281111561190e57fe5b90508a8a8a8a8a8a8a8a8a8a8a9a509a509a509a509a509a509a509a509a509a509a5091939597999b90929496989a50565b600c5481565b600460009054906101000a900460ff1681565b600080600080600080600760008873ffffffffffffffffffffffffffffffffffffffff1673ffffffffffffffffffffffffffffffffffffffff168152602001908152602001600020600001549550600760008873ffffffffffffffffffffffffffffffffffffffff1673ffffffffffffffffffffffffffffffffffffffff16815260200190815260200160002060010160009054906101000a900473ffffffffffffffffffffffffffffffffffffffff169450600760008873ffffffffffffffffffffffffffffffffffffffff1673ffffffffffffffffffffffffffffffffffffffff168152602001908152602001600020600201549350600760008873ffffffffffffffffffffffffffffffffffffffff1673ffffffffffffffffffffffffffffffffffffffff168152602001908152602001600020600301549250600760008873ffffffffffffffffffffffffffffffffffffffff1673ffffffffffffffffffffffffffffffffffffffff168152602001908152602001600020600401549150600760008873ffffffffffffffffffffffffffffffffffffffff1673ffffffffffffffffffffffffffffffffffffffff16815260200190815260200160002060060154905085858585858595509550955095509550955091939550919395565b6000600460009054906101000a900460ff1615611b5757600080fd5b6000809054906101000a900473ffffffffffffffffffffffffffffffffffffffff1673ffffffffffffffffffffffffffffffffffffffff163373ffffffffffffffffffffffffffffffffffffffff161415611bb157600080fd5b8160006003811115611bbf57fe5b6006600083815260200190815260200160002060060160009054906101000a900460ff166003811115611bee57fe5b148015611c1257506000600660008381526020019081526020016000206003015414155b611c1b57600080fd5b823373ffffffffffffffffffffffffffffffffffffffff166006600083815260200190815260200160002060020160009054906101000a900473ffffffffffffffffffffffffffffffffffffffff1673ffffffffffffffffffffffffffffffffffffffff161415611c8b57600080fd5b600660008581526020019081526020016000206007015480611cef600760003373ffffffffffffffffffffffffffffffffffffffff1673ffffffffffffffffffffffffffffffffffffffff16815260200190815260200160002060020154346128f5565b1015611cfa57600080fd5b600073ffffffffffffffffffffffffffffffffffffffff16600760003373ffffffffffffffffffffffffffffffffffffffff1673ffffffffffffffffffffffffffffffffffffffff16815260200190815260200160002060010160009054906101000a900473ffffffffffffffffffffffffffffffffffffffff1673ffffffffffffffffffffffffffffffffffffffff161415611d9a57611d9961297d565b5b6000600660008781526020019081526020016000209050338160010160006101000a81548173ffffffffffffffffffffffffffffffffffffffff021916908373ffffffffffffffffffffffffffffffffffffffff16021790555060018160060160006101000a81548160ff02191690836003811115611e1557fe5b02179055504281600401819055506201518081600301540281600401540181600501819055506000600760003373ffffffffffffffffffffffffffffffffffffffff1673ffffffffffffffffffffffffffffffffffffffff1681526020019081526020016000209050611ea6611e9c611e923485600801546128f5565b83600201546128f5565b8360070154612b02565b8160020181905550611ec0826007015482600301546128f5565b8160030181905550611f3c600760008460020160009054906101000a900473ffffffffffffffffffffffffffffffffffffffff1673ffffffffffffffffffffffffffffffffffffffff1673ffffffffffffffffffffffffffffffffffffffff168152602001908152602001600020600301548360080154612b02565b600760008460020160009054906101000a900473ffffffffffffffffffffffffffffffffffffffff1673ffffffffffffffffffffffffffffffffffffffff1673ffffffffffffffffffffffffffffffffffffffff168152602001908152602001600020600301819055508160000154600a60003373ffffffffffffffffffffffffffffffffffffffff1673ffffffffffffffffffffffffffffffffffffffff168152602001908152602001600020826004015481548110611ff957fe5b9060005260206000200181905550600181600401600082825401925050819055506001600860008460020160009054906101000a900473ffffffffffffffffffffffffffffffffffffffff1673ffffffffffffffffffffffffffffffffffffffff1673ffffffffffffffffffffffffffffffffffffffff16815260200190815260200160002060006101000a81548160ff021916908315150217905550867ff3d319027ffc1483fb92765fcae7cd84d9ba32891dbc11facf50efda5aea6ff160405160405180910390a2600195505050505050919050565b6060600960003373ffffffffffffffffffffffffffffffffffffffff1673ffffffffffffffffffffffffffffffffffffffff16815260200190815260200160002080548060200260200160405190810160405280929190818152602001828054801561215c57602002820191906000526020600020905b815481526020019060010190808311612148575b5050505050905090565b60008060009054906101000a900473ffffffffffffffffffffffffffffffffffffffff1673ffffffffffffffffffffffffffffffffffffffff163373ffffffffffffffffffffffffffffffffffffffff16146121c157600080fd5b600160008373ffffffffffffffffffffffffffffffffffffffff1673ffffffffffffffffffffffffffffffffffffffff16815260200190815260200160002060009054906101000a900460ff161561221857600080fd5b8160026000600354815260200190815260200160002060006101000a81548173ffffffffffffffffffffffffffffffffffffffff021916908373ffffffffffffffffffffffffffffffffffffffff160217905550600160036000828254019250508190555060018060008473ffffffffffffffffffffffffffffffffffffffff1673ffffffffffffffffffffffffffffffffffffffff16815260200190815260200160002060006101000a81548160ff0219169083151502179055508173ffffffffffffffffffffffffffffffffffffffff167f40ce51e165ca122b79b4e5ba4348d1a49270fc4949ee3b9bed282864ba428aa160405160405180910390a260019050919050565b6000600460009054906101000a900460ff161561233c57600080fd5b6000809054906101000a900473ffffffffffffffffffffffffffffffffffffffff1673ffffffffffffffffffffffffffffffffffffffff163373ffffffffffffffffffffffffffffffffffffffff16141561239657600080fd5b81806123e4600760003373ffffffffffffffffffffffffffffffffffffffff1673ffffffffffffffffffffffffffffffffffffffff16815260200190815260200160002060020154346128f5565b10156123ef57600080fd5b600073ffffffffffffffffffffffffffffffffffffffff16600760003373ffffffffffffffffffffffffffffffffffffffff1673ffffffffffffffffffffffffffffffffffffffff16815260200190815260200160002060010160009054906101000a900473ffffffffffffffffffffffffffffffffffffffff1673ffffffffffffffffffffffffffffffffffffffff16141561248f5761248e61297d565b5b6000600760003373ffffffffffffffffffffffffffffffffffffffff1673ffffffffffffffffffffffffffffffffffffffff16815260200190815260200160002060060154148061255a57506003808111156124e757fe5b60066000600760003373ffffffffffffffffffffffffffffffffffffffff1673ffffffffffffffffffffffffffffffffffffffff16815260200190815260200160002060060154815260200190815260200160002060060160009054906101000a900460ff16600381111561255857fe5b145b61256357600080fd5b6001600b60008282540192505081905550604051806101600160405280600b548152602001600073ffffffffffffffffffffffffffffffffffffffff1681526020013373ffffffffffffffffffffffffffffffffffffffff1681526020018581526020016000815260200160008152602001600060038111156125e257fe5b8152602001612605856126006125f989600c612b4c565b6003612bd2565b612b4c565b8152602001848152602001600073ffffffffffffffffffffffffffffffffffffffff1681526020016000600281111561263a57fe5b81525060066000600b5481526020019081526020016000206000820151816000015560208201518160010160006101000a81548173ffffffffffffffffffffffffffffffffffffffff021916908373ffffffffffffffffffffffffffffffffffffffff16021790555060408201518160020160006101000a81548173ffffffffffffffffffffffffffffffffffffffff021916908373ffffffffffffffffffffffffffffffffffffffff160217905550606082015181600301556080820151816004015560a0820151816005015560c08201518160060160006101000a81548160ff0219169083600381111561272c57fe5b021790555060e0820151816007015561010082015181600801556101208201518160090160006101000a81548173ffffffffffffffffffffffffffffffffffffffff021916908373ffffffffffffffffffffffffffffffffffffffff1602179055506101408201518160090160146101000a81548160ff021916908360028111156127b357fe5b02179055509050506000600760003373ffffffffffffffffffffffffffffffffffffffff1673ffffffffffffffffffffffffffffffffffffffff16815260200190815260200160002090508334038160020160008282540192505081905550838160030160008282540192505081905550600b548160060181905550600b54600960003373ffffffffffffffffffffffffffffffffffffffff1673ffffffffffffffffffffffffffffffffffffffff16815260200190815260200160002082600501548154811061288057fe5b90600052602060002001819055506001816005016000828254019250508190555084600b543373ffffffffffffffffffffffffffffffffffffffff167f725329d2e7e32db4f9aa8fb7442ebaded93905569e3ec599a16a90dbcc7db84860405160405180910390a4600b549250505092915050565b600080828401905083811015612973576040517f08c379a000000000000000000000000000000000000000000000000000000000815260040180806020018281038252601b8152602001807f536166654d6174683a206164646974696f6e206f766572666c6f77000000000081525060200191505060405180910390fd5b8091505092915050565b600460009054906101000a900460ff161561299757600080fd5b6040518060e00160405280600c5481526020013373ffffffffffffffffffffffffffffffffffffffff168152602001600081526020016000815260200160008152602001600081526020016000815250600760003373ffffffffffffffffffffffffffffffffffffffff1673ffffffffffffffffffffffffffffffffffffffff1681526020019081526020016000206000820151816000015560208201518160010160006101000a81548173ffffffffffffffffffffffffffffffffffffffff021916908373ffffffffffffffffffffffffffffffffffffffff16021790555060408201518160020155606082015181600301556080820151816004015560a0820151816005015560c082015181600601559050506001600c600082825401925050819055503373ffffffffffffffffffffffffffffffffffffffff167f33565c4c79534bf45bf4e563ac54d1ae43178670871a0e197373ce367e67c84b60405160405180910390a2565b6000612b4483836040518060400160405280601e81526020017f536166654d6174683a207375627472616374696f6e206f766572666c6f770000815250612c1c565b905092915050565b600080831415612b5f5760009050612bcc565b6000828402905082848281612b7057fe5b0414612bc7576040517f08c379a0000000000000000000000000000000000000000000000000000000008152600401808060200182810382526021815260200180612dc56021913960400191505060405180910390fd5b809150505b92915050565b6000612c1483836040518060400160405280601a81526020017f536166654d6174683a206469766973696f6e206279207a65726f000000000000815250612cdc565b905092915050565b6000838311158290612cc9576040517f08c379a00000000000000000000000000000000000000000000000000000000081526004018080602001828103825283818151815260200191508051906020019080838360005b83811015612c8e578082015181840152602081019050612c73565b50505050905090810190601f168015612cbb5780820380516001836020036101000a031916815260200191505b509250505060405180910390fd5b5060008385039050809150509392505050565b60008083118290612d88576040517f08c379a00000000000000000000000000000000000000000000000000000000081526004018080602001828103825283818151815260200191508051906020019080838360005b83811015612d4d578082015181840152602081019050612d32565b50505050905090810190601f168015612d7a5780820380516001836020036101000a031916815260200191505b509250505060405180910390fd5b506000838581612d9457fe5b049050809150509392505050565b6040518060a0016040528060059060208202803883398082019150509050509056fe536166654d6174683a206d756c7469706c69636174696f6e206f766572666c6f77a2646970667358221220d5b096242c455a5472d4268b628c382d921c70738ced4f4c13dc2e84a076da6964736f6c63430006010033",
  "source": "// SPDX-License-Identifier: MIT\npragma solidity >=0.4.22 <0.8.0;\n\nimport \"@openzeppelin/contracts/math/SafeMath.sol\";\nimport './Admin.sol';\n\ncontract P2pInsurance is Admin{\n  mapping( uint => Insurance) private insurances;\n  mapping(address => User) private users;\n  mapping (address => bool) private insuredUsers;\n  mapping (address => uint[]) private userInsurancesAsClient;\n  mapping (address => uint[]) private userInsurancesAsInvestor;\n  // mapping (address => bool) public enrolled;\n  uint public insuranceCount;\n  uint public usersCount;\n  // uint public feeAmount;\n\n\n  struct User {\n    uint id;\n    address payable user;\n    uint usableBalance;\n    uint lockedBalance;\n    uint investsCount;\n    uint insuranceCount;\n    uint insuranceId;\n  }\n\n  struct Insurance {\n    uint id;\n    address investor;\n    address client;\n    uint duration;\n    uint startTime;\n    uint expireTime;\n    Status status;\n    uint investorPay;\n    uint clientPay;\n    address evaluator;\n    EvaluatorStatus evaluatorStatus;\n  }\n\n  enum Status {\n    INIT , INPROCESS, WAITINGFORAVALUATION ,FINISHED\n  }\n  enum EvaluatorStatus {\n    EMPTY ,ACCEPTED , REJECTED\n  }\n\n\n  //events\n  event LogUserEnrolled(address indexed accountAddress);\n  event LogNewRequest(address indexed client, uint indexed insuranceId, uint indexed duration);\n  event LogInsuranceAcceptedByInvestor(uint indexed insuranceId);\n  event LogInsuranceFinished(uint indexed insuranceId , uint startTime, uint endTime, uint now);\n  event LogWithdrawal(address indexed accountAddress, uint indexed withdrawAmount, uint indexed newBalance);\n    event LogSetEvaluator(uint indexed insuranceId, address indexed evaluator);\n  //\n\n\n  modifier isFinished(uint insuranceId){\n      require(insurances[insuranceId].status == Status.FINISHED);\n      _;\n  }\n\n  modifier isInProcess(uint insuranceId){\n      require(insurances[insuranceId].status == Status.INPROCESS);\n      _;\n  }\n\n  modifier isWaiting(uint insuranceId){\n    require(insurances[insuranceId].status == Status.WAITINGFORAVALUATION);\n    _;\n  }\n\n  modifier isInit(uint insuranceId){\n      require(insurances[insuranceId].status == Status.INIT && insurances[insuranceId].duration != 0);\n      _;\n  }\n\n  modifier verifyCaller (address _address) {\n      require (msg.sender == _address);\n      _;\n\n  }\n  modifier hasEnoughBalance(uint _price) {\n      require(SafeMath.add(users[msg.sender].usableBalance , msg.value) >= _price);\n      _;\n  }\n\n  modifier isNotInsured(address _address) {\n      require(!insuredUsers[_address]);\n      _;\n\n  }\n\n  modifier isNotSamePerson(uint insuranceId) {\n      require(insurances[insuranceId].client != msg.sender);\n      _;\n  }\n\n//  modifier isNotExpired(uint insuranceId) {\n//      require(insurances[insuranceId].expireTime <= now);\n//      _;\n//  }\n\n  modifier isExpired(uint insuranceId) {\n      require(insurances[insuranceId].expireTime  < now);\n      _;\n  }\n\n  modifier isEmpty(uint insuranceId) {\n      require(insurances[insuranceId].evaluatorStatus == EvaluatorStatus.EMPTY);\n      _;\n  }\n\n\n  constructor() public {\n    insuranceCount = 0;\n    usersCount = 0;\n    // feeAmount = 100;\n  }\n\n  /// @notice add new user\n  /// @dev This is internal and cannot be called from outside\n  function addUser() internal stopInEmergency{\n    users[msg.sender] = User({\n        user: msg.sender,\n        id: usersCount,\n        usableBalance: 0,\n        lockedBalance: 0,\n        investsCount: 0,\n        insuranceCount: 0,\n        insuranceId: 0\n    });\n    // enrolled[msg.sender] = true;\n    usersCount += 1;\n    emit LogUserEnrolled(msg.sender);\n  }\n\n  /// @notice Add new insurance request from client\n  /// @dev insuranceId 0 is skipped.\n  /// @dev duration is in day\n  /// @param _duration amount you want to be insured\n  /// @param _clientPay amount you want to pay\n  /// @return insuranceCount the id of the new insurance\n  function addNewRequest(uint _duration, uint _clientPay) public payable\n  stopInEmergency\n  isNotOwner\n  hasEnoughBalance(_clientPay) returns(uint)\n  {\n    if(users[msg.sender].user == address(0)){\n      addUser();\n    }\n    require(users[msg.sender].insuranceId == 0 || insurances[users[msg.sender].insuranceId].status == Status.FINISHED);\n    insuranceCount += 1;\n    insurances[insuranceCount] = Insurance({\n      id: insuranceCount,\n      investor: address(0),\n      client: msg.sender,\n      duration: _duration,\n      startTime: 0,\n      expireTime: 0,\n      status: Status.INIT,\n      investorPay: SafeMath.mul(_clientPay , SafeMath.div(SafeMath.mul(_duration, 12),3)) ,\n      clientPay: _clientPay,\n      evaluator: address(0),\n      evaluatorStatus: EvaluatorStatus.EMPTY\n    });\n    User storage user = users[msg.sender];\n    user.usableBalance += msg.value - _clientPay;\n    user.lockedBalance += _clientPay;\n    user.insuranceId = insuranceCount;\n    userInsurancesAsClient[msg.sender][user.insuranceCount] = insuranceCount;\n    user.insuranceCount += 1;\n    emit LogNewRequest(msg.sender , insuranceCount , _duration );\n    return insuranceCount;\n  }\n\n  /// @notice Accept a requested insurance by investor\n  /// @param _id of insurance\n  /// @return true\n  function acceptARequestByInvestor(uint _id) public payable\n  stopInEmergency\n  isNotOwner\n  isInit(_id)\n//  isNotInsured(insurances[_id].client)\n  isNotSamePerson(_id)\n  hasEnoughBalance(insurances[_id].investorPay) returns(bool){\n    if(users[msg.sender].user == address(0)){\n      addUser();\n    }\n      Insurance storage insurance = insurances[_id];\n      insurance.investor = msg.sender;\n      insurance.status = Status.INPROCESS;\n      insurance.startTime = now;\n      insurance.expireTime = insurance.startTime +  insurance.duration * 1 days ;\n\n      User storage user = users[msg.sender];\n      user.usableBalance = SafeMath.sub(SafeMath.add(SafeMath.add(msg.value , insurance.clientPay), user.usableBalance) , insurance.investorPay);\n      user.lockedBalance = SafeMath.add(insurance.investorPay, user.lockedBalance);\n      users[insurance.client].lockedBalance = SafeMath.sub(users[insurance.client].lockedBalance,insurance.clientPay);\n      userInsurancesAsInvestor[msg.sender][user.investsCount] = insurance.id;\n    user.investsCount += 1;\n\n      insuredUsers[insurance.client] = true;\n      emit LogInsuranceAcceptedByInvestor(_id);\n      return true;\n  }\n\n  /// @notice Withdraw custom amount\n  /// @dev This does not return any excess ether sent to it\n  /// @param withdrawAmount amount you want to withdraw\n  /// @return The balance remaining for the user\n  function withdraw(uint withdrawAmount) public stopInEmergency returns (uint) {\n    User storage user = users[msg.sender];\n    require(withdrawAmount <= user.usableBalance);\n    user.usableBalance -= withdrawAmount;\n    msg.sender.transfer(withdrawAmount);\n    emit LogWithdrawal(msg.sender, withdrawAmount, user.usableBalance);\n    return user.usableBalance;\n\n  }\n\n  /// @notice Withdraw all balance. it works only in emergency\n  /// @dev This does not return any excess ether sent to it\n  /// @return The balance remaining for the user\n  function withdraw() public onlyInEmergency returns (uint) {\n    User storage user = users[msg.sender];\n    require(user.usableBalance > 0);\n      uint withdrawAmount = user.usableBalance;\n    user.usableBalance = 0;\n    msg.sender.transfer(user.usableBalance);\n    emit LogWithdrawal(msg.sender, withdrawAmount, user.usableBalance);\n    return user.usableBalance;\n\n  }\n\n\n  /// @notice client requests for evaluation\n  /// @dev if insurance has expired, its status changes to FINISHED\n  /// @param insuranceId id of insurance\n  /// @return false if insurance has expired otherwise returns true\n  function requestEvaluator(uint insuranceId) public stopInEmergency\n  verifyCaller(insurances[insuranceId].client)\n  // isNotExpired(insuranceId)\n  isEmpty(insuranceId)\n  // checkValue(insuranceId)\n   returns(bool){\n    require(insurances[insuranceId].evaluator == address(0));\n     if(insurances[insuranceId].expireTime < now){\n       checkIfIsExpired(insuranceId);\n       return false;\n     }else{\n      // require(msg.value >= feeAmount);\n      Insurance storage insurance = insurances[insuranceId];\n      insurance.evaluator = evaluators[0];\n       insurance.status = Status.WAITINGFORAVALUATION;\n//      insurance.evaluator = evaluators[availableEvaluator];\n//      changeAvailableEvaluator(availableEvaluator);\n      emit LogSetEvaluator(insuranceId, insurance.evaluator);\n      return true;\n     }\n\n  }\n\n  /// @notice evalator accepts refund to client\n  /// @param insuranceId id of insurance\n  /// @return true\n  function refundToClient(uint insuranceId) public\n  stopInEmergency\n  verifyCaller(insurances[insuranceId].evaluator)\n  isEmpty(insuranceId)\n  isWaiting(insuranceId)\n   returns(bool){\n    Insurance storage insurance = insurances[insuranceId];\n    insurance.evaluatorStatus = EvaluatorStatus.ACCEPTED;\n    insurance.status = Status.FINISHED;\n\n    User storage client = users[insurance.client];\n    User storage investor = users[insurance.investor];\n\n    investor.lockedBalance -= insurance.investorPay;\n    client.usableBalance += insurance.investorPay;\n\n    emit LogInsuranceFinished(insuranceId, insurance.startTime, insurance.expireTime, now);\n    return true;\n  }\n\n\n  /// @notice evaluator reject refund to client.\n  /// @param insuranceId id of insurance\n  /// @return true\n  function refundToInvestor(uint insuranceId) public\n  stopInEmergency\n  verifyCaller(insurances[insuranceId].evaluator)\n  isEmpty(insuranceId)\n  isWaiting(insuranceId)\n   returns(bool){\n    Insurance storage insurance = insurances[insuranceId];\n    insurance.evaluatorStatus = EvaluatorStatus.REJECTED;\n    insurance.status = Status.FINISHED;\n\n//    User storage client = users[insurance.client];\n    User storage investor = users[insurance.investor];\n\n    investor.lockedBalance -= insurance.investorPay;\n    investor.usableBalance += insurance.investorPay;\n\n    emit LogInsuranceFinished(insuranceId, insurance.startTime, insurance.expireTime ,now);\n    return true;\n  }\n\n  /// @notice check if insurance is expired\n  /// @param insuranceId id of insurance\n  /// @return true\n  function checkIfIsExpired(uint insuranceId) public\n  isEmpty(insuranceId)\n  isInProcess(insuranceId)\n  isExpired(insuranceId)\n   returns(bool){\n    Insurance storage insurance = insurances[insuranceId];\n    insurance.status = Status.FINISHED;\n\n//    User storage client = users[insurance.client];\n    User storage investor = users[insurance.investor];\n\n    investor.lockedBalance -= insurance.investorPay;\n    investor.usableBalance += insurance.investorPay;\n\n    emit LogInsuranceFinished(insuranceId, insurance.startTime, insurance.expireTime, now);\n    return true;\n  }\n\n    /// @notice fetch user info by address\n    /// @param _user address of user\n    /// @return id\n    function fetchUser(address _user) public view returns(\n        uint id, address user, uint usableBalance, uint lockedBalance, uint investsCount, uint insuranceId\n    ) {\n        id = users[_user].id;\n        user = users[_user].user;\n        usableBalance = users[_user].usableBalance;\n        lockedBalance = users[_user].lockedBalance;\n        investsCount = users[_user].investsCount;\n        insuranceId = users[_user].insuranceId;\n        return (id, user, usableBalance, lockedBalance, investsCount, insuranceId);\n    }\n\n    /// @notice fetch insurance item by id\n    /// @param _id of insurance\n    /// @return id\n    function fetchInsurance(uint _id) public view returns (\n        uint id, address investor, address client,\n        uint duration, uint startTime, uint expireTime, uint status,\n        uint investorPay, uint clientPay, address evaluator,  uint evaluatorStatus\n    ) {\n        id = insurances[_id].id;\n        investor = insurances[_id].investor;\n        client = insurances[_id].client;\n        duration = insurances[_id].duration;\n        startTime = insurances[_id].startTime;\n        expireTime = insurances[_id].expireTime;\n        status = uint(insurances[_id].status);\n        investorPay = insurances[_id].investorPay;\n        clientPay = insurances[_id].clientPay;\n        evaluator = insurances[_id].evaluator;\n        evaluatorStatus = uint(insurances[_id].evaluatorStatus);\n        return (id, investor, client, duration, startTime, expireTime, status, investorPay, clientPay, evaluator, evaluatorStatus);\n    }\n\n  function fetchInvestsIdOfUser() public view returns (uint[] memory ) {\n    return userInsurancesAsInvestor[msg.sender] ;\n  }\n\n  function fetchInsurancesIdOfUser() public view returns (uint[] memory ) {\n    return userInsurancesAsClient[msg.sender] ;\n  }\n\n\n}\n",
  "sourcePath": "/home/eshghi/haniye/blockchain-projects/p2p-insurance/contracts/P2pInsurance.sol",
  "compiler": {
    "name": "solc",
    "version": "0.6.1+commit.e6f7d5a4.Emscripten.clang"
  },
  "schemaVersion": "3.3.2",
  "updatedAt": "2020-12-03T19:27:11.040Z",
  "networkType": "ethereum",
  "devdoc": {
    "methods": {
      "acceptARequestByInvestor(uint256)": {
        "params": {
          "_id": "of insurance"
        },
        "returns": {
          "_0": "true"
        }
      },
      "addNewRequest(uint256,uint256)": {
        "details": "insuranceId 0 is skipped.duration is in day",
        "params": {
          "_clientPay": "amount you want to pay",
          "_duration": "amount you want to be insured"
        },
        "returns": {
          "_0": "insuranceCount the id of the new insurance"
        }
      },
      "checkIfIsExpired(uint256)": {
        "params": {
          "insuranceId": "id of insurance"
        },
        "returns": {
          "_0": "true"
        }
      },
      "fetchInsurance(uint256)": {
        "params": {
          "_id": "of insurance"
        },
        "returns": {
          "id": "id"
        }
      },
      "fetchUser(address)": {
        "params": {
          "_user": "address of user"
        },
        "returns": {
          "id": "id"
        }
      },
      "refundToClient(uint256)": {
        "params": {
          "insuranceId": "id of insurance"
        },
        "returns": {
          "_0": "true"
        }
      },
      "refundToInvestor(uint256)": {
        "params": {
          "insuranceId": "id of insurance"
        },
        "returns": {
          "_0": "true"
        }
      },
      "requestEvaluator(uint256)": {
        "details": "if insurance has expired, its status changes to FINISHED",
        "params": {
          "insuranceId": "id of insurance"
        },
        "returns": {
          "_0": "false if insurance has expired otherwise returns true"
        }
      },
      "withdraw()": {
        "details": "This does not return any excess ether sent to it",
        "returns": {
          "_0": "The balance remaining for the user"
        }
      },
      "withdraw(uint256)": {
        "details": "This does not return any excess ether sent to it",
        "params": {
          "withdrawAmount": "amount you want to withdraw"
        },
        "returns": {
          "_0": "The balance remaining for the user"
        }
      }
    }
  },
  "userdoc": {
    "methods": {
      "acceptARequestByInvestor(uint256)": {
        "notice": "Accept a requested insurance by investor"
      },
      "addNewRequest(uint256,uint256)": {
        "notice": "Add new insurance request from client"
      },
      "checkIfIsExpired(uint256)": {
        "notice": "check if insurance is expired"
      },
      "fetchInsurance(uint256)": {
        "notice": "fetch insurance item by id"
      },
      "fetchUser(address)": {
        "notice": "fetch user info by address"
      },
      "refundToClient(uint256)": {
        "notice": "evalator accepts refund to client"
      },
      "refundToInvestor(uint256)": {
        "notice": "evaluator reject refund to client."
      },
      "requestEvaluator(uint256)": {
        "notice": "client requests for evaluation"
      },
      "withdraw()": {
        "notice": "Withdraw all balance. it works only in emergency"
      },
      "withdraw(uint256)": {
        "notice": "Withdraw custom amount"
      }
    }
  }
}