{
  "contractName": "P2pInsurance",
  "abi": [
    {
      "inputs": [],
      "stateMutability": "nonpayable",
      "type": "constructor"
    },
    {
      "anonymous": false,
      "inputs": [
        {
          "indexed": false,
          "internalType": "uint256",
          "name": "evaluator",
          "type": "uint256"
        }
      ],
      "name": "LogAvailableEvaluatorChanged",
      "type": "event"
    },
    {
      "anonymous": false,
      "inputs": [
        {
          "indexed": true,
          "internalType": "address",
          "name": "evaluator",
          "type": "address"
        }
      ],
      "name": "LogEvaluatorAdded",
      "type": "event"
    },
    {
      "anonymous": false,
      "inputs": [
        {
          "indexed": true,
          "internalType": "address",
          "name": "evaluator",
          "type": "address"
        }
      ],
      "name": "LogEvaluatorRemoved",
      "type": "event"
    },
    {
      "anonymous": false,
      "inputs": [
        {
          "indexed": true,
          "internalType": "uint256",
          "name": "insuranceId",
          "type": "uint256"
        }
      ],
      "name": "LogInsuranceAcceptedByInvestor",
      "type": "event"
    },
    {
      "anonymous": false,
      "inputs": [
        {
          "indexed": true,
          "internalType": "uint256",
          "name": "insuranceId",
          "type": "uint256"
        },
        {
          "indexed": false,
          "internalType": "uint256",
          "name": "startTime",
          "type": "uint256"
        },
        {
          "indexed": false,
          "internalType": "uint256",
          "name": "endTime",
          "type": "uint256"
        },
        {
          "indexed": false,
          "internalType": "uint256",
          "name": "now",
          "type": "uint256"
        }
      ],
      "name": "LogInsuranceFinished",
      "type": "event"
    },
    {
      "anonymous": false,
      "inputs": [
        {
          "indexed": true,
          "internalType": "address",
          "name": "client",
          "type": "address"
        },
        {
          "indexed": true,
          "internalType": "uint256",
          "name": "insuranceId",
          "type": "uint256"
        },
        {
          "indexed": true,
          "internalType": "uint256",
          "name": "duration",
          "type": "uint256"
        }
      ],
      "name": "LogNewRequest",
      "type": "event"
    },
    {
      "anonymous": false,
      "inputs": [
        {
          "indexed": true,
          "internalType": "uint256",
          "name": "insuranceId",
          "type": "uint256"
        },
        {
          "indexed": true,
          "internalType": "address",
          "name": "evaluator",
          "type": "address"
        }
      ],
      "name": "LogSetEvaluator",
      "type": "event"
    },
    {
      "anonymous": false,
      "inputs": [
        {
          "indexed": true,
          "internalType": "bool",
          "name": "stopped",
          "type": "bool"
        }
      ],
      "name": "LogStoppedChanged",
      "type": "event"
    },
    {
      "anonymous": false,
      "inputs": [
        {
          "indexed": true,
          "internalType": "address",
          "name": "accountAddress",
          "type": "address"
        }
      ],
      "name": "LogUserEnrolled",
      "type": "event"
    },
    {
      "anonymous": false,
      "inputs": [
        {
          "indexed": true,
          "internalType": "address",
          "name": "accountAddress",
          "type": "address"
        },
        {
          "indexed": true,
          "internalType": "uint256",
          "name": "withdrawAmount",
          "type": "uint256"
        },
        {
          "indexed": true,
          "internalType": "uint256",
          "name": "newBalance",
          "type": "uint256"
        }
      ],
      "name": "LogWithdrawal",
      "type": "event"
    },
    {
      "inputs": [
        {
          "internalType": "address payable",
          "name": "_evaluator",
          "type": "address"
        }
      ],
      "name": "addNewEvaluator",
      "outputs": [
        {
          "internalType": "bool",
          "name": "",
          "type": "bool"
        }
      ],
      "stateMutability": "nonpayable",
      "type": "function"
    },
    {
      "inputs": [],
      "name": "counter",
      "outputs": [
        {
          "internalType": "uint256",
          "name": "",
          "type": "uint256"
        }
      ],
      "stateMutability": "view",
      "type": "function",
      "constant": true
    },
    {
      "inputs": [
        {
          "internalType": "uint256",
          "name": "id",
          "type": "uint256"
        }
      ],
      "name": "fetchEvaluatorById",
      "outputs": [
        {
          "internalType": "address",
          "name": "",
          "type": "address"
        }
      ],
      "stateMutability": "view",
      "type": "function",
      "constant": true
    },
    {
      "inputs": [],
      "name": "fetchRecentlyAddedEvaluators",
      "outputs": [
        {
          "internalType": "address[5]",
          "name": "",
          "type": "address[5]"
        }
      ],
      "stateMutability": "view",
      "type": "function",
      "constant": true
    },
    {
      "inputs": [
        {
          "internalType": "address",
          "name": "add",
          "type": "address"
        }
      ],
      "name": "fetchStatusOfEvaluatorById",
      "outputs": [
        {
          "internalType": "bool",
          "name": "",
          "type": "bool"
        }
      ],
      "stateMutability": "view",
      "type": "function",
      "constant": true
    },
    {
      "inputs": [],
      "name": "fetchStopped",
      "outputs": [
        {
          "internalType": "bool",
          "name": "",
          "type": "bool"
        }
      ],
      "stateMutability": "view",
      "type": "function",
      "constant": true
    },
    {
      "inputs": [],
      "name": "insuranceCount",
      "outputs": [
        {
          "internalType": "uint256",
          "name": "",
          "type": "uint256"
        }
      ],
      "stateMutability": "view",
      "type": "function",
      "constant": true
    },
    {
      "inputs": [],
      "name": "startContract",
      "outputs": [
        {
          "internalType": "bool",
          "name": "",
          "type": "bool"
        }
      ],
      "stateMutability": "nonpayable",
      "type": "function"
    },
    {
      "inputs": [],
      "name": "stopContract",
      "outputs": [
        {
          "internalType": "bool",
          "name": "",
          "type": "bool"
        }
      ],
      "stateMutability": "nonpayable",
      "type": "function"
    },
    {
      "inputs": [],
      "name": "stopped",
      "outputs": [
        {
          "internalType": "bool",
          "name": "",
          "type": "bool"
        }
      ],
      "stateMutability": "view",
      "type": "function",
      "constant": true
    },
    {
      "inputs": [],
      "name": "usersCount",
      "outputs": [
        {
          "internalType": "uint256",
          "name": "",
          "type": "uint256"
        }
      ],
      "stateMutability": "view",
      "type": "function",
      "constant": true
    },
    {
      "inputs": [
        {
          "internalType": "uint256",
          "name": "_duration",
          "type": "uint256"
        },
        {
          "internalType": "uint256",
          "name": "_clientPay",
          "type": "uint256"
        }
      ],
      "name": "addNewRequest",
      "outputs": [
        {
          "internalType": "uint256",
          "name": "",
          "type": "uint256"
        }
      ],
      "stateMutability": "payable",
      "type": "function",
      "payable": true
    },
    {
      "inputs": [
        {
          "internalType": "uint256",
          "name": "_id",
          "type": "uint256"
        }
      ],
      "name": "acceptARequestByInvestor",
      "outputs": [
        {
          "internalType": "bool",
          "name": "",
          "type": "bool"
        }
      ],
      "stateMutability": "payable",
      "type": "function",
      "payable": true
    },
    {
      "inputs": [
        {
          "internalType": "uint256",
          "name": "withdrawAmount",
          "type": "uint256"
        }
      ],
      "name": "withdrawCustomAmount",
      "outputs": [
        {
          "internalType": "uint256",
          "name": "",
          "type": "uint256"
        }
      ],
      "stateMutability": "nonpayable",
      "type": "function"
    },
    {
      "inputs": [],
      "name": "withdraw",
      "outputs": [],
      "stateMutability": "nonpayable",
      "type": "function"
    },
    {
      "inputs": [
        {
          "internalType": "uint256",
          "name": "insuranceId",
          "type": "uint256"
        }
      ],
      "name": "requestEvaluator",
      "outputs": [
        {
          "internalType": "bool",
          "name": "",
          "type": "bool"
        }
      ],
      "stateMutability": "nonpayable",
      "type": "function"
    },
    {
      "inputs": [
        {
          "internalType": "uint256",
          "name": "insuranceId",
          "type": "uint256"
        }
      ],
      "name": "refundToClient",
      "outputs": [
        {
          "internalType": "bool",
          "name": "",
          "type": "bool"
        }
      ],
      "stateMutability": "nonpayable",
      "type": "function"
    },
    {
      "inputs": [
        {
          "internalType": "uint256",
          "name": "insuranceId",
          "type": "uint256"
        }
      ],
      "name": "refundToInvestor",
      "outputs": [
        {
          "internalType": "bool",
          "name": "",
          "type": "bool"
        }
      ],
      "stateMutability": "nonpayable",
      "type": "function"
    },
    {
      "inputs": [
        {
          "internalType": "uint256",
          "name": "insuranceId",
          "type": "uint256"
        }
      ],
      "name": "checkIfIsExpired",
      "outputs": [
        {
          "internalType": "bool",
          "name": "",
          "type": "bool"
        }
      ],
      "stateMutability": "nonpayable",
      "type": "function"
    },
    {
      "inputs": [
        {
          "internalType": "address",
          "name": "_user",
          "type": "address"
        }
      ],
      "name": "fetchUser",
      "outputs": [
        {
          "internalType": "uint256",
          "name": "id",
          "type": "uint256"
        },
        {
          "internalType": "address",
          "name": "user",
          "type": "address"
        },
        {
          "internalType": "uint256",
          "name": "usableBalance",
          "type": "uint256"
        },
        {
          "internalType": "uint256",
          "name": "lockedBalance",
          "type": "uint256"
        },
        {
          "internalType": "uint256",
          "name": "investsCount",
          "type": "uint256"
        },
        {
          "internalType": "uint256",
          "name": "insuranceId",
          "type": "uint256"
        }
      ],
      "stateMutability": "view",
      "type": "function",
      "constant": true
    },
    {
      "inputs": [
        {
          "internalType": "uint256",
          "name": "_id",
          "type": "uint256"
        }
      ],
      "name": "fetchInsurance",
      "outputs": [
        {
          "internalType": "uint256",
          "name": "id",
          "type": "uint256"
        },
        {
          "internalType": "address",
          "name": "investor",
          "type": "address"
        },
        {
          "internalType": "address",
          "name": "client",
          "type": "address"
        },
        {
          "internalType": "uint256",
          "name": "duration",
          "type": "uint256"
        },
        {
          "internalType": "uint256",
          "name": "startTime",
          "type": "uint256"
        },
        {
          "internalType": "uint256",
          "name": "expireTime",
          "type": "uint256"
        },
        {
          "internalType": "uint256",
          "name": "status",
          "type": "uint256"
        },
        {
          "internalType": "uint256",
          "name": "investorPay",
          "type": "uint256"
        },
        {
          "internalType": "uint256",
          "name": "clientPay",
          "type": "uint256"
        },
        {
          "internalType": "address",
          "name": "evaluator",
          "type": "address"
        },
        {
          "internalType": "uint256",
          "name": "evaluatorStatus",
          "type": "uint256"
        }
      ],
      "stateMutability": "view",
      "type": "function",
      "constant": true
    },
    {
      "inputs": [],
      "name": "fetchInvestsIdOfUser",
      "outputs": [
        {
          "internalType": "uint256[100]",
          "name": "",
          "type": "uint256[100]"
        }
      ],
      "stateMutability": "view",
      "type": "function",
      "constant": true
    },
    {
      "inputs": [],
      "name": "fetchInsurancesIdOfUser",
      "outputs": [
        {
          "internalType": "uint256[100]",
          "name": "",
          "type": "uint256[100]"
        }
      ],
      "stateMutability": "view",
      "type": "function",
      "constant": true
    }
  ],
  "bytecode": "0x608060405234801561001057600080fd5b50336000806101000a81548173ffffffffffffffffffffffffffffffffffffffff021916908373ffffffffffffffffffffffffffffffffffffffff16021790555060016003819055506000600460006101000a81548160ff021916908315150217905550336002600080815260200190815260200160002060006101000a81548173ffffffffffffffffffffffffffffffffffffffff021916908373ffffffffffffffffffffffffffffffffffffffff16021790555060018060003373ffffffffffffffffffffffffffffffffffffffff1673ffffffffffffffffffffffffffffffffffffffff16815260200190815260200160002060006101000a81548160ff0219169083151502179055506000600b819055506000600c81905550612ef98061013c6000396000f3fe6080604052600436106101405760003560e01c806362f1dc71116100b6578063c44f3f681161006f578063c44f3f68146106e1578063c53ea91814610727578063cc471827146107a2578063e7cebea9146107f5578063f2db3b6f1461085e578063f4815bce146108aa57610140565b806362f1dc71146104025780636ba13a821461051b57806375f12b21146105465780637e4f6cc91461057557806380250550146105de578063be6f0ea21461062d57610140565b80633ccfd60b116101085780633ccfd60b146102c05780634d6df8da146102d7578063521a6e941461032a57806352a7220c146103555780635fb02f4d146103a857806361bc221a146103d757610140565b806312253a6c146101455780631dc15a831461017457806324513266146101c7578063297f9b1f1461021a5780632e9799051461026d575b600080fd5b34801561015157600080fd5b5061015a6108d9565b604051808215151515815260200191505060405180910390f35b34801561018057600080fd5b506101ad6004803603602081101561019757600080fd5b81019080803590602001909291905050506109bc565b604051808215151515815260200191505060405180910390f35b3480156101d357600080fd5b50610200600480360360208110156101ea57600080fd5b8101908080359060200190929190505050610c56565b604051808215151515815260200191505060405180910390f35b34801561022657600080fd5b5061022f610e3b565b6040518082606460200280838360005b8381101561025a57808201518184015260208101905061023f565b5050505090500191505060405180910390f35b34801561027957600080fd5b506102a66004803603602081101561029057600080fd5b8101908080359060200190929190505050610ec3565b604051808215151515815260200191505060405180910390f35b3480156102cc57600080fd5b506102d5611130565b005b3480156102e357600080fd5b50610310600480360360208110156102fa57600080fd5b8101908080359060200190929190505050611233565b604051808215151515815260200191505060405180910390f35b34801561033657600080fd5b5061033f611508565b6040518082815260200191505060405180910390f35b34801561036157600080fd5b5061036a61150e565b6040518082600560200280838360005b8381101561039557808201518184015260208101905061037a565b5050505090500191505060405180910390f35b3480156103b457600080fd5b506103bd61161b565b604051808215151515815260200191505060405180910390f35b3480156103e357600080fd5b506103ec6116fd565b6040518082815260200191505060405180910390f35b34801561040e57600080fd5b5061043b6004803603602081101561042557600080fd5b8101908080359060200190929190505050611703565b604051808c81526020018b73ffffffffffffffffffffffffffffffffffffffff1673ffffffffffffffffffffffffffffffffffffffff1681526020018a73ffffffffffffffffffffffffffffffffffffffff1673ffffffffffffffffffffffffffffffffffffffff1681526020018981526020018881526020018781526020018681526020018581526020018481526020018373ffffffffffffffffffffffffffffffffffffffff1673ffffffffffffffffffffffffffffffffffffffff1681526020018281526020019b50505050505050505050505060405180910390f35b34801561052757600080fd5b506105306118e7565b6040518082815260200191505060405180910390f35b34801561055257600080fd5b5061055b6118ed565b604051808215151515815260200191505060405180910390f35b34801561058157600080fd5b506105c46004803603602081101561059857600080fd5b81019080803573ffffffffffffffffffffffffffffffffffffffff169060200190929190505050611900565b604051808215151515815260200191505060405180910390f35b3480156105ea57600080fd5b506106176004803603602081101561060157600080fd5b8101908080359060200190929190505050611956565b6040518082815260200191505060405180910390f35b34801561063957600080fd5b5061067c6004803603602081101561065057600080fd5b81019080803573ffffffffffffffffffffffffffffffffffffffff169060200190929190505050611a5a565b604051808781526020018673ffffffffffffffffffffffffffffffffffffffff1673ffffffffffffffffffffffffffffffffffffffff168152602001858152602001848152602001838152602001828152602001965050505050505060405180910390f35b61070d600480360360208110156106f757600080fd5b8101908080359060200190929190505050611c3c565b604051808215151515815260200191505060405180910390f35b34801561073357600080fd5b506107606004803603602081101561074a57600080fd5b8101908080359060200190929190505050612219565b604051808273ffffffffffffffffffffffffffffffffffffffff1673ffffffffffffffffffffffffffffffffffffffff16815260200191505060405180910390f35b3480156107ae57600080fd5b506107b7612256565b6040518082606460200280838360005b838110156107e25780820151818401526020810190506107c7565b5050505090500191505060405180910390f35b34801561080157600080fd5b506108446004803603602081101561081857600080fd5b81019080803573ffffffffffffffffffffffffffffffffffffffff1690602001909291905050506122de565b604051808215151515815260200191505060405180910390f35b6108946004803603604081101561087457600080fd5b8101908080359060200190929190803590602001909291905050506124b2565b6040518082815260200191505060405180910390f35b3480156108b657600080fd5b506108bf612ac3565b604051808215151515815260200191505060405180910390f35b60008060009054906101000a900473ffffffffffffffffffffffffffffffffffffffff1673ffffffffffffffffffffffffffffffffffffffff163373ffffffffffffffffffffffffffffffffffffffff161461093457600080fd5b600460009054906101000a900460ff161561094e57600080fd5b6001600460006101000a81548160ff021916908315150217905550600460009054906101000a900460ff1615157ffb0dcbdf8561fb4eedad00908914583b7985b9e7df1d0234f4d43f9cc94fb9ab60405160405180910390a2600460009054906101000a900460ff16905090565b6000600460009054906101000a900460ff16156109d857600080fd5b6006600083815260200190815260200160002060020160009054906101000a900473ffffffffffffffffffffffffffffffffffffffff168073ffffffffffffffffffffffffffffffffffffffff163373ffffffffffffffffffffffffffffffffffffffff1614610a4757600080fd5b8260006002811115610a5557fe5b6006600083815260200190815260200160002060090160149054906101000a900460ff166002811115610a8457fe5b14610a8e57600080fd5b600073ffffffffffffffffffffffffffffffffffffffff166006600086815260200190815260200160002060090160009054906101000a900473ffffffffffffffffffffffffffffffffffffffff1673ffffffffffffffffffffffffffffffffffffffff1614610afd57600080fd5b4260066000868152602001908152602001600020600501541015610b2e57610b2484610c56565b5060009250610c4f565b60006006600086815260200190815260200160002090506002600080815260200190815260200160002060009054906101000a900473ffffffffffffffffffffffffffffffffffffffff168160090160006101000a81548173ffffffffffffffffffffffffffffffffffffffff021916908373ffffffffffffffffffffffffffffffffffffffff16021790555060028160060160006101000a81548160ff02191690836003811115610bdc57fe5b02179055508060090160009054906101000a900473ffffffffffffffffffffffffffffffffffffffff1673ffffffffffffffffffffffffffffffffffffffff16857f12c5262c6c8014f330515876867fdf071e7ba74c9f366bcd29b3d10794f3775c60405160405180910390a360019350505b5050919050565b60008160006002811115610c6657fe5b6006600083815260200190815260200160002060090160149054906101000a900460ff166002811115610c9557fe5b14610c9f57600080fd5b8260016003811115610cad57fe5b6006600083815260200190815260200160002060060160009054906101000a900460ff166003811115610cdc57fe5b14610ce657600080fd5b4260066000868152602001908152602001600020600501541015610e2f57600060066000868152602001908152602001600020905060038160060160006101000a81548160ff02191690836003811115610d3c57fe5b02179055506000600760008360010160009054906101000a900473ffffffffffffffffffffffffffffffffffffffff1673ffffffffffffffffffffffffffffffffffffffff1673ffffffffffffffffffffffffffffffffffffffff16815260200190815260200160002090508160070154816003016000828254039250508190555081600701548160020160008282540192505081905550857f77f3fecdea2e9c86594362bdd7c76306a4dcefe46136a2f6b81fd2357a76c415836004015484600501544260405180848152602001838152602001828152602001935050505060405180910390a2600194505050610e34565b600092505b5050919050565b610e43612e5d565b600a60003373ffffffffffffffffffffffffffffffffffffffff1673ffffffffffffffffffffffffffffffffffffffff168152602001908152602001600020606480602002604051908101604052809291908260648015610eb9576020028201915b815481526020019060010190808311610ea5575b5050505050905090565b6000600460009054906101000a900460ff1615610edf57600080fd5b6006600083815260200190815260200160002060090160009054906101000a900473ffffffffffffffffffffffffffffffffffffffff168073ffffffffffffffffffffffffffffffffffffffff163373ffffffffffffffffffffffffffffffffffffffff1614610f4e57600080fd5b8260006002811115610f5c57fe5b6006600083815260200190815260200160002060090160149054906101000a900460ff166002811115610f8b57fe5b14610f9557600080fd5b8360026003811115610fa357fe5b6006600083815260200190815260200160002060060160009054906101000a900460ff166003811115610fd257fe5b14610fdc57600080fd5b600060066000878152602001908152602001600020905060028160090160146101000a81548160ff0219169083600281111561101457fe5b021790555060038160060160006101000a81548160ff0219169083600381111561103a57fe5b02179055506000600760008360010160009054906101000a900473ffffffffffffffffffffffffffffffffffffffff1673ffffffffffffffffffffffffffffffffffffffff1673ffffffffffffffffffffffffffffffffffffffff16815260200190815260200160002090508160070154816003016000828254039250508190555081600701548160020160008282540192505081905550867f77f3fecdea2e9c86594362bdd7c76306a4dcefe46136a2f6b81fd2357a76c415836004015484600501544260405180848152602001838152602001828152602001935050505060405180910390a2600195505050505050919050565b600460009054906101000a900460ff1661114957600080fd5b6000600760003373ffffffffffffffffffffffffffffffffffffffff1673ffffffffffffffffffffffffffffffffffffffff1681526020019081526020016000209050600081600201549050600082600201819055503373ffffffffffffffffffffffffffffffffffffffff166108fc829081150290604051600060405180830381858888f193505050501580156111e5573d6000803e3d6000fd5b508160020154813373ffffffffffffffffffffffffffffffffffffffff167ff9226daf630542048a23086c6af599511aac100ec8f532793cc9697d061bed7e60405160405180910390a45050565b6000600460009054906101000a900460ff161561124f57600080fd5b6006600083815260200190815260200160002060090160009054906101000a900473ffffffffffffffffffffffffffffffffffffffff168073ffffffffffffffffffffffffffffffffffffffff163373ffffffffffffffffffffffffffffffffffffffff16146112be57600080fd5b82600060028111156112cc57fe5b6006600083815260200190815260200160002060090160149054906101000a900460ff1660028111156112fb57fe5b1461130557600080fd5b836002600381111561131357fe5b6006600083815260200190815260200160002060060160009054906101000a900460ff16600381111561134257fe5b1461134c57600080fd5b600060066000878152602001908152602001600020905060018160090160146101000a81548160ff0219169083600281111561138457fe5b021790555060038160060160006101000a81548160ff021916908360038111156113aa57fe5b02179055506000600760008360020160009054906101000a900473ffffffffffffffffffffffffffffffffffffffff1673ffffffffffffffffffffffffffffffffffffffff1673ffffffffffffffffffffffffffffffffffffffff16815260200190815260200160002090506000600760008460010160009054906101000a900473ffffffffffffffffffffffffffffffffffffffff1673ffffffffffffffffffffffffffffffffffffffff1673ffffffffffffffffffffffffffffffffffffffff16815260200190815260200160002090508260070154816003016000828254039250508190555082600701548260020160008282540192505081905550877f77f3fecdea2e9c86594362bdd7c76306a4dcefe46136a2f6b81fd2357a76c415846004015485600501544260405180848152602001838152602001828152602001935050505060405180910390a260019650505050505050919050565b600b5481565b611516612e80565b61151e612e80565b60008090505b60058110156116135760008160016003540303101561158757600082826005811061154b57fe5b602002019073ffffffffffffffffffffffffffffffffffffffff16908173ffffffffffffffffffffffffffffffffffffffff1681525050611606565b600260008260016003540303815260200190815260200160002060009054906101000a900473ffffffffffffffffffffffffffffffffffffffff168282600581106115ce57fe5b602002019073ffffffffffffffffffffffffffffffffffffffff16908173ffffffffffffffffffffffffffffffffffffffff16815250505b8080600101915050611524565b508091505090565b60008060009054906101000a900473ffffffffffffffffffffffffffffffffffffffff1673ffffffffffffffffffffffffffffffffffffffff163373ffffffffffffffffffffffffffffffffffffffff161461167657600080fd5b600460009054906101000a900460ff1661168f57600080fd5b6000600460006101000a81548160ff021916908315150217905550600460009054906101000a900460ff1615157ffb0dcbdf8561fb4eedad00908914583b7985b9e7df1d0234f4d43f9cc94fb9ab60405160405180910390a2600460009054906101000a900460ff16905090565b60035481565b6000806000806000806000806000806000600660008d8152602001908152602001600020600001549a50600660008d815260200190815260200160002060010160009054906101000a900473ffffffffffffffffffffffffffffffffffffffff169950600660008d815260200190815260200160002060020160009054906101000a900473ffffffffffffffffffffffffffffffffffffffff169850600660008d8152602001908152602001600020600301549750600660008d8152602001908152602001600020600401549650600660008d8152602001908152602001600020600501549550600660008d815260200190815260200160002060060160009054906101000a900460ff16600381111561181957fe5b9450600660008d8152602001908152602001600020600701549350600660008d8152602001908152602001600020600801549250600660008d815260200190815260200160002060090160009054906101000a900473ffffffffffffffffffffffffffffffffffffffff169150600660008d815260200190815260200160002060090160149054906101000a900460ff1660028111156118b557fe5b90508a8a8a8a8a8a8a8a8a8a8a9a509a509a509a509a509a509a509a509a509a509a5091939597999b90929496989a50565b600c5481565b600460009054906101000a900460ff1681565b6000600160008373ffffffffffffffffffffffffffffffffffffffff1673ffffffffffffffffffffffffffffffffffffffff16815260200190815260200160002060009054906101000a900460ff169050919050565b600080600760003373ffffffffffffffffffffffffffffffffffffffff1673ffffffffffffffffffffffffffffffffffffffff168152602001908152602001600020905080600201548311156119ab57600080fd5b8281600201600082825403925050819055503373ffffffffffffffffffffffffffffffffffffffff166108fc849081150290604051600060405180830381858888f19350505050158015611a03573d6000803e3d6000fd5b508060020154833373ffffffffffffffffffffffffffffffffffffffff167ff9226daf630542048a23086c6af599511aac100ec8f532793cc9697d061bed7e60405160405180910390a48060020154915050919050565b600080600080600080600760008873ffffffffffffffffffffffffffffffffffffffff1673ffffffffffffffffffffffffffffffffffffffff168152602001908152602001600020600001549550600760008873ffffffffffffffffffffffffffffffffffffffff1673ffffffffffffffffffffffffffffffffffffffff16815260200190815260200160002060010160009054906101000a900473ffffffffffffffffffffffffffffffffffffffff169450600760008873ffffffffffffffffffffffffffffffffffffffff1673ffffffffffffffffffffffffffffffffffffffff168152602001908152602001600020600201549350600760008873ffffffffffffffffffffffffffffffffffffffff1673ffffffffffffffffffffffffffffffffffffffff168152602001908152602001600020600301549250600760008873ffffffffffffffffffffffffffffffffffffffff1673ffffffffffffffffffffffffffffffffffffffff168152602001908152602001600020600401549150600760008873ffffffffffffffffffffffffffffffffffffffff1673ffffffffffffffffffffffffffffffffffffffff16815260200190815260200160002060060154905085858585858595509550955095509550955091939550919395565b6000600460009054906101000a900460ff1615611c5857600080fd5b6000809054906101000a900473ffffffffffffffffffffffffffffffffffffffff1673ffffffffffffffffffffffffffffffffffffffff163373ffffffffffffffffffffffffffffffffffffffff161415611cb257600080fd5b8160006003811115611cc057fe5b6006600083815260200190815260200160002060060160009054906101000a900460ff166003811115611cef57fe5b148015611d1357506000600660008381526020019081526020016000206003015414155b611d1c57600080fd5b823373ffffffffffffffffffffffffffffffffffffffff166006600083815260200190815260200160002060020160009054906101000a900473ffffffffffffffffffffffffffffffffffffffff1673ffffffffffffffffffffffffffffffffffffffff161415611d8c57600080fd5b600660008581526020019081526020016000206007015480611df0600760003373ffffffffffffffffffffffffffffffffffffffff1673ffffffffffffffffffffffffffffffffffffffff1681526020019081526020016000206002015434612ada565b1015611dfb57600080fd5b600073ffffffffffffffffffffffffffffffffffffffff16600760003373ffffffffffffffffffffffffffffffffffffffff1673ffffffffffffffffffffffffffffffffffffffff16815260200190815260200160002060010160009054906101000a900473ffffffffffffffffffffffffffffffffffffffff1673ffffffffffffffffffffffffffffffffffffffff161415611e9b57611e9a612b62565b5b6064600760003373ffffffffffffffffffffffffffffffffffffffff1673ffffffffffffffffffffffffffffffffffffffff168152602001908152602001600020600401541115611eeb57600080fd5b6000600660008781526020019081526020016000209050338160010160006101000a81548173ffffffffffffffffffffffffffffffffffffffff021916908373ffffffffffffffffffffffffffffffffffffffff16021790555060018160060160006101000a81548160ff02191690836003811115611f6657fe5b02179055504281600401819055506201518081600301540281600401540181600501819055506000600760003373ffffffffffffffffffffffffffffffffffffffff1673ffffffffffffffffffffffffffffffffffffffff1681526020019081526020016000209050611ff7611fed611fe3348560080154612ada565b8360020154612ada565b8360070154612ccd565b816002018190555061201182600701548260030154612ada565b816003018190555061208d600760008460020160009054906101000a900473ffffffffffffffffffffffffffffffffffffffff1673ffffffffffffffffffffffffffffffffffffffff1673ffffffffffffffffffffffffffffffffffffffff168152602001908152602001600020600301548360080154612ccd565b600760008460020160009054906101000a900473ffffffffffffffffffffffffffffffffffffffff1673ffffffffffffffffffffffffffffffffffffffff1673ffffffffffffffffffffffffffffffffffffffff168152602001908152602001600020600301819055508160000154600a60003373ffffffffffffffffffffffffffffffffffffffff1673ffffffffffffffffffffffffffffffffffffffff16815260200190815260200160002082600401546064811061214a57fe5b0181905550600181600401600082825401925050819055506001600860008460020160009054906101000a900473ffffffffffffffffffffffffffffffffffffffff1673ffffffffffffffffffffffffffffffffffffffff1673ffffffffffffffffffffffffffffffffffffffff16815260200190815260200160002060006101000a81548160ff021916908315150217905550867ff3d319027ffc1483fb92765fcae7cd84d9ba32891dbc11facf50efda5aea6ff160405160405180910390a2600195505050505050919050565b60006002600083815260200190815260200160002060009054906101000a900473ffffffffffffffffffffffffffffffffffffffff169050919050565b61225e612e5d565b600960003373ffffffffffffffffffffffffffffffffffffffff1673ffffffffffffffffffffffffffffffffffffffff1681526020019081526020016000206064806020026040519081016040528092919082606480156122d4576020028201915b8154815260200190600101908083116122c0575b5050505050905090565b60008060009054906101000a900473ffffffffffffffffffffffffffffffffffffffff1673ffffffffffffffffffffffffffffffffffffffff163373ffffffffffffffffffffffffffffffffffffffff161461233957600080fd5b600460009054906101000a900460ff161561235357600080fd5b600160008373ffffffffffffffffffffffffffffffffffffffff1673ffffffffffffffffffffffffffffffffffffffff16815260200190815260200160002060009054906101000a900460ff16156123aa57600080fd5b8160026000600354815260200190815260200160002060006101000a81548173ffffffffffffffffffffffffffffffffffffffff021916908373ffffffffffffffffffffffffffffffffffffffff160217905550600160036000828254019250508190555060018060008473ffffffffffffffffffffffffffffffffffffffff1673ffffffffffffffffffffffffffffffffffffffff16815260200190815260200160002060006101000a81548160ff0219169083151502179055508173ffffffffffffffffffffffffffffffffffffffff167f40ce51e165ca122b79b4e5ba4348d1a49270fc4949ee3b9bed282864ba428aa160405160405180910390a260019050919050565b6000600460009054906101000a900460ff16156124ce57600080fd5b6000809054906101000a900473ffffffffffffffffffffffffffffffffffffffff1673ffffffffffffffffffffffffffffffffffffffff163373ffffffffffffffffffffffffffffffffffffffff16141561252857600080fd5b8180612576600760003373ffffffffffffffffffffffffffffffffffffffff1673ffffffffffffffffffffffffffffffffffffffff1681526020019081526020016000206002015434612ada565b101561258157600080fd5b600073ffffffffffffffffffffffffffffffffffffffff16600760003373ffffffffffffffffffffffffffffffffffffffff1673ffffffffffffffffffffffffffffffffffffffff16815260200190815260200160002060010160009054906101000a900473ffffffffffffffffffffffffffffffffffffffff1673ffffffffffffffffffffffffffffffffffffffff16141561262157612620612b62565b5b6000600760003373ffffffffffffffffffffffffffffffffffffffff1673ffffffffffffffffffffffffffffffffffffffff1681526020019081526020016000206006015414806126ec575060038081111561267957fe5b60066000600760003373ffffffffffffffffffffffffffffffffffffffff1673ffffffffffffffffffffffffffffffffffffffff16815260200190815260200160002060060154815260200190815260200160002060060160009054906101000a900460ff1660038111156126ea57fe5b145b6126f557600080fd5b6064600760003373ffffffffffffffffffffffffffffffffffffffff1673ffffffffffffffffffffffffffffffffffffffff168152602001908152602001600020600501541061274457600080fd5b6001600b60008282540192505081905550604051806101600160405280600b548152602001600073ffffffffffffffffffffffffffffffffffffffff1681526020013373ffffffffffffffffffffffffffffffffffffffff1681526020018581526020016000815260200160008152602001600060038111156127c357fe5b81526020016127dc856127d7886004612d17565b612d17565b8152602001848152602001600073ffffffffffffffffffffffffffffffffffffffff1681526020016000600281111561281157fe5b81525060066000600b5481526020019081526020016000206000820151816000015560208201518160010160006101000a81548173ffffffffffffffffffffffffffffffffffffffff021916908373ffffffffffffffffffffffffffffffffffffffff16021790555060408201518160020160006101000a81548173ffffffffffffffffffffffffffffffffffffffff021916908373ffffffffffffffffffffffffffffffffffffffff160217905550606082015181600301556080820151816004015560a0820151816005015560c08201518160060160006101000a81548160ff0219169083600381111561290357fe5b021790555060e0820151816007015561010082015181600801556101208201518160090160006101000a81548173ffffffffffffffffffffffffffffffffffffffff021916908373ffffffffffffffffffffffffffffffffffffffff1602179055506101408201518160090160146101000a81548160ff0219169083600281111561298a57fe5b02179055509050506000600760003373ffffffffffffffffffffffffffffffffffffffff1673ffffffffffffffffffffffffffffffffffffffff16815260200190815260200160002090508334038160020160008282540192505081905550838160030160008282540192505081905550600b5481600601819055508060060154600960003373ffffffffffffffffffffffffffffffffffffffff1673ffffffffffffffffffffffffffffffffffffffff168152602001908152602001600020600b5460648110612a5757fe5b01819055506001816005016000828254019250508190555084600b543373ffffffffffffffffffffffffffffffffffffffff167f725329d2e7e32db4f9aa8fb7442ebaded93905569e3ec599a16a90dbcc7db84860405160405180910390a4600b549250505092915050565b6000600460009054906101000a900460ff16905090565b600080828401905083811015612b58576040517f08c379a000000000000000000000000000000000000000000000000000000000815260040180806020018281038252601b8152602001807f536166654d6174683a206164646974696f6e206f766572666c6f77000000000081525060200191505060405180910390fd5b8091505092915050565b6040518060e00160405280600c5481526020013373ffffffffffffffffffffffffffffffffffffffff168152602001600081526020016000815260200160008152602001600081526020016000815250600760003373ffffffffffffffffffffffffffffffffffffffff1673ffffffffffffffffffffffffffffffffffffffff1681526020019081526020016000206000820151816000015560208201518160010160006101000a81548173ffffffffffffffffffffffffffffffffffffffff021916908373ffffffffffffffffffffffffffffffffffffffff16021790555060408201518160020155606082015181600301556080820151816004015560a0820151816005015560c082015181600601559050506001600c600082825401925050819055503373ffffffffffffffffffffffffffffffffffffffff167f33565c4c79534bf45bf4e563ac54d1ae43178670871a0e197373ce367e67c84b60405160405180910390a2565b6000612d0f83836040518060400160405280601e81526020017f536166654d6174683a207375627472616374696f6e206f766572666c6f770000815250612d9d565b905092915050565b600080831415612d2a5760009050612d97565b6000828402905082848281612d3b57fe5b0414612d92576040517f08c379a0000000000000000000000000000000000000000000000000000000008152600401808060200182810382526021815260200180612ea36021913960400191505060405180910390fd5b809150505b92915050565b6000838311158290612e4a576040517f08c379a00000000000000000000000000000000000000000000000000000000081526004018080602001828103825283818151815260200191508051906020019080838360005b83811015612e0f578082015181840152602081019050612df4565b50505050905090810190601f168015612e3c5780820380516001836020036101000a031916815260200191505b509250505060405180910390fd5b5060008385039050809150509392505050565b60405180610c800160405280606490602082028038833980820191505090505090565b6040518060a0016040528060059060208202803883398082019150509050509056fe536166654d6174683a206d756c7469706c69636174696f6e206f766572666c6f77a26469706673582212208617588b010503e059a83494b2a0ee0e0662a01e4aa7b83d46d38422e60de72b64736f6c63430006010033",
  "source": "// SPDX-License-Identifier: MIT\npragma solidity >=0.4.22 <0.8.0;\n\nimport \"@openzeppelin/contracts/math/SafeMath.sol\";\nimport './Admin.sol';\n\n/// @title A simulator for P2P Insurance\n/// @author Razieh Eshghi (Haniye)\n/// @notice You can use this contract for only the most basic simulation\n/// @dev All function calls are currently implemented without side effects\ncontract P2pInsurance is Admin{\n  mapping( uint => Insurance) private insurances;\n  mapping(address => User) private users;\n  mapping (address => bool) private insuredUsers;\n  mapping (address => uint[100]) private userInsurancesAsClient;\n  mapping (address => uint[100]) private userInsurancesAsInvestor;\n  // mapping (address => bool) public enrolled;\n  uint public insuranceCount;\n  uint public usersCount;\n  // uint public feeAmount;\n\n\n  struct User {\n    uint id;\n    address payable user;\n    uint usableBalance;\n    uint lockedBalance;\n    uint investsCount;\n    uint insuranceCount;\n    uint insuranceId;\n  }\n\n  struct Insurance {\n    uint id;\n    address investor;\n    address client;\n    uint duration;\n    uint startTime;\n    uint expireTime;\n    Status status;\n    uint investorPay;\n    uint clientPay;\n    address evaluator;\n    EvaluatorStatus evaluatorStatus;\n  }\n\n  enum Status {\n    INIT , INPROCESS, WAITINGFORAVALUATION ,FINISHED\n  }\n  enum EvaluatorStatus {\n    EMPTY ,ACCEPTED , REJECTED\n  }\n\n\n  //events\n  event LogUserEnrolled(address indexed accountAddress);\n  event LogNewRequest(address indexed client, uint indexed insuranceId, uint indexed duration);\n  event LogInsuranceAcceptedByInvestor(uint indexed insuranceId);\n  event LogInsuranceFinished(uint indexed insuranceId , uint startTime, uint endTime, uint now);\n  event LogWithdrawal(address indexed accountAddress, uint indexed withdrawAmount, uint indexed newBalance);\n    event LogSetEvaluator(uint indexed insuranceId, address indexed evaluator);\n  //\n\n\n  modifier isFinished(uint insuranceId){\n      require(insurances[insuranceId].status == Status.FINISHED);\n      _;\n  }\n\n  modifier isInProcess(uint insuranceId){\n      require(insurances[insuranceId].status == Status.INPROCESS);\n      _;\n  }\n\n  modifier isWaiting(uint insuranceId){\n    require(insurances[insuranceId].status == Status.WAITINGFORAVALUATION);\n    _;\n  }\n\n  modifier isInit(uint insuranceId){\n      require(insurances[insuranceId].status == Status.INIT && insurances[insuranceId].duration != 0);\n      _;\n  }\n\n  modifier verifyCaller (address _address) {\n      require (msg.sender == _address);\n      _;\n\n  }\n  modifier hasEnoughBalance(uint _price) {\n      require(SafeMath.add(users[msg.sender].usableBalance , msg.value) >= _price);\n      _;\n  }\n\n  modifier isNotInsured(address _address) {\n      require(!insuredUsers[_address]);\n      _;\n\n  }\n\n  modifier isNotSamePerson(uint insuranceId) {\n      require(insurances[insuranceId].client != msg.sender);\n      _;\n  }\n\n//  modifier isNotExpired(uint insuranceId) {\n//      require(insurances[insuranceId].expireTime <= now);\n//      _;\n//  }\n\n  modifier isExpired(uint insuranceId) {\n      require(insurances[insuranceId].expireTime  < now);\n      _;\n  }\n\n  modifier isEmpty(uint insuranceId) {\n      require(insurances[insuranceId].evaluatorStatus == EvaluatorStatus.EMPTY);\n      _;\n  }\n\n\n  constructor() public {\n    insuranceCount = 0;\n    usersCount = 0;\n    // feeAmount = 100;\n  }\n\n  /// @notice add new user\n  /// @dev This is internal and cannot be called from outside\n  function addUser() internal {\n    users[msg.sender] = User({\n        user: msg.sender,\n        id: usersCount,\n        usableBalance: 0,\n        lockedBalance: 0,\n        investsCount: 0,\n        insuranceCount: 0,\n        insuranceId: 0\n    });\n    // enrolled[msg.sender] = true;\n    usersCount += 1;\n    emit LogUserEnrolled(msg.sender);\n  }\n\n  /// @notice Add new insurance request by client\n  /// @dev insuranceId 0 is skipped.\n  /// @dev duration is in day\n  /// @param _duration amount you want to be insured\n  /// @param _clientPay amount you want to pay\n  /// @return insuranceCount the id of the new insurance\n  function addNewRequest(uint _duration, uint _clientPay) public payable\n  stopInEmergency\n  isNotOwner\n  hasEnoughBalance(_clientPay) returns(uint)\n  {\n    if(users[msg.sender].user == address(0)){\n      addUser();\n    }\n    require(users[msg.sender].insuranceId == 0 || insurances[users[msg.sender].insuranceId].status == Status.FINISHED);\n    require(users[msg.sender].insuranceCount < 100);\n    insuranceCount += 1;\n    insurances[insuranceCount] = Insurance({\n      id: insuranceCount,\n      investor: address(0),\n      client: msg.sender,\n      duration: _duration,\n      startTime: 0,\n      expireTime: 0,\n      status: Status.INIT,\n      investorPay: SafeMath.mul(_clientPay , SafeMath.mul(_duration, 4)) ,\n      clientPay: _clientPay,\n      evaluator: address(0),\n      evaluatorStatus: EvaluatorStatus.EMPTY\n    });\n    User storage user = users[msg.sender];\n    user.usableBalance += msg.value - _clientPay;\n    user.lockedBalance += _clientPay;\n    user.insuranceId = insuranceCount;\n    userInsurancesAsClient[msg.sender][insuranceCount] = user.insuranceId;\n    user.insuranceCount += 1;\n    emit LogNewRequest(msg.sender , insuranceCount , _duration );\n    return insuranceCount;\n  }\n\n  /// @notice Accept a requested insurance by investor\n  /// @param _id of insurance\n  /// @return true\n  function acceptARequestByInvestor(uint _id) public payable\n  stopInEmergency\n  isNotOwner\n  isInit(_id)\n  isNotSamePerson(_id)\n  hasEnoughBalance(insurances[_id].investorPay) returns(bool){\n    if(users[msg.sender].user == address(0)){\n      addUser();\n    }\n    require(users[msg.sender].investsCount <= 100);\n      Insurance storage insurance = insurances[_id];\n      insurance.investor = msg.sender;\n      insurance.status = Status.INPROCESS;\n      insurance.startTime = now;\n      insurance.expireTime = insurance.startTime +  insurance.duration * 1 days ;\n\n      User storage user = users[msg.sender];\n      user.usableBalance = SafeMath.sub(SafeMath.add(SafeMath.add(msg.value , insurance.clientPay), user.usableBalance) , insurance.investorPay);\n      user.lockedBalance = SafeMath.add(insurance.investorPay, user.lockedBalance);\n      users[insurance.client].lockedBalance = SafeMath.sub(users[insurance.client].lockedBalance,insurance.clientPay);\n      userInsurancesAsInvestor[msg.sender][user.investsCount] = insurance.id;\n    user.investsCount += 1;\n\n      insuredUsers[insurance.client] = true;\n      emit LogInsuranceAcceptedByInvestor(_id);\n      return true;\n  }\n\n  /// @notice Withdraw custom amount\n  /// @dev This does not return any excess ether sent to it\n  /// @param withdrawAmount amount you want to withdraw\n  /// @return The balance remaining for the user\n  function withdrawCustomAmount(uint withdrawAmount)  public returns (uint) {\n    User storage user = users[msg.sender];\n    require(withdrawAmount <= user.usableBalance);\n    user.usableBalance -= withdrawAmount;\n    msg.sender.transfer(withdrawAmount);\n    emit LogWithdrawal(msg.sender, withdrawAmount, user.usableBalance);\n    return user.usableBalance;\n\n  }\n\n  /// @notice Withdraw all balance. it works only in emergency\n  /// @dev This does not return any excess ether sent to it\n  function withdraw() onlyInEmergency public{\n    User storage user = users[msg.sender];\n//    require(user.usableBalance > 0);\n      uint withdrawAmount = user.usableBalance;\n    user.usableBalance = 0;\n    msg.sender.transfer(withdrawAmount);\n    emit LogWithdrawal(msg.sender, withdrawAmount, user.usableBalance);\n  }\n\n\n  /// @notice client requests for evaluation\n  /// @dev for simplicity not the evaluator is the owner\n  /// @param insuranceId id of insurance\n  /// @return false if insurance has expired otherwise returns true\n  function requestEvaluator(uint insuranceId)\n  stopInEmergency\n  verifyCaller(insurances[insuranceId].client)\n  isEmpty(insuranceId)\n  public\n   returns(bool){\n    require(insurances[insuranceId].evaluator == address(0));\n     if(insurances[insuranceId].expireTime < now){\n       checkIfIsExpired(insuranceId);\n       return false;\n     }else{\n      // require(msg.value >= feeAmount);\n      Insurance storage insurance = insurances[insuranceId];\n      insurance.evaluator = evaluators[0];\n       insurance.status = Status.WAITINGFORAVALUATION;\n//      insurance.evaluator = evaluators[availableEvaluator];\n//      changeAvailableEvaluator(availableEvaluator);\n      emit LogSetEvaluator(insuranceId, insurance.evaluator);\n      return true;\n     }\n\n  }\n\n  /// @notice evalator accepts refund to client\n  /// @param insuranceId id of insurance\n  /// @return true\n  function refundToClient(uint insuranceId)\n  stopInEmergency\n  verifyCaller(insurances[insuranceId].evaluator)\n  isEmpty(insuranceId)\n  isWaiting(insuranceId) public\n   returns(bool){\n    Insurance storage insurance = insurances[insuranceId];\n    insurance.evaluatorStatus = EvaluatorStatus.ACCEPTED;\n    insurance.status = Status.FINISHED;\n\n    User storage client = users[insurance.client];\n    User storage investor = users[insurance.investor];\n\n    investor.lockedBalance -= insurance.investorPay;\n    client.usableBalance += insurance.investorPay;\n\n    emit LogInsuranceFinished(insuranceId, insurance.startTime, insurance.expireTime, now);\n    return true;\n  }\n\n\n  /// @notice evaluator reject refund to client.\n  /// @param insuranceId id of insurance\n  /// @return true\n  function refundToInvestor(uint insuranceId)\n  stopInEmergency\n  verifyCaller(insurances[insuranceId].evaluator)\n  isEmpty(insuranceId)\n  isWaiting(insuranceId) public\n   returns(bool){\n    Insurance storage insurance = insurances[insuranceId];\n    insurance.evaluatorStatus = EvaluatorStatus.REJECTED;\n    insurance.status = Status.FINISHED;\n\n//    User storage client = users[insurance.client];\n    User storage investor = users[insurance.investor];\n\n    investor.lockedBalance -= insurance.investorPay;\n    investor.usableBalance += insurance.investorPay;\n\n    emit LogInsuranceFinished(insuranceId, insurance.startTime, insurance.expireTime ,now);\n    return true;\n  }\n\n  /// @notice check if insurance is expired\n  /// @param insuranceId id of insurance\n  /// @return true\n  function checkIfIsExpired(uint insuranceId) public\n  isEmpty(insuranceId)\n  isInProcess(insuranceId)\n   returns(bool){\n    if(insurances[insuranceId].expireTime  < now){\n      Insurance storage insurance = insurances[insuranceId];\n      insurance.status = Status.FINISHED;\n\n      //    User storage client = users[insurance.client];\n      User storage investor = users[insurance.investor];\n\n      investor.lockedBalance -= insurance.investorPay;\n      investor.usableBalance += insurance.investorPay;\n\n      emit LogInsuranceFinished(insuranceId, insurance.startTime, insurance.expireTime, now);\n      return true;\n    }else{\n      return false;\n    }\n\n  }\n\n    /// @notice fetch user info by address\n    /// @param _user address of user\n    function fetchUser(address _user) public view returns(\n        uint id, address user, uint usableBalance, uint lockedBalance, uint investsCount, uint insuranceId\n    ) {\n        id = users[_user].id;\n        user = users[_user].user;\n        usableBalance = users[_user].usableBalance;\n        lockedBalance = users[_user].lockedBalance;\n        investsCount = users[_user].investsCount;\n        insuranceId = users[_user].insuranceId;\n        return (id, user, usableBalance, lockedBalance, investsCount, insuranceId);\n    }\n\n    /// @notice fetch insurance item by id\n    /// @param _id of insurance\n    function fetchInsurance(uint _id) public view returns (\n        uint id, address investor, address client,\n        uint duration, uint startTime, uint expireTime, uint status,\n        uint investorPay, uint clientPay, address evaluator,  uint evaluatorStatus\n    ) {\n        id = insurances[_id].id;\n        investor = insurances[_id].investor;\n        client = insurances[_id].client;\n        duration = insurances[_id].duration;\n        startTime = insurances[_id].startTime;\n        expireTime = insurances[_id].expireTime;\n        status = uint(insurances[_id].status);\n        investorPay = insurances[_id].investorPay;\n        clientPay = insurances[_id].clientPay;\n        evaluator = insurances[_id].evaluator;\n        evaluatorStatus = uint(insurances[_id].evaluatorStatus);\n        return (id, investor, client, duration, startTime, expireTime, status, investorPay, clientPay, evaluator, evaluatorStatus);\n    }\n\n  function fetchInvestsIdOfUser() public view returns (uint[100] memory ) {\n    return userInsurancesAsInvestor[msg.sender] ;\n  }\n\n  function fetchInsurancesIdOfUser() public view returns (uint[100] memory ) {\n    return userInsurancesAsClient[msg.sender] ;\n  }\n\n\n}\n",
  "sourcePath": "/home/eshghi/haniye/blockchain-projects/p2p-insurance/contracts/P2pInsurance.sol",
  "compiler": {
    "name": "solc",
    "version": "0.6.1+commit.e6f7d5a4.Emscripten.clang"
  },
  "schemaVersion": "3.3.2",
  "updatedAt": "2020-12-05T12:39:55.708Z",
  "networkType": "ethereum",
  "devdoc": {
    "author": "Razieh Eshghi (Haniye)",
    "details": "All function calls are currently implemented without side effects",
    "methods": {
      "acceptARequestByInvestor(uint256)": {
        "params": {
          "_id": "of insurance"
        },
        "returns": {
          "_0": "true"
        }
      },
      "addNewEvaluator(address)": {
        "params": {
          "_evaluator": "address of evaluator"
        }
      },
      "addNewRequest(uint256,uint256)": {
        "details": "insuranceId 0 is skipped.duration is in day",
        "params": {
          "_clientPay": "amount you want to pay",
          "_duration": "amount you want to be insured"
        },
        "returns": {
          "_0": "insuranceCount the id of the new insurance"
        }
      },
      "checkIfIsExpired(uint256)": {
        "params": {
          "insuranceId": "id of insurance"
        },
        "returns": {
          "_0": "true"
        }
      },
      "fetchEvaluatorById(uint256)": {
        "params": {
          "id": "of evaluator"
        }
      },
      "fetchInsurance(uint256)": {
        "params": {
          "_id": "of insurance"
        }
      },
      "fetchStatusOfEvaluatorById(address)": {
        "params": {
          "add": "address of evaluator"
        }
      },
      "fetchUser(address)": {
        "params": {
          "_user": "address of user"
        }
      },
      "refundToClient(uint256)": {
        "params": {
          "insuranceId": "id of insurance"
        },
        "returns": {
          "_0": "true"
        }
      },
      "refundToInvestor(uint256)": {
        "params": {
          "insuranceId": "id of insurance"
        },
        "returns": {
          "_0": "true"
        }
      },
      "requestEvaluator(uint256)": {
        "details": "for simplicity not the evaluator is the owner",
        "params": {
          "insuranceId": "id of insurance"
        },
        "returns": {
          "_0": "false if insurance has expired otherwise returns true"
        }
      },
      "withdraw()": {
        "details": "This does not return any excess ether sent to it"
      },
      "withdrawCustomAmount(uint256)": {
        "details": "This does not return any excess ether sent to it",
        "params": {
          "withdrawAmount": "amount you want to withdraw"
        },
        "returns": {
          "_0": "The balance remaining for the user"
        }
      }
    },
    "title": "A simulator for P2P Insurance"
  },
  "userdoc": {
    "methods": {
      "acceptARequestByInvestor(uint256)": {
        "notice": "Accept a requested insurance by investor"
      },
      "addNewEvaluator(address)": {
        "notice": "this function adds new address as evaluator"
      },
      "addNewRequest(uint256,uint256)": {
        "notice": "Add new insurance request by client"
      },
      "checkIfIsExpired(uint256)": {
        "notice": "check if insurance is expired"
      },
      "fetchEvaluatorById(uint256)": {
        "notice": "this function returns address of evaluator by id"
      },
      "fetchInsurance(uint256)": {
        "notice": "fetch insurance item by id"
      },
      "fetchRecentlyAddedEvaluators()": {
        "notice": "this function returns latest added evaluators"
      },
      "fetchStatusOfEvaluatorById(address)": {
        "notice": "this function returns true or false"
      },
      "fetchUser(address)": {
        "notice": "fetch user info by address"
      },
      "refundToClient(uint256)": {
        "notice": "evalator accepts refund to client"
      },
      "refundToInvestor(uint256)": {
        "notice": "evaluator reject refund to client."
      },
      "requestEvaluator(uint256)": {
        "notice": "client requests for evaluation"
      },
      "startContract()": {
        "notice": "this function change stopped to false"
      },
      "stopContract()": {
        "notice": "this function change stopped to true"
      },
      "withdraw()": {
        "notice": "Withdraw all balance. it works only in emergency"
      },
      "withdrawCustomAmount(uint256)": {
        "notice": "Withdraw custom amount"
      }
    },
    "notice": "You can use this contract for only the most basic simulation"
  }
}