{
  "contractName": "P2pInsurance",
  "abi": [
    {
      "inputs": [],
      "stateMutability": "nonpayable",
      "type": "constructor"
    },
    {
      "anonymous": false,
      "inputs": [
        {
          "indexed": false,
          "internalType": "uint256",
          "name": "evaluator",
          "type": "uint256"
        }
      ],
      "name": "LogAvailableEvaluatorChanged",
      "type": "event"
    },
    {
      "anonymous": false,
      "inputs": [
        {
          "indexed": true,
          "internalType": "address",
          "name": "evaluator",
          "type": "address"
        }
      ],
      "name": "LogEvaluatorAdded",
      "type": "event"
    },
    {
      "anonymous": false,
      "inputs": [
        {
          "indexed": true,
          "internalType": "address",
          "name": "evaluator",
          "type": "address"
        }
      ],
      "name": "LogEvaluatorRemoved",
      "type": "event"
    },
    {
      "anonymous": false,
      "inputs": [
        {
          "indexed": true,
          "internalType": "uint256",
          "name": "insuranceId",
          "type": "uint256"
        }
      ],
      "name": "LogInsuranceAcceptedByInvestor",
      "type": "event"
    },
    {
      "anonymous": false,
      "inputs": [
        {
          "indexed": true,
          "internalType": "uint256",
          "name": "insuranceId",
          "type": "uint256"
        },
        {
          "indexed": false,
          "internalType": "uint256",
          "name": "startTime",
          "type": "uint256"
        },
        {
          "indexed": false,
          "internalType": "uint256",
          "name": "endTime",
          "type": "uint256"
        },
        {
          "indexed": false,
          "internalType": "uint256",
          "name": "now",
          "type": "uint256"
        }
      ],
      "name": "LogInsuranceFinished",
      "type": "event"
    },
    {
      "anonymous": false,
      "inputs": [
        {
          "indexed": true,
          "internalType": "address",
          "name": "client",
          "type": "address"
        },
        {
          "indexed": true,
          "internalType": "uint256",
          "name": "insuranceId",
          "type": "uint256"
        },
        {
          "indexed": true,
          "internalType": "uint256",
          "name": "duration",
          "type": "uint256"
        }
      ],
      "name": "LogNewRequest",
      "type": "event"
    },
    {
      "anonymous": false,
      "inputs": [
        {
          "indexed": true,
          "internalType": "uint256",
          "name": "insuranceId",
          "type": "uint256"
        },
        {
          "indexed": true,
          "internalType": "address",
          "name": "evaluator",
          "type": "address"
        }
      ],
      "name": "LogSetEvaluator",
      "type": "event"
    },
    {
      "anonymous": false,
      "inputs": [
        {
          "indexed": true,
          "internalType": "bool",
          "name": "stopped",
          "type": "bool"
        }
      ],
      "name": "LogStoppedChanged",
      "type": "event"
    },
    {
      "anonymous": false,
      "inputs": [
        {
          "indexed": true,
          "internalType": "address",
          "name": "accountAddress",
          "type": "address"
        }
      ],
      "name": "LogUserEnrolled",
      "type": "event"
    },
    {
      "anonymous": false,
      "inputs": [
        {
          "indexed": true,
          "internalType": "address",
          "name": "accountAddress",
          "type": "address"
        },
        {
          "indexed": true,
          "internalType": "uint256",
          "name": "withdrawAmount",
          "type": "uint256"
        },
        {
          "indexed": true,
          "internalType": "uint256",
          "name": "newBalance",
          "type": "uint256"
        }
      ],
      "name": "LogWithdrawal",
      "type": "event"
    },
    {
      "inputs": [
        {
          "internalType": "address payable",
          "name": "_evaluator",
          "type": "address"
        }
      ],
      "name": "addNewEvaluator",
      "outputs": [
        {
          "internalType": "bool",
          "name": "",
          "type": "bool"
        }
      ],
      "stateMutability": "nonpayable",
      "type": "function"
    },
    {
      "inputs": [],
      "name": "counter",
      "outputs": [
        {
          "internalType": "uint256",
          "name": "",
          "type": "uint256"
        }
      ],
      "stateMutability": "view",
      "type": "function",
      "constant": true
    },
    {
      "inputs": [
        {
          "internalType": "uint256",
          "name": "",
          "type": "uint256"
        }
      ],
      "name": "evaluators",
      "outputs": [
        {
          "internalType": "address",
          "name": "",
          "type": "address"
        }
      ],
      "stateMutability": "view",
      "type": "function",
      "constant": true
    },
    {
      "inputs": [],
      "name": "fetchRecentlyAddedEvaluators",
      "outputs": [
        {
          "internalType": "address[5]",
          "name": "",
          "type": "address[5]"
        }
      ],
      "stateMutability": "view",
      "type": "function",
      "constant": true
    },
    {
      "inputs": [],
      "name": "insuranceCount",
      "outputs": [
        {
          "internalType": "uint256",
          "name": "",
          "type": "uint256"
        }
      ],
      "stateMutability": "view",
      "type": "function",
      "constant": true
    },
    {
      "inputs": [],
      "name": "startContract",
      "outputs": [
        {
          "internalType": "bool",
          "name": "",
          "type": "bool"
        }
      ],
      "stateMutability": "nonpayable",
      "type": "function"
    },
    {
      "inputs": [],
      "name": "stopContract",
      "outputs": [
        {
          "internalType": "bool",
          "name": "",
          "type": "bool"
        }
      ],
      "stateMutability": "nonpayable",
      "type": "function"
    },
    {
      "inputs": [],
      "name": "stopped",
      "outputs": [
        {
          "internalType": "bool",
          "name": "",
          "type": "bool"
        }
      ],
      "stateMutability": "view",
      "type": "function",
      "constant": true
    },
    {
      "inputs": [],
      "name": "usersCount",
      "outputs": [
        {
          "internalType": "uint256",
          "name": "",
          "type": "uint256"
        }
      ],
      "stateMutability": "view",
      "type": "function",
      "constant": true
    },
    {
      "inputs": [
        {
          "internalType": "address",
          "name": "",
          "type": "address"
        }
      ],
      "name": "validEvaluators",
      "outputs": [
        {
          "internalType": "bool",
          "name": "",
          "type": "bool"
        }
      ],
      "stateMutability": "view",
      "type": "function",
      "constant": true
    },
    {
      "inputs": [
        {
          "internalType": "uint256",
          "name": "_duration",
          "type": "uint256"
        },
        {
          "internalType": "uint256",
          "name": "_clientPay",
          "type": "uint256"
        }
      ],
      "name": "addNewRequest",
      "outputs": [
        {
          "internalType": "uint256",
          "name": "",
          "type": "uint256"
        }
      ],
      "stateMutability": "payable",
      "type": "function",
      "payable": true
    },
    {
      "inputs": [
        {
          "internalType": "uint256",
          "name": "_id",
          "type": "uint256"
        }
      ],
      "name": "acceptARequestByInvestor",
      "outputs": [
        {
          "internalType": "bool",
          "name": "",
          "type": "bool"
        }
      ],
      "stateMutability": "payable",
      "type": "function",
      "payable": true
    },
    {
      "inputs": [
        {
          "internalType": "uint256",
          "name": "withdrawAmount",
          "type": "uint256"
        }
      ],
      "name": "withdraw",
      "outputs": [
        {
          "internalType": "uint256",
          "name": "",
          "type": "uint256"
        }
      ],
      "stateMutability": "nonpayable",
      "type": "function"
    },
    {
      "inputs": [],
      "name": "withdraw",
      "outputs": [
        {
          "internalType": "uint256",
          "name": "",
          "type": "uint256"
        }
      ],
      "stateMutability": "nonpayable",
      "type": "function"
    },
    {
      "inputs": [
        {
          "internalType": "uint256",
          "name": "insuranceId",
          "type": "uint256"
        }
      ],
      "name": "requestEvaluator",
      "outputs": [
        {
          "internalType": "bool",
          "name": "",
          "type": "bool"
        }
      ],
      "stateMutability": "nonpayable",
      "type": "function"
    },
    {
      "inputs": [
        {
          "internalType": "uint256",
          "name": "insuranceId",
          "type": "uint256"
        }
      ],
      "name": "refundToClient",
      "outputs": [
        {
          "internalType": "bool",
          "name": "",
          "type": "bool"
        }
      ],
      "stateMutability": "nonpayable",
      "type": "function"
    },
    {
      "inputs": [
        {
          "internalType": "uint256",
          "name": "insuranceId",
          "type": "uint256"
        }
      ],
      "name": "refundToInvestor",
      "outputs": [
        {
          "internalType": "bool",
          "name": "",
          "type": "bool"
        }
      ],
      "stateMutability": "nonpayable",
      "type": "function"
    },
    {
      "inputs": [
        {
          "internalType": "uint256",
          "name": "insuranceId",
          "type": "uint256"
        }
      ],
      "name": "checkIfIsExpired",
      "outputs": [
        {
          "internalType": "bool",
          "name": "",
          "type": "bool"
        }
      ],
      "stateMutability": "nonpayable",
      "type": "function"
    },
    {
      "inputs": [
        {
          "internalType": "address",
          "name": "_user",
          "type": "address"
        }
      ],
      "name": "fetchUser",
      "outputs": [
        {
          "internalType": "uint256",
          "name": "id",
          "type": "uint256"
        },
        {
          "internalType": "address",
          "name": "user",
          "type": "address"
        },
        {
          "internalType": "uint256",
          "name": "usableBalance",
          "type": "uint256"
        },
        {
          "internalType": "uint256",
          "name": "lockedBalance",
          "type": "uint256"
        },
        {
          "internalType": "uint256",
          "name": "investsCount",
          "type": "uint256"
        },
        {
          "internalType": "uint256",
          "name": "insuranceId",
          "type": "uint256"
        }
      ],
      "stateMutability": "view",
      "type": "function",
      "constant": true
    },
    {
      "inputs": [
        {
          "internalType": "uint256",
          "name": "_id",
          "type": "uint256"
        }
      ],
      "name": "fetchInsurance",
      "outputs": [
        {
          "internalType": "uint256",
          "name": "id",
          "type": "uint256"
        },
        {
          "internalType": "address",
          "name": "investor",
          "type": "address"
        },
        {
          "internalType": "address",
          "name": "client",
          "type": "address"
        },
        {
          "internalType": "uint256",
          "name": "duration",
          "type": "uint256"
        },
        {
          "internalType": "uint256",
          "name": "startTime",
          "type": "uint256"
        },
        {
          "internalType": "uint256",
          "name": "expireTime",
          "type": "uint256"
        },
        {
          "internalType": "uint256",
          "name": "status",
          "type": "uint256"
        },
        {
          "internalType": "uint256",
          "name": "investorPay",
          "type": "uint256"
        },
        {
          "internalType": "uint256",
          "name": "clientPay",
          "type": "uint256"
        },
        {
          "internalType": "address",
          "name": "evaluator",
          "type": "address"
        },
        {
          "internalType": "uint256",
          "name": "evaluatorStatus",
          "type": "uint256"
        }
      ],
      "stateMutability": "view",
      "type": "function",
      "constant": true
    }
  ],
  "bytecode": "0x60806040526000600460006101000a81548160ff02191690831515021790555034801561002b57600080fd5b50336000806101000a81548173ffffffffffffffffffffffffffffffffffffffff021916908373ffffffffffffffffffffffffffffffffffffffff1602179055506001600381905550336002600080815260200190815260200160002060006101000a81548173ffffffffffffffffffffffffffffffffffffffff021916908373ffffffffffffffffffffffffffffffffffffffff16021790555060018060003373ffffffffffffffffffffffffffffffffffffffff1673ffffffffffffffffffffffffffffffffffffffff16815260200190815260200160002060006101000a81548160ff02191690831515021790555060006009819055506000600a81905550612bb88061013c6000396000f3fe60806040526004361061011f5760003560e01c806361bc221a116100a0578063be6f0ea211610064578063be6f0ea2146105cd578063c44f3f6814610681578063e168afe3146106c7578063e7cebea914610742578063f2db3b6f146107ab5761011f565b806361bc221a146103c657806362f1dc71146103f15780636ba13a821461050a57806375f12b21146105355780639a7c79b0146105645761011f565b80633ccfd60b116100e75780633ccfd60b1461029b5780634d6df8da146102c6578063521a6e941461031957806352a7220c146103445780635fb02f4d146103975761011f565b806312253a6c146101245780631dc15a831461015357806324513266146101a65780632e1a7d4d146101f95780632e97990514610248575b600080fd5b34801561013057600080fd5b506101396107f7565b604051808215151515815260200191505060405180910390f35b34801561015f57600080fd5b5061018c6004803603602081101561017657600080fd5b81019080803590602001909291905050506108da565b604051808215151515815260200191505060405180910390f35b3480156101b257600080fd5b506101df600480360360208110156101c957600080fd5b8101908080359060200190929190505050610b74565b604051808215151515815260200191505060405180910390f35b34801561020557600080fd5b506102326004803603602081101561021c57600080fd5b8101908080359060200190929190505050610d55565b6040518082815260200191505060405180910390f35b34801561025457600080fd5b506102816004803603602081101561026b57600080fd5b8101908080359060200190929190505050610e74565b604051808215151515815260200191505060405180910390f35b3480156102a757600080fd5b506102b06110e1565b6040518082815260200191505060405180910390f35b3480156102d257600080fd5b506102ff600480360360208110156102e957600080fd5b8101908080359060200190929190505050611203565b604051808215151515815260200191505060405180910390f35b34801561032557600080fd5b5061032e6114d8565b6040518082815260200191505060405180910390f35b34801561035057600080fd5b506103596114de565b6040518082600560200280838360005b83811015610384578082015181840152602081019050610369565b5050505090500191505060405180910390f35b3480156103a357600080fd5b506103ac6115eb565b604051808215151515815260200191505060405180910390f35b3480156103d257600080fd5b506103db6116cd565b6040518082815260200191505060405180910390f35b3480156103fd57600080fd5b5061042a6004803603602081101561041457600080fd5b81019080803590602001909291905050506116d3565b604051808c81526020018b73ffffffffffffffffffffffffffffffffffffffff1673ffffffffffffffffffffffffffffffffffffffff1681526020018a73ffffffffffffffffffffffffffffffffffffffff1673ffffffffffffffffffffffffffffffffffffffff1681526020018981526020018881526020018781526020018681526020018581526020018481526020018373ffffffffffffffffffffffffffffffffffffffff1673ffffffffffffffffffffffffffffffffffffffff1681526020018281526020019b50505050505050505050505060405180910390f35b34801561051657600080fd5b5061051f6118b7565b6040518082815260200191505060405180910390f35b34801561054157600080fd5b5061054a6118bd565b604051808215151515815260200191505060405180910390f35b34801561057057600080fd5b506105b36004803603602081101561058757600080fd5b81019080803573ffffffffffffffffffffffffffffffffffffffff1690602001909291905050506118d0565b604051808215151515815260200191505060405180910390f35b3480156105d957600080fd5b5061061c600480360360208110156105f057600080fd5b81019080803573ffffffffffffffffffffffffffffffffffffffff1690602001909291905050506118f0565b604051808781526020018673ffffffffffffffffffffffffffffffffffffffff1673ffffffffffffffffffffffffffffffffffffffff168152602001858152602001848152602001838152602001828152602001965050505050505060405180910390f35b6106ad6004803603602081101561069757600080fd5b8101908080359060200190929190505050611ad2565b604051808215151515815260200191505060405180910390f35b3480156106d357600080fd5b50610700600480360360208110156106ea57600080fd5b8101908080359060200190929190505050611fad565b604051808273ffffffffffffffffffffffffffffffffffffffff1673ffffffffffffffffffffffffffffffffffffffff16815260200191505060405180910390f35b34801561074e57600080fd5b506107916004803603602081101561076557600080fd5b81019080803573ffffffffffffffffffffffffffffffffffffffff169060200190929190505050611fe0565b604051808215151515815260200191505060405180910390f35b6107e1600480360360408110156107c157600080fd5b81019080803590602001909291908035906020019092919050505061219a565b6040518082815260200191505060405180910390f35b60008060009054906101000a900473ffffffffffffffffffffffffffffffffffffffff1673ffffffffffffffffffffffffffffffffffffffff163373ffffffffffffffffffffffffffffffffffffffff161461085257600080fd5b600460009054906101000a900460ff161561086c57600080fd5b6001600460006101000a81548160ff021916908315150217905550600460009054906101000a900460ff1615157ffb0dcbdf8561fb4eedad00908914583b7985b9e7df1d0234f4d43f9cc94fb9ab60405160405180910390a2600460009054906101000a900460ff16905090565b6000600460009054906101000a900460ff16156108f657600080fd5b6006600083815260200190815260200160002060020160009054906101000a900473ffffffffffffffffffffffffffffffffffffffff168073ffffffffffffffffffffffffffffffffffffffff163373ffffffffffffffffffffffffffffffffffffffff161461096557600080fd5b826000600281111561097357fe5b6006600083815260200190815260200160002060090160149054906101000a900460ff1660028111156109a257fe5b146109ac57600080fd5b600073ffffffffffffffffffffffffffffffffffffffff166006600086815260200190815260200160002060090160009054906101000a900473ffffffffffffffffffffffffffffffffffffffff1673ffffffffffffffffffffffffffffffffffffffff1614610a1b57600080fd5b4260066000868152602001908152602001600020600501541015610a4c57610a4284610b74565b5060009250610b6d565b60006006600086815260200190815260200160002090506002600080815260200190815260200160002060009054906101000a900473ffffffffffffffffffffffffffffffffffffffff168160090160006101000a81548173ffffffffffffffffffffffffffffffffffffffff021916908373ffffffffffffffffffffffffffffffffffffffff16021790555060028160060160006101000a81548160ff02191690836003811115610afa57fe5b02179055508060090160009054906101000a900473ffffffffffffffffffffffffffffffffffffffff1673ffffffffffffffffffffffffffffffffffffffff16857f12c5262c6c8014f330515876867fdf071e7ba74c9f366bcd29b3d10794f3775c60405160405180910390a360019350505b5050919050565b60008160006002811115610b8457fe5b6006600083815260200190815260200160002060090160149054906101000a900460ff166002811115610bb357fe5b14610bbd57600080fd5b8260016003811115610bcb57fe5b6006600083815260200190815260200160002060060160009054906101000a900460ff166003811115610bfa57fe5b14610c0457600080fd5b8342600660008381526020019081526020016000206005015410610c2757600080fd5b600060066000878152602001908152602001600020905060038160060160006101000a81548160ff02191690836003811115610c5f57fe5b02179055506000600760008360010160009054906101000a900473ffffffffffffffffffffffffffffffffffffffff1673ffffffffffffffffffffffffffffffffffffffff1673ffffffffffffffffffffffffffffffffffffffff16815260200190815260200160002090508160070154816003016000828254039250508190555081600701548160020160008282540192505081905550867f77f3fecdea2e9c86594362bdd7c76306a4dcefe46136a2f6b81fd2357a76c415836004015484600501544260405180848152602001838152602001828152602001935050505060405180910390a2600195505050505050919050565b6000600460009054906101000a900460ff1615610d7157600080fd5b6000600760003373ffffffffffffffffffffffffffffffffffffffff1673ffffffffffffffffffffffffffffffffffffffff16815260200190815260200160002090508060020154831115610dc557600080fd5b8281600201600082825403925050819055503373ffffffffffffffffffffffffffffffffffffffff166108fc849081150290604051600060405180830381858888f19350505050158015610e1d573d6000803e3d6000fd5b508060020154833373ffffffffffffffffffffffffffffffffffffffff167ff9226daf630542048a23086c6af599511aac100ec8f532793cc9697d061bed7e60405160405180910390a48060020154915050919050565b6000600460009054906101000a900460ff1615610e9057600080fd5b6006600083815260200190815260200160002060090160009054906101000a900473ffffffffffffffffffffffffffffffffffffffff168073ffffffffffffffffffffffffffffffffffffffff163373ffffffffffffffffffffffffffffffffffffffff1614610eff57600080fd5b8260006002811115610f0d57fe5b6006600083815260200190815260200160002060090160149054906101000a900460ff166002811115610f3c57fe5b14610f4657600080fd5b8360026003811115610f5457fe5b6006600083815260200190815260200160002060060160009054906101000a900460ff166003811115610f8357fe5b14610f8d57600080fd5b600060066000878152602001908152602001600020905060028160090160146101000a81548160ff02191690836002811115610fc557fe5b021790555060038160060160006101000a81548160ff02191690836003811115610feb57fe5b02179055506000600760008360010160009054906101000a900473ffffffffffffffffffffffffffffffffffffffff1673ffffffffffffffffffffffffffffffffffffffff1673ffffffffffffffffffffffffffffffffffffffff16815260200190815260200160002090508160070154816003016000828254039250508190555081600701548160020160008282540192505081905550867f77f3fecdea2e9c86594362bdd7c76306a4dcefe46136a2f6b81fd2357a76c415836004015484600501544260405180848152602001838152602001828152602001935050505060405180910390a2600195505050505050919050565b6000600460009054906101000a900460ff166110fc57600080fd5b6000600760003373ffffffffffffffffffffffffffffffffffffffff1673ffffffffffffffffffffffffffffffffffffffff1681526020019081526020016000209050600081600201541161115057600080fd5b600081600201549050600082600201819055503373ffffffffffffffffffffffffffffffffffffffff166108fc83600201549081150290604051600060405180830381858888f193505050501580156111ad573d6000803e3d6000fd5b508160020154813373ffffffffffffffffffffffffffffffffffffffff167ff9226daf630542048a23086c6af599511aac100ec8f532793cc9697d061bed7e60405160405180910390a481600201549250505090565b6000600460009054906101000a900460ff161561121f57600080fd5b6006600083815260200190815260200160002060090160009054906101000a900473ffffffffffffffffffffffffffffffffffffffff168073ffffffffffffffffffffffffffffffffffffffff163373ffffffffffffffffffffffffffffffffffffffff161461128e57600080fd5b826000600281111561129c57fe5b6006600083815260200190815260200160002060090160149054906101000a900460ff1660028111156112cb57fe5b146112d557600080fd5b83600260038111156112e357fe5b6006600083815260200190815260200160002060060160009054906101000a900460ff16600381111561131257fe5b1461131c57600080fd5b600060066000878152602001908152602001600020905060018160090160146101000a81548160ff0219169083600281111561135457fe5b021790555060038160060160006101000a81548160ff0219169083600381111561137a57fe5b02179055506000600760008360020160009054906101000a900473ffffffffffffffffffffffffffffffffffffffff1673ffffffffffffffffffffffffffffffffffffffff1673ffffffffffffffffffffffffffffffffffffffff16815260200190815260200160002090506000600760008460010160009054906101000a900473ffffffffffffffffffffffffffffffffffffffff1673ffffffffffffffffffffffffffffffffffffffff1673ffffffffffffffffffffffffffffffffffffffff16815260200190815260200160002090508260070154816003016000828254039250508190555082600701548260020160008282540192505081905550877f77f3fecdea2e9c86594362bdd7c76306a4dcefe46136a2f6b81fd2357a76c415846004015485600501544260405180848152602001838152602001828152602001935050505060405180910390a260019650505050505050919050565b60095481565b6114e6612b3f565b6114ee612b3f565b60008090505b60058110156115e35760008160016003540303101561155757600082826005811061151b57fe5b602002019073ffffffffffffffffffffffffffffffffffffffff16908173ffffffffffffffffffffffffffffffffffffffff16815250506115d6565b600260008260016003540303815260200190815260200160002060009054906101000a900473ffffffffffffffffffffffffffffffffffffffff1682826005811061159e57fe5b602002019073ffffffffffffffffffffffffffffffffffffffff16908173ffffffffffffffffffffffffffffffffffffffff16815250505b80806001019150506114f4565b508091505090565b60008060009054906101000a900473ffffffffffffffffffffffffffffffffffffffff1673ffffffffffffffffffffffffffffffffffffffff163373ffffffffffffffffffffffffffffffffffffffff161461164657600080fd5b600460009054906101000a900460ff1661165f57600080fd5b6000600460006101000a81548160ff021916908315150217905550600460009054906101000a900460ff1615157ffb0dcbdf8561fb4eedad00908914583b7985b9e7df1d0234f4d43f9cc94fb9ab60405160405180910390a2600460009054906101000a900460ff16905090565b60035481565b6000806000806000806000806000806000600660008d8152602001908152602001600020600001549a50600660008d815260200190815260200160002060010160009054906101000a900473ffffffffffffffffffffffffffffffffffffffff169950600660008d815260200190815260200160002060020160009054906101000a900473ffffffffffffffffffffffffffffffffffffffff169850600660008d8152602001908152602001600020600301549750600660008d8152602001908152602001600020600401549650600660008d8152602001908152602001600020600501549550600660008d815260200190815260200160002060060160009054906101000a900460ff1660038111156117e957fe5b9450600660008d8152602001908152602001600020600701549350600660008d8152602001908152602001600020600801549250600660008d815260200190815260200160002060090160009054906101000a900473ffffffffffffffffffffffffffffffffffffffff169150600660008d815260200190815260200160002060090160149054906101000a900460ff16600281111561188557fe5b90508a8a8a8a8a8a8a8a8a8a8a9a509a509a509a509a509a509a509a509a509a509a5091939597999b90929496989a50565b600a5481565b600460009054906101000a900460ff1681565b60016020528060005260406000206000915054906101000a900460ff1681565b600080600080600080600760008873ffffffffffffffffffffffffffffffffffffffff1673ffffffffffffffffffffffffffffffffffffffff168152602001908152602001600020600001549550600760008873ffffffffffffffffffffffffffffffffffffffff1673ffffffffffffffffffffffffffffffffffffffff16815260200190815260200160002060010160009054906101000a900473ffffffffffffffffffffffffffffffffffffffff169450600760008873ffffffffffffffffffffffffffffffffffffffff1673ffffffffffffffffffffffffffffffffffffffff168152602001908152602001600020600201549350600760008873ffffffffffffffffffffffffffffffffffffffff1673ffffffffffffffffffffffffffffffffffffffff168152602001908152602001600020600301549250600760008873ffffffffffffffffffffffffffffffffffffffff1673ffffffffffffffffffffffffffffffffffffffff168152602001908152602001600020600401549150600760008873ffffffffffffffffffffffffffffffffffffffff1673ffffffffffffffffffffffffffffffffffffffff16815260200190815260200160002060050154905085858585858595509550955095509550955091939550919395565b6000600460009054906101000a900460ff1615611aee57600080fd5b8160006003811115611afc57fe5b6006600083815260200190815260200160002060060160009054906101000a900460ff166003811115611b2b57fe5b148015611b4f57506000600660008381526020019081526020016000206003015414155b611b5857600080fd5b823373ffffffffffffffffffffffffffffffffffffffff166006600083815260200190815260200160002060020160009054906101000a900473ffffffffffffffffffffffffffffffffffffffff1673ffffffffffffffffffffffffffffffffffffffff161415611bc857600080fd5b600660008581526020019081526020016000206007015480611c2c600760003373ffffffffffffffffffffffffffffffffffffffff1673ffffffffffffffffffffffffffffffffffffffff16815260200190815260200160002060020154346126a3565b1015611c3757600080fd5b600073ffffffffffffffffffffffffffffffffffffffff16600760003373ffffffffffffffffffffffffffffffffffffffff1673ffffffffffffffffffffffffffffffffffffffff16815260200190815260200160002060010160009054906101000a900473ffffffffffffffffffffffffffffffffffffffff1673ffffffffffffffffffffffffffffffffffffffff161415611cd757611cd661272b565b5b6000600660008781526020019081526020016000209050338160010160006101000a81548173ffffffffffffffffffffffffffffffffffffffff021916908373ffffffffffffffffffffffffffffffffffffffff16021790555060018160060160006101000a81548160ff02191690836003811115611d5257fe5b02179055504281600401819055506201518081600301540281600401540181600501819055506000600760003373ffffffffffffffffffffffffffffffffffffffff1673ffffffffffffffffffffffffffffffffffffffff1681526020019081526020016000209050611de3611dd9611dcf3485600801546126a3565b83600201546126a3565b836007015461289f565b8160020181905550611dfd826007015482600301546126a3565b8160030181905550611e79600760008460020160009054906101000a900473ffffffffffffffffffffffffffffffffffffffff1673ffffffffffffffffffffffffffffffffffffffff1673ffffffffffffffffffffffffffffffffffffffff16815260200190815260200160002060030154836008015461289f565b600760008460020160009054906101000a900473ffffffffffffffffffffffffffffffffffffffff1673ffffffffffffffffffffffffffffffffffffffff1673ffffffffffffffffffffffffffffffffffffffff16815260200190815260200160002060030181905550600181600401600082825401925050819055506001600860008460020160009054906101000a900473ffffffffffffffffffffffffffffffffffffffff1673ffffffffffffffffffffffffffffffffffffffff1673ffffffffffffffffffffffffffffffffffffffff16815260200190815260200160002060006101000a81548160ff021916908315150217905550867ff3d319027ffc1483fb92765fcae7cd84d9ba32891dbc11facf50efda5aea6ff160405160405180910390a2600195505050505050919050565b60026020528060005260406000206000915054906101000a900473ffffffffffffffffffffffffffffffffffffffff1681565b60008060009054906101000a900473ffffffffffffffffffffffffffffffffffffffff1673ffffffffffffffffffffffffffffffffffffffff163373ffffffffffffffffffffffffffffffffffffffff161461203b57600080fd5b600160008373ffffffffffffffffffffffffffffffffffffffff1673ffffffffffffffffffffffffffffffffffffffff16815260200190815260200160002060009054906101000a900460ff161561209257600080fd5b8160026000600354815260200190815260200160002060006101000a81548173ffffffffffffffffffffffffffffffffffffffff021916908373ffffffffffffffffffffffffffffffffffffffff160217905550600160036000828254019250508190555060018060008473ffffffffffffffffffffffffffffffffffffffff1673ffffffffffffffffffffffffffffffffffffffff16815260200190815260200160002060006101000a81548160ff0219169083151502179055508173ffffffffffffffffffffffffffffffffffffffff167f40ce51e165ca122b79b4e5ba4348d1a49270fc4949ee3b9bed282864ba428aa160405160405180910390a260019050919050565b6000600460009054906101000a900460ff16156121b657600080fd5b8180612204600760003373ffffffffffffffffffffffffffffffffffffffff1673ffffffffffffffffffffffffffffffffffffffff16815260200190815260200160002060020154346126a3565b101561220f57600080fd5b600073ffffffffffffffffffffffffffffffffffffffff16600760003373ffffffffffffffffffffffffffffffffffffffff1673ffffffffffffffffffffffffffffffffffffffff16815260200190815260200160002060010160009054906101000a900473ffffffffffffffffffffffffffffffffffffffff1673ffffffffffffffffffffffffffffffffffffffff1614156122af576122ae61272b565b5b6000600760003373ffffffffffffffffffffffffffffffffffffffff1673ffffffffffffffffffffffffffffffffffffffff16815260200190815260200160002060050154148061237a575060038081111561230757fe5b60066000600760003373ffffffffffffffffffffffffffffffffffffffff1673ffffffffffffffffffffffffffffffffffffffff16815260200190815260200160002060050154815260200190815260200160002060060160009054906101000a900460ff16600381111561237857fe5b145b61238357600080fd5b60016009600082825401925050819055506040518061016001604052806009548152602001600073ffffffffffffffffffffffffffffffffffffffff1681526020013373ffffffffffffffffffffffffffffffffffffffff16815260200185815260200160008152602001600081526020016000600381111561240257fe5b81526020016124258561242061241989600c6128e9565b600361296f565b6128e9565b8152602001848152602001600073ffffffffffffffffffffffffffffffffffffffff1681526020016000600281111561245a57fe5b8152506006600060095481526020019081526020016000206000820151816000015560208201518160010160006101000a81548173ffffffffffffffffffffffffffffffffffffffff021916908373ffffffffffffffffffffffffffffffffffffffff16021790555060408201518160020160006101000a81548173ffffffffffffffffffffffffffffffffffffffff021916908373ffffffffffffffffffffffffffffffffffffffff160217905550606082015181600301556080820151816004015560a0820151816005015560c08201518160060160006101000a81548160ff0219169083600381111561254c57fe5b021790555060e0820151816007015561010082015181600801556101208201518160090160006101000a81548173ffffffffffffffffffffffffffffffffffffffff021916908373ffffffffffffffffffffffffffffffffffffffff1602179055506101408201518160090160146101000a81548160ff021916908360028111156125d357fe5b02179055509050506000600760003373ffffffffffffffffffffffffffffffffffffffff1673ffffffffffffffffffffffffffffffffffffffff168152602001908152602001600020905083340381600201600082825401925050819055508381600301600082825401925050819055506009548160050181905550846009543373ffffffffffffffffffffffffffffffffffffffff167f725329d2e7e32db4f9aa8fb7442ebaded93905569e3ec599a16a90dbcc7db84860405160405180910390a46009549250505092915050565b600080828401905083811015612721576040517f08c379a000000000000000000000000000000000000000000000000000000000815260040180806020018281038252601b8152602001807f536166654d6174683a206164646974696f6e206f766572666c6f77000000000081525060200191505060405180910390fd5b8091505092915050565b600460009054906101000a900460ff161561274557600080fd5b6040518060c00160405280600a5481526020013373ffffffffffffffffffffffffffffffffffffffff1681526020016000815260200160008152602001600081526020016000815250600760003373ffffffffffffffffffffffffffffffffffffffff1673ffffffffffffffffffffffffffffffffffffffff1681526020019081526020016000206000820151816000015560208201518160010160006101000a81548173ffffffffffffffffffffffffffffffffffffffff021916908373ffffffffffffffffffffffffffffffffffffffff16021790555060408201518160020155606082015181600301556080820151816004015560a082015181600501559050506001600a600082825401925050819055503373ffffffffffffffffffffffffffffffffffffffff167f33565c4c79534bf45bf4e563ac54d1ae43178670871a0e197373ce367e67c84b60405160405180910390a2565b60006128e183836040518060400160405280601e81526020017f536166654d6174683a207375627472616374696f6e206f766572666c6f7700008152506129b9565b905092915050565b6000808314156128fc5760009050612969565b600082840290508284828161290d57fe5b0414612964576040517f08c379a0000000000000000000000000000000000000000000000000000000008152600401808060200182810382526021815260200180612b626021913960400191505060405180910390fd5b809150505b92915050565b60006129b183836040518060400160405280601a81526020017f536166654d6174683a206469766973696f6e206279207a65726f000000000000815250612a79565b905092915050565b6000838311158290612a66576040517f08c379a00000000000000000000000000000000000000000000000000000000081526004018080602001828103825283818151815260200191508051906020019080838360005b83811015612a2b578082015181840152602081019050612a10565b50505050905090810190601f168015612a585780820380516001836020036101000a031916815260200191505b509250505060405180910390fd5b5060008385039050809150509392505050565b60008083118290612b25576040517f08c379a00000000000000000000000000000000000000000000000000000000081526004018080602001828103825283818151815260200191508051906020019080838360005b83811015612aea578082015181840152602081019050612acf565b50505050905090810190601f168015612b175780820380516001836020036101000a031916815260200191505b509250505060405180910390fd5b506000838581612b3157fe5b049050809150509392505050565b6040518060a0016040528060059060208202803883398082019150509050509056fe536166654d6174683a206d756c7469706c69636174696f6e206f766572666c6f77a26469706673582212205525b880772361c30c13dbacb857d6397b7c32e649c1a90bcab8923cae5e91e664736f6c63430006010033",
  "source": "// SPDX-License-Identifier: MIT\npragma solidity >=0.4.22 <0.8.0;\n\nimport \"@openzeppelin/contracts/math/SafeMath.sol\";\nimport './Admin.sol';\n\ncontract P2pInsurance is Admin{\n  mapping( uint => Insurance) private insurances;\n  mapping(address => User) private users;\n  mapping (address => bool) private insuredUsers;\n  // mapping (address => bool) public enrolled;\n    // todo save and fetch init insurances\n  uint public insuranceCount;\n  uint public usersCount;\n  // uint public feeAmount;\n\n\n  struct User {\n    uint id;\n    address payable user;\n    uint usableBalance;\n    uint lockedBalance;\n    uint investsCount;\n    uint insuranceId;\n  }\n\n  struct Insurance {\n    uint id;\n    address investor;\n    address client;\n    uint duration;\n    uint startTime;\n    uint expireTime;\n    Status status;\n    uint investorPay;\n    uint clientPay;\n    address evaluator;\n    EvaluatorStatus evaluatorStatus;\n  }\n\n  enum Status {\n    INIT , INPROCESS, WAITINGFORAVALUATION ,FINISHED\n  }\n  enum EvaluatorStatus {\n    EMPTY ,ACCEPTED , REJECTED\n  }\n\n\n  //events\n  event LogUserEnrolled(address indexed accountAddress);\n  event LogNewRequest(address indexed client, uint indexed insuranceId, uint indexed duration);\n  event LogInsuranceAcceptedByInvestor(uint indexed insuranceId);\n  event LogInsuranceFinished(uint indexed insuranceId , uint startTime, uint endTime, uint now);\n  event LogWithdrawal(address indexed accountAddress, uint indexed withdrawAmount, uint indexed newBalance);\n    event LogSetEvaluator(uint indexed insuranceId, address indexed evaluator);\n  //\n\n\n  modifier isFinished(uint insuranceId){\n      require(insurances[insuranceId].status == Status.FINISHED);\n      _;\n  }\n\n  modifier isInProcess(uint insuranceId){\n      require(insurances[insuranceId].status == Status.INPROCESS);\n      _;\n  }\n\n  modifier isWaiting(uint insuranceId){\n    require(insurances[insuranceId].status == Status.WAITINGFORAVALUATION);\n    _;\n  }\n\n  modifier isInit(uint insuranceId){\n      require(insurances[insuranceId].status == Status.INIT && insurances[insuranceId].duration != 0);\n      _;\n  }\n\n  modifier verifyCaller (address _address) {\n      require (msg.sender == _address);\n      _;\n\n  }\n  modifier hasEnoughBalance(uint _price) {\n      require(SafeMath.add(users[msg.sender].usableBalance , msg.value) >= _price);\n      _;\n  }\n\n  modifier isNotInsured(address _address) {\n      require(!insuredUsers[_address]);\n      _;\n\n  }\n\n  modifier isNotSamePerson(uint insuranceId) {\n      require(insurances[insuranceId].client != msg.sender);\n      _;\n  }\n\n//  modifier isNotExpired(uint insuranceId) {\n//      require(insurances[insuranceId].expireTime <= now);\n//      _;\n//  }\n\n  modifier isExpired(uint insuranceId) {\n      require(insurances[insuranceId].expireTime  < now);\n      _;\n  }\n\n  modifier isEmpty(uint insuranceId) {\n      require(insurances[insuranceId].evaluatorStatus == EvaluatorStatus.EMPTY);\n      _;\n  }\n\n\n  constructor() public {\n    insuranceCount = 0;\n    usersCount = 0;\n    // feeAmount = 100;\n  }\n\n  /// @notice add new user\n  /// @dev This is internal and cannot be called from outside\n  function addUser() internal stopInEmergency{\n    users[msg.sender] = User({\n        user: msg.sender,\n        id: usersCount,\n        usableBalance: 0,\n        lockedBalance: 0,\n        investsCount: 0,\n        insuranceId: 0\n    });\n    // enrolled[msg.sender] = true;\n    usersCount += 1;\n    emit LogUserEnrolled(msg.sender);\n  }\n\n  /// @notice Add new insurance request from client\n  /// @dev insuranceId 0 is skipped.\n  /// @dev duration is in day\n  /// @param _duration amount you want to be insured\n  /// @param _clientPay amount you want to pay\n  /// @return insuranceCount the id of the new insurance\n  function addNewRequest(uint _duration, uint _clientPay) public payable\n  stopInEmergency\n  hasEnoughBalance(_clientPay) returns(uint)\n  {\n    if(users[msg.sender].user == address(0)){\n      addUser();\n    }\n    require(users[msg.sender].insuranceId == 0 || insurances[users[msg.sender].insuranceId].status == Status.FINISHED);\n    insuranceCount += 1;\n    insurances[insuranceCount] = Insurance({\n      id: insuranceCount,\n      investor: address(0),\n      client: msg.sender,\n      duration: _duration,\n      startTime: 0,\n      expireTime: 0,\n      status: Status.INIT,\n      investorPay: SafeMath.mul(_clientPay , SafeMath.div(SafeMath.mul(_duration, 12),3)) ,\n      clientPay: _clientPay,\n      evaluator: address(0),\n      evaluatorStatus: EvaluatorStatus.EMPTY\n    });\n    // todo calculate investorPay by duration and clientPay\n    User storage user = users[msg.sender];\n    user.usableBalance += msg.value - _clientPay;\n    user.lockedBalance += _clientPay;\n    user.insuranceId = insuranceCount;\n    emit LogNewRequest(msg.sender , insuranceCount , _duration );\n    return insuranceCount;\n  }\n\n  /// @notice Accept a requested insurance by investor\n  /// @param _id of insurance\n  /// @return true\n  function acceptARequestByInvestor(uint _id) public payable\n  stopInEmergency\n  isInit(_id)\n//  isNotInsured(insurances[_id].client)\n  isNotSamePerson(_id)\n  hasEnoughBalance(insurances[_id].investorPay) returns(bool){\n    if(users[msg.sender].user == address(0)){\n      addUser();\n    }\n      Insurance storage insurance = insurances[_id];\n      insurance.investor = msg.sender;\n      insurance.status = Status.INPROCESS;\n      insurance.startTime = now;\n      insurance.expireTime = insurance.startTime +  insurance.duration * 1 days ;\n\n      User storage user = users[msg.sender];\n      user.usableBalance = SafeMath.sub(SafeMath.add(SafeMath.add(msg.value , insurance.clientPay), user.usableBalance) , insurance.investorPay);\n      user.lockedBalance = SafeMath.add(insurance.investorPay, user.lockedBalance);\n      users[insurance.client].lockedBalance = SafeMath.sub(users[insurance.client].lockedBalance,insurance.clientPay);\n      user.investsCount += 1;\n\n      insuredUsers[insurance.client] = true;\n      emit LogInsuranceAcceptedByInvestor(_id);\n      return true;\n  }\n\n  /// @notice Withdraw custom amount\n  /// @dev This does not return any excess ether sent to it\n  /// @param withdrawAmount amount you want to withdraw\n  /// @return The balance remaining for the user\n  function withdraw(uint withdrawAmount) public stopInEmergency returns (uint) {\n    User storage user = users[msg.sender];\n    require(withdrawAmount <= user.usableBalance);\n    user.usableBalance -= withdrawAmount;\n    msg.sender.transfer(withdrawAmount);\n    emit LogWithdrawal(msg.sender, withdrawAmount, user.usableBalance);\n    return user.usableBalance;\n\n  }\n\n  /// @notice Withdraw all balance. it works only in emergency\n  /// @dev This does not return any excess ether sent to it\n  /// @return The balance remaining for the user\n  function withdraw() public onlyInEmergency returns (uint) {\n    User storage user = users[msg.sender];\n    require(user.usableBalance > 0);\n      uint withdrawAmount = user.usableBalance;\n    user.usableBalance = 0;\n    msg.sender.transfer(user.usableBalance);\n    emit LogWithdrawal(msg.sender, withdrawAmount, user.usableBalance);\n    return user.usableBalance;\n\n  }\n\n\n  /// @notice client requests for evaluation\n  /// @dev if insurance has expired, its status changes to FINISHED\n  /// @param insuranceId id of insurance\n  /// @return false if insurance has expired otherwise returns true\n  function requestEvaluator(uint insuranceId) public stopInEmergency\n  verifyCaller(insurances[insuranceId].client)\n  // isNotExpired(insuranceId)\n  isEmpty(insuranceId)\n  // checkValue(insuranceId)\n   returns(bool){\n    require(insurances[insuranceId].evaluator == address(0));\n     if(insurances[insuranceId].expireTime < now){\n       checkIfIsExpired(insuranceId);\n       return false;\n     }else{\n      // require(msg.value >= feeAmount);\n      Insurance storage insurance = insurances[insuranceId];\n      insurance.evaluator = evaluators[0];\n       insurance.status = Status.WAITINGFORAVALUATION;\n//      insurance.evaluator = evaluators[availableEvaluator];\n//      changeAvailableEvaluator(availableEvaluator);\n      emit LogSetEvaluator(insuranceId, insurance.evaluator);\n      return true;\n     }\n\n  }\n\n  /// @notice evalator accepts refund to client\n  /// @param insuranceId id of insurance\n  /// @return true\n  function refundToClient(uint insuranceId) public\n  stopInEmergency\n  verifyCaller(insurances[insuranceId].evaluator)\n  isEmpty(insuranceId)\n  isWaiting(insuranceId)\n   returns(bool){\n    Insurance storage insurance = insurances[insuranceId];\n    insurance.evaluatorStatus = EvaluatorStatus.ACCEPTED;\n    insurance.status = Status.FINISHED;\n\n    User storage client = users[insurance.client];\n    User storage investor = users[insurance.investor];\n\n    investor.lockedBalance -= insurance.investorPay;\n    client.usableBalance += insurance.investorPay;\n\n    emit LogInsuranceFinished(insuranceId, insurance.startTime, insurance.expireTime, now);\n    return true;\n  }\n\n\n  /// @notice evaluator reject refund to client.\n  /// @param insuranceId id of insurance\n  /// @return true\n  function refundToInvestor(uint insuranceId) public\n  stopInEmergency\n  verifyCaller(insurances[insuranceId].evaluator)\n  isEmpty(insuranceId)\n  isWaiting(insuranceId)\n   returns(bool){\n    Insurance storage insurance = insurances[insuranceId];\n    insurance.evaluatorStatus = EvaluatorStatus.REJECTED;\n    insurance.status = Status.FINISHED;\n\n//    User storage client = users[insurance.client];\n    User storage investor = users[insurance.investor];\n\n    investor.lockedBalance -= insurance.investorPay;\n    investor.usableBalance += insurance.investorPay;\n\n    emit LogInsuranceFinished(insuranceId, insurance.startTime, insurance.expireTime ,now);\n    return true;\n  }\n\n  /// @notice check if insurance is expired\n  /// @param insuranceId id of insurance\n  /// @return true\n  function checkIfIsExpired(uint insuranceId) public\n  isEmpty(insuranceId)\n  isInProcess(insuranceId)\n  isExpired(insuranceId)\n   returns(bool){\n    Insurance storage insurance = insurances[insuranceId];\n    insurance.status = Status.FINISHED;\n\n//    User storage client = users[insurance.client];\n    User storage investor = users[insurance.investor];\n\n    investor.lockedBalance -= insurance.investorPay;\n    investor.usableBalance += insurance.investorPay;\n\n    emit LogInsuranceFinished(insuranceId, insurance.startTime, insurance.expireTime, now);\n    return true;\n  }\n\n    /// @notice fetch user info by address\n    /// @param _user address of user\n    /// @return id\n    function fetchUser(address _user) public view returns(\n        uint id, address user, uint usableBalance, uint lockedBalance, uint investsCount, uint insuranceId\n    ) {\n        id = users[_user].id;\n        user = users[_user].user;\n        usableBalance = users[_user].usableBalance;\n        lockedBalance = users[_user].lockedBalance;\n        investsCount = users[_user].investsCount;\n        insuranceId = users[_user].insuranceId;\n        return (id, user, usableBalance, lockedBalance, investsCount, insuranceId);\n    }\n\n    /// @notice fetch insurance item by id\n    /// @param _id of insurance\n    /// @return id\n    function fetchInsurance(uint _id) public view returns (\n        uint id, address investor, address client,\n        uint duration, uint startTime, uint expireTime, uint status,\n        uint investorPay, uint clientPay, address evaluator,  uint evaluatorStatus\n    ) {\n        id = insurances[_id].id;\n        investor = insurances[_id].investor;\n        client = insurances[_id].client;\n        duration = insurances[_id].duration;\n        startTime = insurances[_id].startTime;\n        expireTime = insurances[_id].expireTime;\n        status = uint(insurances[_id].status);\n        investorPay = insurances[_id].investorPay;\n        clientPay = insurances[_id].clientPay;\n        evaluator = insurances[_id].evaluator;\n        evaluatorStatus = uint(insurances[_id].evaluatorStatus);\n        return (id, investor, client, duration, startTime, expireTime, status, investorPay, clientPay, evaluator, evaluatorStatus);\n    }\n\n\n}\n",
  "sourcePath": "/home/eshghi/haniye/blockchain-projects/p2p-insurance/contracts/P2pInsurance.sol",
  "compiler": {
    "name": "solc",
    "version": "0.6.1+commit.e6f7d5a4.Emscripten.clang"
  },
  "schemaVersion": "3.3.2",
  "updatedAt": "2020-11-27T18:35:21.471Z",
  "networkType": "ethereum",
  "devdoc": {
    "methods": {
      "acceptARequestByInvestor(uint256)": {
        "params": {
          "_id": "of insurance"
        },
        "returns": {
          "_0": "true"
        }
      },
      "addNewRequest(uint256,uint256)": {
        "details": "insuranceId 0 is skipped.duration is in day",
        "params": {
          "_clientPay": "amount you want to pay",
          "_duration": "amount you want to be insured"
        },
        "returns": {
          "_0": "insuranceCount the id of the new insurance"
        }
      },
      "checkIfIsExpired(uint256)": {
        "params": {
          "insuranceId": "id of insurance"
        },
        "returns": {
          "_0": "true"
        }
      },
      "fetchInsurance(uint256)": {
        "params": {
          "_id": "of insurance"
        },
        "returns": {
          "id": "id"
        }
      },
      "fetchUser(address)": {
        "params": {
          "_user": "address of user"
        },
        "returns": {
          "id": "id"
        }
      },
      "refundToClient(uint256)": {
        "params": {
          "insuranceId": "id of insurance"
        },
        "returns": {
          "_0": "true"
        }
      },
      "refundToInvestor(uint256)": {
        "params": {
          "insuranceId": "id of insurance"
        },
        "returns": {
          "_0": "true"
        }
      },
      "requestEvaluator(uint256)": {
        "details": "if insurance has expired, its status changes to FINISHED",
        "params": {
          "insuranceId": "id of insurance"
        },
        "returns": {
          "_0": "false if insurance has expired otherwise returns true"
        }
      },
      "withdraw()": {
        "details": "This does not return any excess ether sent to it",
        "returns": {
          "_0": "The balance remaining for the user"
        }
      },
      "withdraw(uint256)": {
        "details": "This does not return any excess ether sent to it",
        "params": {
          "withdrawAmount": "amount you want to withdraw"
        },
        "returns": {
          "_0": "The balance remaining for the user"
        }
      }
    }
  },
  "userdoc": {
    "methods": {
      "acceptARequestByInvestor(uint256)": {
        "notice": "Accept a requested insurance by investor"
      },
      "addNewRequest(uint256,uint256)": {
        "notice": "Add new insurance request from client"
      },
      "checkIfIsExpired(uint256)": {
        "notice": "check if insurance is expired"
      },
      "fetchInsurance(uint256)": {
        "notice": "fetch insurance item by id"
      },
      "fetchUser(address)": {
        "notice": "fetch user info by address"
      },
      "refundToClient(uint256)": {
        "notice": "evalator accepts refund to client"
      },
      "refundToInvestor(uint256)": {
        "notice": "evaluator reject refund to client."
      },
      "requestEvaluator(uint256)": {
        "notice": "client requests for evaluation"
      },
      "withdraw()": {
        "notice": "Withdraw all balance. it works only in emergency"
      },
      "withdraw(uint256)": {
        "notice": "Withdraw custom amount"
      }
    }
  }
}