{
  "contractName": "P2pInsurance",
  "abi": [
    {
      "inputs": [],
      "stateMutability": "nonpayable",
      "type": "constructor"
    },
    {
      "anonymous": false,
      "inputs": [
        {
          "indexed": true,
          "internalType": "address",
          "name": "evaluator",
          "type": "address"
        }
      ],
      "name": "LogEvaluatorAdded",
      "type": "event"
    },
    {
      "anonymous": false,
      "inputs": [
        {
          "indexed": true,
          "internalType": "address",
          "name": "evaluator",
          "type": "address"
        }
      ],
      "name": "LogEvaluatorRemoved",
      "type": "event"
    },
    {
      "anonymous": false,
      "inputs": [
        {
          "indexed": true,
          "internalType": "uint256",
          "name": "insuranceId",
          "type": "uint256"
        }
      ],
      "name": "LogInsuranceAcceptedByInvestor",
      "type": "event"
    },
    {
      "anonymous": false,
      "inputs": [
        {
          "indexed": true,
          "internalType": "uint256",
          "name": "insuranceId",
          "type": "uint256"
        }
      ],
      "name": "LogInsuranceFinished",
      "type": "event"
    },
    {
      "anonymous": false,
      "inputs": [
        {
          "indexed": true,
          "internalType": "address",
          "name": "client",
          "type": "address"
        },
        {
          "indexed": true,
          "internalType": "uint256",
          "name": "insuranceId",
          "type": "uint256"
        },
        {
          "indexed": true,
          "internalType": "uint256",
          "name": "duration",
          "type": "uint256"
        }
      ],
      "name": "LogNewRequest",
      "type": "event"
    },
    {
      "anonymous": false,
      "inputs": [
        {
          "indexed": true,
          "internalType": "bool",
          "name": "stopped",
          "type": "bool"
        }
      ],
      "name": "LogStoppedChanged",
      "type": "event"
    },
    {
      "anonymous": false,
      "inputs": [
        {
          "indexed": true,
          "internalType": "address",
          "name": "accountAddress",
          "type": "address"
        }
      ],
      "name": "LogUserEnrolled",
      "type": "event"
    },
    {
      "anonymous": false,
      "inputs": [
        {
          "indexed": true,
          "internalType": "address",
          "name": "accountAddress",
          "type": "address"
        },
        {
          "indexed": true,
          "internalType": "uint256",
          "name": "withdrawAmount",
          "type": "uint256"
        },
        {
          "indexed": true,
          "internalType": "uint256",
          "name": "newBalance",
          "type": "uint256"
        }
      ],
      "name": "LogWithdrawal",
      "type": "event"
    },
    {
      "inputs": [
        {
          "internalType": "address payable",
          "name": "_evaluator",
          "type": "address"
        }
      ],
      "name": "addNewEvaluator",
      "outputs": [
        {
          "internalType": "bool",
          "name": "",
          "type": "bool"
        }
      ],
      "stateMutability": "nonpayable",
      "type": "function"
    },
    {
      "inputs": [],
      "name": "counter",
      "outputs": [
        {
          "internalType": "uint256",
          "name": "",
          "type": "uint256"
        }
      ],
      "stateMutability": "view",
      "type": "function",
      "constant": true
    },
    {
      "inputs": [
        {
          "internalType": "address",
          "name": "",
          "type": "address"
        }
      ],
      "name": "enrolled",
      "outputs": [
        {
          "internalType": "bool",
          "name": "",
          "type": "bool"
        }
      ],
      "stateMutability": "view",
      "type": "function",
      "constant": true
    },
    {
      "inputs": [
        {
          "internalType": "uint256",
          "name": "",
          "type": "uint256"
        }
      ],
      "name": "evaluators",
      "outputs": [
        {
          "internalType": "address payable",
          "name": "",
          "type": "address"
        }
      ],
      "stateMutability": "view",
      "type": "function",
      "constant": true
    },
    {
      "inputs": [
        {
          "internalType": "uint256",
          "name": "",
          "type": "uint256"
        }
      ],
      "name": "insurances",
      "outputs": [
        {
          "internalType": "uint256",
          "name": "id",
          "type": "uint256"
        },
        {
          "internalType": "address",
          "name": "investor",
          "type": "address"
        },
        {
          "internalType": "address",
          "name": "client",
          "type": "address"
        },
        {
          "internalType": "uint256",
          "name": "duration",
          "type": "uint256"
        },
        {
          "internalType": "uint256",
          "name": "startTime",
          "type": "uint256"
        },
        {
          "internalType": "uint256",
          "name": "expireTime",
          "type": "uint256"
        },
        {
          "internalType": "enum P2pInsurance.Status",
          "name": "status",
          "type": "uint8"
        },
        {
          "internalType": "uint256",
          "name": "investorPay",
          "type": "uint256"
        },
        {
          "internalType": "uint256",
          "name": "clientPay",
          "type": "uint256"
        },
        {
          "internalType": "address payable",
          "name": "evaluator",
          "type": "address"
        }
      ],
      "stateMutability": "view",
      "type": "function",
      "constant": true
    },
    {
      "inputs": [
        {
          "internalType": "address",
          "name": "",
          "type": "address"
        }
      ],
      "name": "insuredUsers",
      "outputs": [
        {
          "internalType": "bool",
          "name": "",
          "type": "bool"
        }
      ],
      "stateMutability": "view",
      "type": "function",
      "constant": true
    },
    {
      "inputs": [],
      "name": "startContract",
      "outputs": [
        {
          "internalType": "bool",
          "name": "",
          "type": "bool"
        }
      ],
      "stateMutability": "nonpayable",
      "type": "function"
    },
    {
      "inputs": [],
      "name": "stopContract",
      "outputs": [
        {
          "internalType": "bool",
          "name": "",
          "type": "bool"
        }
      ],
      "stateMutability": "nonpayable",
      "type": "function"
    },
    {
      "inputs": [],
      "name": "stopped",
      "outputs": [
        {
          "internalType": "bool",
          "name": "",
          "type": "bool"
        }
      ],
      "stateMutability": "view",
      "type": "function",
      "constant": true
    },
    {
      "inputs": [
        {
          "internalType": "address",
          "name": "",
          "type": "address"
        }
      ],
      "name": "validEvaluators",
      "outputs": [
        {
          "internalType": "bool",
          "name": "",
          "type": "bool"
        }
      ],
      "stateMutability": "view",
      "type": "function",
      "constant": true
    },
    {
      "inputs": [],
      "name": "addUser",
      "outputs": [
        {
          "internalType": "bool",
          "name": "",
          "type": "bool"
        }
      ],
      "stateMutability": "nonpayable",
      "type": "function"
    },
    {
      "inputs": [
        {
          "internalType": "uint256",
          "name": "_duration",
          "type": "uint256"
        },
        {
          "internalType": "uint256",
          "name": "_clientPay",
          "type": "uint256"
        }
      ],
      "name": "addNewRequest",
      "outputs": [],
      "stateMutability": "payable",
      "type": "function",
      "payable": true
    },
    {
      "inputs": [
        {
          "internalType": "uint256",
          "name": "_id",
          "type": "uint256"
        }
      ],
      "name": "acceptAnRequestByInvestor",
      "outputs": [],
      "stateMutability": "payable",
      "type": "function",
      "payable": true
    },
    {
      "inputs": [
        {
          "internalType": "uint256",
          "name": "withdrawAmount",
          "type": "uint256"
        }
      ],
      "name": "withdraw",
      "outputs": [
        {
          "internalType": "uint256",
          "name": "",
          "type": "uint256"
        }
      ],
      "stateMutability": "nonpayable",
      "type": "function"
    },
    {
      "inputs": [
        {
          "internalType": "uint256",
          "name": "insuranceId",
          "type": "uint256"
        }
      ],
      "name": "requestEvaluator",
      "outputs": [
        {
          "internalType": "bool",
          "name": "",
          "type": "bool"
        }
      ],
      "stateMutability": "payable",
      "type": "function",
      "payable": true
    }
  ],
  "bytecode": "0x60806040526000600460006101000a81548160ff02191690831515021790555034801561002b57600080fd5b50336000806101000a81548173ffffffffffffffffffffffffffffffffffffffff021916908373ffffffffffffffffffffffffffffffffffffffff16021790555060006003819055506000600a819055506000600b81905550611926806100936000396000f3fe6080604052600436106100e85760003560e01c806361bc221a1161008a578063e168afe311610059578063e168afe314610489578063e7cebea914610504578063f2db3b6f1461056d578063fa1d01a4146105a5576100e8565b806361bc221a1461039857806375f12b21146103c35780639a7c79b0146103f25780639aaa5bc81461045b576100e8565b80632e1a7d4d116100c65780632e1a7d4d146101cb578063455c928c1461021a57806359fb49f9146102495780635fb02f4d14610369576100e8565b806310eb0e0e146100ed57806312253a6c146101565780631dc15a8314610185575b600080fd5b3480156100f957600080fd5b5061013c6004803603602081101561011057600080fd5b81019080803573ffffffffffffffffffffffffffffffffffffffff16906020019092919050505061060e565b604051808215151515815260200191505060405180910390f35b34801561016257600080fd5b5061016b61062e565b604051808215151515815260200191505060405180910390f35b6101b16004803603602081101561019b57600080fd5b81019080803590602001909291905050506106f7565b604051808215151515815260200191505060405180910390f35b3480156101d757600080fd5b50610204600480360360208110156101ee57600080fd5b8101908080359060200190929190505050610833565b6040518082815260200191505060405180910390f35b34801561022657600080fd5b5061022f610937565b604051808215151515815260200191505060405180910390f35b34801561025557600080fd5b506102826004803603602081101561026c57600080fd5b8101908080359060200190929190505050610b0a565b604051808b81526020018a73ffffffffffffffffffffffffffffffffffffffff1673ffffffffffffffffffffffffffffffffffffffff1681526020018973ffffffffffffffffffffffffffffffffffffffff1673ffffffffffffffffffffffffffffffffffffffff16815260200188815260200187815260200186815260200185600281111561030e57fe5b60ff1681526020018481526020018381526020018273ffffffffffffffffffffffffffffffffffffffff1673ffffffffffffffffffffffffffffffffffffffff1681526020019a505050505050505050505060405180910390f35b34801561037557600080fd5b5061037e610bcb565b604051808215151515815260200191505060405180910390f35b3480156103a457600080fd5b506103ad610c94565b6040518082815260200191505060405180910390f35b3480156103cf57600080fd5b506103d8610c9a565b604051808215151515815260200191505060405180910390f35b3480156103fe57600080fd5b506104416004803603602081101561041557600080fd5b81019080803573ffffffffffffffffffffffffffffffffffffffff169060200190929190505050610cad565b604051808215151515815260200191505060405180910390f35b6104876004803603602081101561047157600080fd5b8101908080359060200190929190505050610ccd565b005b34801561049557600080fd5b506104c2600480360360208110156104ac57600080fd5b81019080803590602001909291905050506111f4565b604051808273ffffffffffffffffffffffffffffffffffffffff1673ffffffffffffffffffffffffffffffffffffffff16815260200191505060405180910390f35b34801561051057600080fd5b506105536004803603602081101561052757600080fd5b81019080803573ffffffffffffffffffffffffffffffffffffffff169060200190929190505050611227565b604051808215151515815260200191505060405180910390f35b6105a36004803603604081101561058357600080fd5b81019080803590602001909291908035906020019092919050505061138a565b005b3480156105b157600080fd5b506105f4600480360360208110156105c857600080fd5b81019080803573ffffffffffffffffffffffffffffffffffffffff169060200190929190505050611714565b604051808215151515815260200191505060405180910390f35b60096020528060005260406000206000915054906101000a900460ff1681565b60008060009054906101000a900473ffffffffffffffffffffffffffffffffffffffff1673ffffffffffffffffffffffffffffffffffffffff163373ffffffffffffffffffffffffffffffffffffffff161461068957600080fd5b6001600460006101000a81548160ff021916908315150217905550600460009054906101000a900460ff1615157ffb0dcbdf8561fb4eedad00908914583b7985b9e7df1d0234f4d43f9cc94fb9ab60405160405180910390a2600460009054906101000a900460ff16905090565b60006006600083815260200190815260200160002060020160009054906101000a900473ffffffffffffffffffffffffffffffffffffffff168073ffffffffffffffffffffffffffffffffffffffff163373ffffffffffffffffffffffffffffffffffffffff161461076857600080fd5b82426006600083815260200190815260200160002060050154111561078c57600080fd5b600060066000868152602001908152602001600020905060026000600554815260200190815260200160002060009054906101000a900473ffffffffffffffffffffffffffffffffffffffff168160090160006101000a81548173ffffffffffffffffffffffffffffffffffffffff021916908373ffffffffffffffffffffffffffffffffffffffff160217905550610826600554611734565b5060019350505050919050565b600080600760003373ffffffffffffffffffffffffffffffffffffffff1673ffffffffffffffffffffffffffffffffffffffff1681526020019081526020016000209050806002015483111561088857600080fd5b8281600201600082825403925050819055503373ffffffffffffffffffffffffffffffffffffffff166108fc849081150290604051600060405180830381858888f193505050501580156108e0573d6000803e3d6000fd5b508060020154833373ffffffffffffffffffffffffffffffffffffffff167ff9226daf630542048a23086c6af599511aac100ec8f532793cc9697d061bed7e60405160405180910390a48060020154915050919050565b6000600460009054906101000a900460ff161561095357600080fd5b6040518060c00160405280600b5481526020013373ffffffffffffffffffffffffffffffffffffffff1681526020016000815260200160008152602001600081526020016000815250600760003373ffffffffffffffffffffffffffffffffffffffff1673ffffffffffffffffffffffffffffffffffffffff1681526020019081526020016000206000820151816000015560208201518160010160006101000a81548173ffffffffffffffffffffffffffffffffffffffff021916908373ffffffffffffffffffffffffffffffffffffffff16021790555060408201518160020155606082015181600301556080820151816004015560a082015181600501559050506001600960003373ffffffffffffffffffffffffffffffffffffffff1673ffffffffffffffffffffffffffffffffffffffff16815260200190815260200160002060006101000a81548160ff0219169083151502179055506001600b600082825401925050819055503373ffffffffffffffffffffffffffffffffffffffff167f33565c4c79534bf45bf4e563ac54d1ae43178670871a0e197373ce367e67c84b60405160405180910390a26001905090565b60066020528060005260406000206000915090508060000154908060010160009054906101000a900473ffffffffffffffffffffffffffffffffffffffff16908060020160009054906101000a900473ffffffffffffffffffffffffffffffffffffffff16908060030154908060040154908060050154908060060160009054906101000a900460ff16908060070154908060080154908060090160009054906101000a900473ffffffffffffffffffffffffffffffffffffffff1690508a565b60008060009054906101000a900473ffffffffffffffffffffffffffffffffffffffff1673ffffffffffffffffffffffffffffffffffffffff163373ffffffffffffffffffffffffffffffffffffffff1614610c2657600080fd5b6000600460006101000a81548160ff021916908315150217905550600460009054906101000a900460ff1615157ffb0dcbdf8561fb4eedad00908914583b7985b9e7df1d0234f4d43f9cc94fb9ab60405160405180910390a2600460009054906101000a900460ff16905090565b60035481565b600460009054906101000a900460ff1681565b60016020528060005260406000206000915054906101000a900460ff1681565b600460009054906101000a900460ff1615610ce757600080fd5b600960003373ffffffffffffffffffffffffffffffffffffffff1673ffffffffffffffffffffffffffffffffffffffff16815260200190815260200160002060009054906101000a900460ff16610d3d57600080fd5b8060006002811115610d4b57fe5b6006600083815260200190815260200160002060060160009054906101000a900460ff166002811115610d7a57fe5b148015610d9e57506000600660008381526020019081526020016000206003015414155b610da757600080fd5b6006600083815260200190815260200160002060020160009054906101000a900473ffffffffffffffffffffffffffffffffffffffff16600860008273ffffffffffffffffffffffffffffffffffffffff1673ffffffffffffffffffffffffffffffffffffffff16815260200190815260200160002060009054906101000a900460ff1615610e3557600080fd5b823373ffffffffffffffffffffffffffffffffffffffff166006600083815260200190815260200160002060020160009054906101000a900473ffffffffffffffffffffffffffffffffffffffff1673ffffffffffffffffffffffffffffffffffffffff161415610ea557600080fd5b600660008581526020019081526020016000206007015480610f09600760003373ffffffffffffffffffffffffffffffffffffffff1673ffffffffffffffffffffffffffffffffffffffff168152602001908152602001600020600201543461175e565b1015610f1457600080fd5b6000600660008781526020019081526020016000209050338160010160006101000a81548173ffffffffffffffffffffffffffffffffffffffff021916908373ffffffffffffffffffffffffffffffffffffffff16021790555060018160060160006101000a81548160ff02191690836002811115610f8f57fe5b0217905550428160040181905550806003015481600401540181600501819055508060040154816005015411610fc457600080fd5b6000600760003373ffffffffffffffffffffffffffffffffffffffff1673ffffffffffffffffffffffffffffffffffffffff168152602001908152602001600020905061102f61102561101b34856008015461175e565b836002015461175e565b83600701546117e6565b81600201819055506110498260070154826003015461175e565b81600301819055506110c5600760008460020160009054906101000a900473ffffffffffffffffffffffffffffffffffffffff1673ffffffffffffffffffffffffffffffffffffffff1673ffffffffffffffffffffffffffffffffffffffff1681526020019081526020016000206003015483600801546117e6565b600760008460020160009054906101000a900473ffffffffffffffffffffffffffffffffffffffff1673ffffffffffffffffffffffffffffffffffffffff1673ffffffffffffffffffffffffffffffffffffffff16815260200190815260200160002060030181905550600181600401600082825401925050819055506001600860008460020160009054906101000a900473ffffffffffffffffffffffffffffffffffffffff1673ffffffffffffffffffffffffffffffffffffffff1673ffffffffffffffffffffffffffffffffffffffff16815260200190815260200160002060006101000a81548160ff021916908315150217905550867ff3d319027ffc1483fb92765fcae7cd84d9ba32891dbc11facf50efda5aea6ff160405160405180910390a250505050505050565b60026020528060005260406000206000915054906101000a900473ffffffffffffffffffffffffffffffffffffffff1681565b60008060009054906101000a900473ffffffffffffffffffffffffffffffffffffffff1673ffffffffffffffffffffffffffffffffffffffff163373ffffffffffffffffffffffffffffffffffffffff161461128257600080fd5b8160026000600354815260200190815260200160002060006101000a81548173ffffffffffffffffffffffffffffffffffffffff021916908373ffffffffffffffffffffffffffffffffffffffff160217905550600160036000828254019250508190555060018060008473ffffffffffffffffffffffffffffffffffffffff1673ffffffffffffffffffffffffffffffffffffffff16815260200190815260200160002060006101000a81548160ff0219169083151502179055508173ffffffffffffffffffffffffffffffffffffffff167f40ce51e165ca122b79b4e5ba4348d1a49270fc4949ee3b9bed282864ba428aa160405160405180910390a260019050919050565b600460009054906101000a900460ff16156113a457600080fd5b600960003373ffffffffffffffffffffffffffffffffffffffff1673ffffffffffffffffffffffffffffffffffffffff16815260200190815260200160002060009054906101000a900460ff166113fa57600080fd5b8080611448600760003373ffffffffffffffffffffffffffffffffffffffff1673ffffffffffffffffffffffffffffffffffffffff168152602001908152602001600020600201543461175e565b101561145357600080fd5b6001600a60008282540192505081905550604051806101400160405280600a548152602001600073ffffffffffffffffffffffffffffffffffffffff1681526020013373ffffffffffffffffffffffffffffffffffffffff1681526020018481526020016000815260200160008152602001600060028111156114d257fe5b815260200160008152602001838152602001600073ffffffffffffffffffffffffffffffffffffffff1681525060066000600a5481526020019081526020016000206000820151816000015560208201518160010160006101000a81548173ffffffffffffffffffffffffffffffffffffffff021916908373ffffffffffffffffffffffffffffffffffffffff16021790555060408201518160020160006101000a81548173ffffffffffffffffffffffffffffffffffffffff021916908373ffffffffffffffffffffffffffffffffffffffff160217905550606082015181600301556080820151816004015560a0820151816005015560c08201518160060160006101000a81548160ff021916908360028111156115ee57fe5b021790555060e0820151816007015561010082015181600801556101208201518160090160006101000a81548173ffffffffffffffffffffffffffffffffffffffff021916908373ffffffffffffffffffffffffffffffffffffffff1602179055509050506000600760003373ffffffffffffffffffffffffffffffffffffffff1673ffffffffffffffffffffffffffffffffffffffff16815260200190815260200160002090508234038160020160008282540192505081905550828160030160008282540192505081905550600a54816005018190555083600a543373ffffffffffffffffffffffffffffffffffffffff167f725329d2e7e32db4f9aa8fb7442ebaded93905569e3ec599a16a90dbcc7db84860405160405180910390a450505050565b60086020528060005260406000206000915054906101000a900460ff1681565b600060018201600581905550600354600554106117545760006005819055505b6005549050919050565b6000808284019050838110156117dc576040517f08c379a000000000000000000000000000000000000000000000000000000000815260040180806020018281038252601b8152602001807f536166654d6174683a206164646974696f6e206f766572666c6f77000000000081525060200191505060405180910390fd5b8091505092915050565b600061182883836040518060400160405280601e81526020017f536166654d6174683a207375627472616374696f6e206f766572666c6f770000815250611830565b905092915050565b60008383111582906118dd576040517f08c379a00000000000000000000000000000000000000000000000000000000081526004018080602001828103825283818151815260200191508051906020019080838360005b838110156118a2578082015181840152602081019050611887565b50505050905090810190601f1680156118cf5780820380516001836020036101000a031916815260200191505b509250505060405180910390fd5b506000838503905080915050939250505056fea264697066735822122037d5ddd64cca539f40e25e710fda7616a48c2a97d2f110c6c40caaa260df26d164736f6c63430006010033",
  "source": "// SPDX-License-Identifier: MIT\npragma solidity >=0.4.22 <0.8.0;\n\nimport \"../p2p-insurance-front/node_modules/@openzeppelin/contracts/math/SafeMath.sol\";\nimport './Admin.sol';\n\ncontract P2pInsurance is Admin{\n  mapping( uint => Insurance) public insurances; \n  mapping(address => User) private users; \n  mapping (address => bool) public insuredUsers;\n  mapping (address => bool) public enrolled;\n\n  uint insuranceCount;\n  uint usersCount;\n  \n  \n  struct User {\n    uint id;\n    address payable user;\n    uint usableBalance;\n    uint lockedBalance;\n    uint investsCount;\n    uint insuranceId;\n  }\n\n  struct Insurance {\n      uint id;\n    address investor;\n    address client;\n    uint duration; // todo must check type\n    uint startTime;\n    uint expireTime;\n    Status status;\n    uint investorPay;\n    uint clientPay; // todo calculate clientPay with math\n    address payable evaluator;\n  }\n\n  enum Status {\n    INIT , INPROCESS, FINISHED\n  }\n  \n  \n  //events\n  event LogUserEnrolled(address indexed accountAddress);\n  event LogNewRequest(address indexed client, uint indexed insuranceId, uint indexed duration);\n  event LogInsuranceAcceptedByInvestor(uint indexed insuranceId);\n  event LogInsuranceFinished(uint indexed insuranceId);\n  event LogWithdrawal(address indexed accountAddress, uint indexed withdrawAmount, uint indexed newBalance);\n  //\n  \n  \n  modifier isFinished(uint insuranceId){\n      require(insurances[insuranceId].status == Status.FINISHED);\n      _;\n  }\n  \n  modifier isInProcess(uint insuranceId){\n      require(insurances[insuranceId].status == Status.INPROCESS);\n      _;\n  }\n  \n  modifier isInit(uint insuranceId){\n      require(insurances[insuranceId].status == Status.INIT && insurances[insuranceId].duration != 0);\n      _;\n  }\n  \n  modifier verifyCaller (address _address) { \n      require (msg.sender == _address); \n      _;\n      \n  }\n  modifier hasEnoughBalance(uint _price) {\n      require(SafeMath.add(users[msg.sender].usableBalance , msg.value) >= _price);\n      _;\n      \n  }\n  modifier isEnrolled() {\n      require(enrolled[msg.sender]);\n      _;\n      \n  }\n  \n  modifier isNotInsured(address _address) {\n      require(!insuredUsers[_address]);\n      _;\n      \n  }\n  \n  modifier isNotSamePerson(uint insuranceId) {\n      require(insurances[insuranceId].client != msg.sender);\n      _;   \n  }\n\nmodifier isNotExpired(uint insuranceId) {\n      require(insurances[insuranceId].expireTime <= now);\n      _;   \n  }\n  \n  constructor() public {\n    insuranceCount = 0;\n    usersCount = 0;\n  }\n\n  function addUser() public stopInEmergency returns ( bool){\n    users[msg.sender] = User({\n        user: msg.sender,\n        id: usersCount,\n        usableBalance: 0,\n        lockedBalance: 0,\n        investsCount: 0,\n        insuranceId: 0\n    });\n    enrolled[msg.sender] = true;\n    usersCount += 1;\n    emit LogUserEnrolled(msg.sender);\n    return true;\n  }\n  \n  function addNewRequest(uint _duration, uint _clientPay) public payable\n  stopInEmergency\n  isEnrolled\n  hasEnoughBalance(_clientPay)\n  {\n      insuranceCount += 1;\n      insurances[insuranceCount] = Insurance({\n          id: insuranceCount,\n          investor: address(0),\n          client: msg.sender,\n          duration: _duration,\n          startTime: 0,\n          expireTime: 0,\n          status: Status.INIT,\n          investorPay: 0,\n          clientPay: _clientPay,\n          evaluator: address(0)\n      });\n      // todo calculate investorPay by duration and clientPay\n      User storage user = users[msg.sender];\n      user.usableBalance += msg.value - _clientPay;\n      user.lockedBalance += _clientPay;\n      user.insuranceId = insuranceCount;\n      emit LogNewRequest(msg.sender , insuranceCount , _duration );\n  }\n  \n  function acceptAnRequestByInvestor(uint _id) public payable\n  stopInEmergency\n  isEnrolled\n  isInit(_id)\n  isNotInsured(insurances[_id].client)\n  isNotSamePerson(_id)\n  hasEnoughBalance(insurances[_id].investorPay){\n      Insurance storage insurance = insurances[_id];\n      insurance.investor = msg.sender;\n      insurance.status = Status.INPROCESS;\n      insurance.startTime = block.timestamp;\n      insurance.expireTime = insurance.startTime + insurance.duration;\n      require(insurance.expireTime > insurance.startTime ); // todo check this is correct\n      User storage user = users[msg.sender];\n      user.usableBalance = SafeMath.sub(SafeMath.add(SafeMath.add(msg.value , insurance.clientPay), user.usableBalance) , insurance.investorPay);\n      user.lockedBalance = SafeMath.add(insurance.investorPay, user.lockedBalance);\n      users[insurance.client].lockedBalance = SafeMath.sub(users[insurance.client].lockedBalance,insurance.clientPay);\n      user.investsCount += 1;\n      \n      insuredUsers[insurance.client] = true;\n      emit LogInsuranceAcceptedByInvestor(_id);\n      \n  }\n\n  /// @notice Withdraw ether from bank\n  /// @dev This does not return any excess ether sent to it\n  /// @param withdrawAmount amount you want to withdraw\n  /// @return The balance remaining for the user \n  function withdraw(uint withdrawAmount) public returns (uint) {\n    User storage user = users[msg.sender];\n    require(withdrawAmount <= user.usableBalance);\n    user.usableBalance -= withdrawAmount;\n    msg.sender.transfer(withdrawAmount);\n    emit LogWithdrawal(msg.sender, withdrawAmount, user.usableBalance);\n    return user.usableBalance;\n\n  }\n  \n  function requestEvaluator(uint insuranceId) public payable \n  verifyCaller(insurances[insuranceId].client)\n  isNotExpired(insuranceId)\n   returns(bool){\n    Insurance storage insurance = insurances[insuranceId];\n    insurance.evaluator = evaluators[availableEvaluator];\n    changeAvailableEvaluator(availableEvaluator);\n    return true;\n  }\n\n}\n",
  "sourcePath": "W:/haniye-projects/p2p-insurance/contracts/P2pInsurance.sol",
  "compiler": {
    "name": "solc",
    "version": "0.6.1+commit.e6f7d5a4.Emscripten.clang"
  },
  "schemaVersion": "3.3.2",
  "updatedAt": "2020-11-12T19:00:02.257Z",
  "networkType": "ethereum",
  "devdoc": {
    "methods": {
      "withdraw(uint256)": {
        "details": "This does not return any excess ether sent to it",
        "params": {
          "withdrawAmount": "amount you want to withdraw"
        },
        "returns": {
          "_0": "The balance remaining for the user "
        }
      }
    }
  },
  "userdoc": {
    "methods": {
      "withdraw(uint256)": {
        "notice": "Withdraw ether from bank"
      }
    }
  }
}